{"contracts/WillExecutor.sol":{"WillExecutor":{"abi":[{"inputs":[],"stateMutability":"nonpayable","type":"constructor"},{"anonymous":false,"inputs":[{"indexed":true,"internalType":"address","name":"owner","type":"address"},{"indexed":true,"internalType":"address","name":"approved","type":"address"},{"indexed":true,"internalType":"uint256","name":"tokenId","type":"uint256"}],"name":"Approval","type":"event"},{"anonymous":false,"inputs":[{"indexed":true,"internalType":"address","name":"owner","type":"address"},{"indexed":true,"internalType":"address","name":"operator","type":"address"},{"indexed":false,"internalType":"bool","name":"approved","type":"bool"}],"name":"ApprovalForAll","type":"event"},{"anonymous":false,"inputs":[{"indexed":true,"internalType":"address","name":"previousOwner","type":"address"},{"indexed":true,"internalType":"address","name":"newOwner","type":"address"}],"name":"OwnershipTransferred","type":"event"},{"anonymous":false,"inputs":[{"indexed":true,"internalType":"address","name":"from","type":"address"},{"indexed":true,"internalType":"address","name":"to","type":"address"},{"indexed":true,"internalType":"uint256","name":"tokenId","type":"uint256"}],"name":"Transfer","type":"event"},{"inputs":[{"internalType":"address","name":"to","type":"address"},{"internalType":"uint256","name":"tokenId","type":"uint256"}],"name":"approve","outputs":[],"stateMutability":"nonpayable","type":"function"},{"inputs":[{"internalType":"address","name":"owner","type":"address"}],"name":"balanceOf","outputs":[{"internalType":"uint256","name":"","type":"uint256"}],"stateMutability":"view","type":"function"},{"inputs":[{"internalType":"uint256[]","name":"tokenAmounts","type":"uint256[]"},{"internalType":"address[]","name":"tokenAddresses","type":"address[]"},{"internalType":"address[]","name":"tokenRecipients","type":"address[]"},{"internalType":"uint256[]","name":"nftTokenIds","type":"uint256[]"},{"internalType":"address[]","name":"nftRecipients","type":"address[]"},{"internalType":"address","name":"testator","type":"address"}],"name":"createTransferContract","outputs":[{"internalType":"address","name":"","type":"address"}],"stateMutability":"nonpayable","type":"function"},{"inputs":[{"internalType":"address","name":"testator","type":"address"}],"name":"executeTransfers","outputs":[],"stateMutability":"nonpayable","type":"function"},{"inputs":[{"internalType":"uint256","name":"tokenId","type":"uint256"}],"name":"getApproved","outputs":[{"internalType":"address","name":"","type":"address"}],"stateMutability":"view","type":"function"},{"inputs":[{"internalType":"address","name":"owner","type":"address"},{"internalType":"address","name":"operator","type":"address"}],"name":"isApprovedForAll","outputs":[{"internalType":"bool","name":"","type":"bool"}],"stateMutability":"view","type":"function"},{"inputs":[{"internalType":"address","name":"testator","type":"address"}],"name":"isReadyToExecute","outputs":[{"internalType":"bool","name":"","type":"bool"}],"stateMutability":"view","type":"function"},{"inputs":[{"internalType":"address","name":"to","type":"address"},{"internalType":"string[]","name":"assetNames","type":"string[]"},{"internalType":"string[]","name":"assetDescriptions","type":"string[]"}],"name":"mintNFTs","outputs":[{"internalType":"uint256[]","name":"","type":"uint256[]"}],"stateMutability":"nonpayable","type":"function"},{"inputs":[],"name":"name","outputs":[{"internalType":"string","name":"","type":"string"}],"stateMutability":"view","type":"function"},{"inputs":[],"name":"owner","outputs":[{"internalType":"address","name":"","type":"address"}],"stateMutability":"view","type":"function"},{"inputs":[{"internalType":"uint256","name":"tokenId","type":"uint256"}],"name":"ownerOf","outputs":[{"internalType":"address","name":"","type":"address"}],"stateMutability":"view","type":"function"},{"inputs":[{"internalType":"uint256","name":"tokenId","type":"uint256"},{"internalType":"address","name":"recipient","type":"address"}],"name":"preApproveNFTTransfer","outputs":[],"stateMutability":"nonpayable","type":"function"},{"inputs":[],"name":"renounceOwnership","outputs":[],"stateMutability":"nonpayable","type":"function"},{"inputs":[{"internalType":"address","name":"from","type":"address"},{"internalType":"address","name":"to","type":"address"},{"internalType":"uint256","name":"tokenId","type":"uint256"}],"name":"safeTransferFrom","outputs":[],"stateMutability":"nonpayable","type":"function"},{"inputs":[{"internalType":"address","name":"from","type":"address"},{"internalType":"address","name":"to","type":"address"},{"internalType":"uint256","name":"tokenId","type":"uint256"},{"internalType":"bytes","name":"data","type":"bytes"}],"name":"safeTransferFrom","outputs":[],"stateMutability":"nonpayable","type":"function"},{"inputs":[{"internalType":"address","name":"operator","type":"address"},{"internalType":"bool","name":"approved","type":"bool"}],"name":"setApprovalForAll","outputs":[],"stateMutability":"nonpayable","type":"function"},{"inputs":[{"internalType":"bytes4","name":"interfaceId","type":"bytes4"}],"name":"supportsInterface","outputs":[{"internalType":"bool","name":"","type":"bool"}],"stateMutability":"view","type":"function"},{"inputs":[],"name":"symbol","outputs":[{"internalType":"string","name":"","type":"string"}],"stateMutability":"view","type":"function"},{"inputs":[{"internalType":"uint256","name":"tokenId","type":"uint256"}],"name":"tokenURI","outputs":[{"internalType":"string","name":"","type":"string"}],"stateMutability":"view","type":"function"},{"inputs":[{"internalType":"address","name":"","type":"address"}],"name":"transferContracts","outputs":[{"internalType":"contract TransferContract","name":"","type":"address"}],"stateMutability":"view","type":"function"},{"inputs":[{"internalType":"address","name":"from","type":"address"},{"internalType":"address","name":"to","type":"address"},{"internalType":"uint256","name":"tokenId","type":"uint256"}],"name":"transferFrom","outputs":[],"stateMutability":"nonpayable","type":"function"},{"inputs":[{"internalType":"address","name":"newOwner","type":"address"}],"name":"transferOwnership","outputs":[],"stateMutability":"nonpayable","type":"function"},{"inputs":[],"name":"willProtocol","outputs":[{"internalType":"address","name":"","type":"address"}],"stateMutability":"view","type":"function"}],"evm":{"bytecode":{"linkReferences":{},"object":"60806040523480156200001157600080fd5b506040518060400160405280601381526020017f50726f70657274795472616e736665724e4654000000000000000000000000008152506040518060400160405280600381526020017f505452000000000000000000000000000000000000000000000000000000000081525081600090816200008f9190620004b6565b508060019081620000a19190620004b6565b505050620000c4620000b86200016e60201b60201c565b6200017660201b60201c565b33600860006101000a81548173ffffffffffffffffffffffffffffffffffffffff021916908373ffffffffffffffffffffffffffffffffffffffff160217905550600860009054906101000a900473ffffffffffffffffffffffffffffffffffffffff16600960006101000a81548173ffffffffffffffffffffffffffffffffffffffff021916908373ffffffffffffffffffffffffffffffffffffffff1602179055506200059d565b600033905090565b6000600760009054906101000a900473ffffffffffffffffffffffffffffffffffffffff16905081600760006101000a81548173ffffffffffffffffffffffffffffffffffffffff021916908373ffffffffffffffffffffffffffffffffffffffff1602179055508173ffffffffffffffffffffffffffffffffffffffff168173ffffffffffffffffffffffffffffffffffffffff167f8be0079c531659141344cd1fd0a4f28419497f9722a3daafe3b4186f6b6457e060405160405180910390a35050565b600081519050919050565b7f4e487b7100000000000000000000000000000000000000000000000000000000600052604160045260246000fd5b7f4e487b7100000000000000000000000000000000000000000000000000000000600052602260045260246000fd5b60006002820490506001821680620002be57607f821691505b602082108103620002d457620002d362000276565b5b50919050565b60008190508160005260206000209050919050565b60006020601f8301049050919050565b600082821b905092915050565b6000600883026200033e7fffffffffffffffffffffffffffffffffffffffffffffffffffffffffffffffff82620002ff565b6200034a8683620002ff565b95508019841693508086168417925050509392505050565b6000819050919050565b6000819050919050565b600062000397620003916200038b8462000362565b6200036c565b62000362565b9050919050565b6000819050919050565b620003b38362000376565b620003cb620003c2826200039e565b8484546200030c565b825550505050565b600090565b620003e2620003d3565b620003ef818484620003a8565b505050565b5b8181101562000417576200040b600082620003d8565b600181019050620003f5565b5050565b601f82111562000466576200043081620002da565b6200043b84620002ef565b810160208510156200044b578190505b620004636200045a85620002ef565b830182620003f4565b50505b505050565b600082821c905092915050565b60006200048b600019846008026200046b565b1980831691505092915050565b6000620004a6838362000478565b9150826002028217905092915050565b620004c1826200023c565b67ffffffffffffffff811115620004dd57620004dc62000247565b5b620004e98254620002a5565b620004f68282856200041b565b600060209050601f8311600181146200052e576000841562000519578287015190505b62000525858262000498565b86555062000595565b601f1984166200053e86620002da565b60005b82811015620005685784890151825560018201915060208501945060208101905062000541565b8683101562000588578489015162000584601f89168262000478565b8355505b6001600288020188555050505b505050505050565b6155e980620005ad6000396000f3fe60806040523480156200001157600080fd5b50600436106200016c5760003560e01c806370a0823111620000d5578063b88d4fde1162000087578063b88d4fde146200041d578063c87b56dd146200043d578063d13820641462000473578063e985e9c514620004a9578063f2fde38b14620004df578063ffe6ea4914620004ff576200016c565b806370a082311462000341578063715018a6146200037757806375778db114620003835780638da5cb5b14620003b957806395d89b4114620003db578063a22cb46514620003fd576200016c565b806323b872dd116200012f57806323b872dd146200023f57806332f00c64146200025f578063343c5e36146200027f57806342842e0e14620002b557806348bb5fc614620002d55780636352211e146200030b576200016c565b806301ffc9a7146200017157806306fdde0314620001a7578063081812fc14620001c9578063095ea7b314620001ff578063202ff74d146200021f575b600080fd5b6200018f6004803603810190620001899190620025bc565b62000521565b6040516200019e91906200260b565b60405180910390f35b620001b162000607565b604051620001c09190620026c2565b60405180910390f35b620001e76004803603810190620001e1919062002721565b620006a1565b604051620001f6919062002798565b60405180910390f35b6200021d6004803603810190620002179190620027e6565b620006e9565b005b6200023d60048036038101906200023791906200282d565b62000811565b005b6200025d60048036038101906200025791906200285f565b62000938565b005b6200027d6004803603810190620002779190620028bb565b620009a1565b005b6200029d60048036038101906200029791906200282d565b62000a44565b604051620002ac91906200260b565b60405180910390f35b620002d36004803603810190620002cd91906200285f565b62000bb0565b005b620002f36004803603810190620002ed919062002b4f565b62000bd2565b60405162000302919062002cb7565b60405180910390f35b62000329600480360381019062000323919062002721565b62000d8a565b60405162000338919062002798565b60405180910390f35b6200035f60048036038101906200035991906200282d565b62000e15565b6040516200036e919062002cec565b60405180910390f35b6200038162000ecf565b005b620003a160048036038101906200039b919062002eb5565b62000ee7565b604051620003b0919062002798565b60405180910390f35b620003c3620010bc565b604051620003d2919062002798565b60405180910390f35b620003e5620010e6565b604051620003f49190620026c2565b60405180910390f35b6200041b60048036038101906200041591906200301d565b62001180565b005b6200043b600480360381019062000435919062003118565b6200119a565b005b6200045b600480360381019062000455919062002721565b62001205565b6040516200046a9190620026c2565b60405180910390f35b6200049160048036038101906200048b91906200282d565b6200132b565b604051620004a0919062003214565b60405180910390f35b620004c76004803603810190620004c1919062003231565b6200135e565b604051620004d691906200260b565b60405180910390f35b620004fd6004803603810190620004f791906200282d565b620013f2565b005b620005096200147c565b60405162000518919062002798565b60405180910390f35b60007f80ac58cd000000000000000000000000000000000000000000000000000000007bffffffffffffffffffffffffffffffffffffffffffffffffffffffff1916827bffffffffffffffffffffffffffffffffffffffffffffffffffffffff19161480620005ed57507f5b5e139f000000000000000000000000000000000000000000000000000000007bffffffffffffffffffffffffffffffffffffffffffffffffffffffff1916827bffffffffffffffffffffffffffffffffffffffffffffffffffffffff1916145b80620006005750620005ff82620014a2565b5b9050919050565b6060600080546200061890620032a7565b80601f01602080910402602001604051908101604052809291908181526020018280546200064690620032a7565b8015620006975780601f106200066b5761010080835404028352916020019162000697565b820191906000526020600020905b8154815290600101906020018083116200067957829003601f168201915b5050505050905090565b6000620006ae826200150c565b6004600083815260200190815260200160002060009054906101000a900473ffffffffffffffffffffffffffffffffffffffff169050919050565b6000620006f68262000d8a565b90508073ffffffffffffffffffffffffffffffffffffffff168373ffffffffffffffffffffffffffffffffffffffff160362000769576040517f08c379a0000000000000000000000000000000000000000000000000000000008152600401620007609062003352565b60405180910390fd5b8073ffffffffffffffffffffffffffffffffffffffff166200078a6200155c565b73ffffffffffffffffffffffffffffffffffffffff161480620007be5750620007bd81620007b76200155c565b6200135e565b5b62000800576040517f08c379a0000000000000000000000000000000000000000000000000000000008152600401620007f790620033ea565b60405180910390fd5b6200080c838362001564565b505050565b6200081b6200161f565b620008268162000a44565b62000868576040517f08c379a00000000000000000000000000000000000000000000000000000000081526004016200085f906200345c565b60405180910390fd5b6000600b60008373ffffffffffffffffffffffffffffffffffffffff1673ffffffffffffffffffffffffffffffffffffffff16815260200190815260200160002060009054906101000a900473ffffffffffffffffffffffffffffffffffffffff16905060008190508073ffffffffffffffffffffffffffffffffffffffff16639699114c6040518163ffffffff1660e01b8152600401600060405180830381600087803b1580156200091a57600080fd5b505af11580156200092f573d6000803e3d6000fd5b50505050505050565b6200094d620009466200155c565b82620016a4565b6200098f576040517f08c379a00000000000000000000000000000000000000000000000000000000081526004016200098690620034f4565b60405180910390fd5b6200099c83838362001741565b505050565b600860009054906101000a900473ffffffffffffffffffffffffffffffffffffffff1673ffffffffffffffffffffffffffffffffffffffff163373ffffffffffffffffffffffffffffffffffffffff161462000a34576040517f08c379a000000000000000000000000000000000000000000000000000000000815260040162000a2b906200358c565b60405180910390fd5b62000a408183620006e9565b5050565b600080600960009054906101000a900473ffffffffffffffffffffffffffffffffffffffff1673ffffffffffffffffffffffffffffffffffffffff1663bf9c3cec846040518263ffffffff1660e01b815260040162000aa4919062002798565b602060405180830381865afa15801562000ac2573d6000803e3d6000fd5b505050506040513d601f19601f8201168201806040525081019062000ae89190620035c5565b90506000600960009054906101000a900473ffffffffffffffffffffffffffffffffffffffff1673ffffffffffffffffffffffffffffffffffffffff16638ee58187856040518263ffffffff1660e01b815260040162000b49919062002798565b602060405180830381865afa15801562000b67573d6000803e3d6000fd5b505050506040513d601f19601f8201168201806040525081019062000b8d9190620035c5565b9050600060018262000ba0919062003626565b9050808310159350505050919050565b62000bcd838383604051806020016040528060008152506200119a565b505050565b6060600860009054906101000a900473ffffffffffffffffffffffffffffffffffffffff1673ffffffffffffffffffffffffffffffffffffffff163373ffffffffffffffffffffffffffffffffffffffff161462000c67576040517f08c379a000000000000000000000000000000000000000000000000000000000815260040162000c5e90620036b1565b60405180910390fd5b6000835167ffffffffffffffff81111562000c875762000c8662002907565b5b60405190808252806020026020018201604052801562000cb65781602001602082028036833780820191505090505b50905060005b845181101562000d7e576000600a54905062000cd9878262001a4b565b62000d2a8162000d2488858151811062000cf85762000cf7620036d3565b5b602002602001015188868151811062000d165762000d15620036d3565b5b602002602001015162001a6b565b62001a8a565b8083838151811062000d415762000d40620036d3565b5b602002602001018181525050600a600081548092919062000d629062003702565b919050555050808062000d759062003702565b91505062000cbc565b50809150509392505050565b60008062000d988362001afe565b9050600073ffffffffffffffffffffffffffffffffffffffff168173ffffffffffffffffffffffffffffffffffffffff160362000e0c576040517f08c379a000000000000000000000000000000000000000000000000000000000815260040162000e03906200379f565b60405180910390fd5b80915050919050565b60008073ffffffffffffffffffffffffffffffffffffffff168273ffffffffffffffffffffffffffffffffffffffff160362000e88576040517f08c379a000000000000000000000000000000000000000000000000000000000815260040162000e7f9062003837565b60405180910390fd5b600360008373ffffffffffffffffffffffffffffffffffffffff1673ffffffffffffffffffffffffffffffffffffffff168152602001908152602001600020549050919050565b62000ed96200161f565b62000ee5600062001b3b565b565b6000600860009054906101000a900473ffffffffffffffffffffffffffffffffffffffff1673ffffffffffffffffffffffffffffffffffffffff163373ffffffffffffffffffffffffffffffffffffffff161462000f7c576040517f08c379a000000000000000000000000000000000000000000000000000000000815260040162000f7390620038cf565b60405180910390fd5b60003060405162000f8d906200253d565b62000f99919062002798565b604051809103906000f08015801562000fb6573d6000803e3d6000fd5b50905080600b60008573ffffffffffffffffffffffffffffffffffffffff1673ffffffffffffffffffffffffffffffffffffffff16815260200190815260200160002060006101000a81548173ffffffffffffffffffffffffffffffffffffffff021916908373ffffffffffffffffffffffffffffffffffffffff1602179055508073ffffffffffffffffffffffffffffffffffffffff1663b15a0c5889898989896040518663ffffffff1660e01b81526004016200107a959493929190620039bf565b600060405180830381600087803b1580156200109557600080fd5b505af1158015620010aa573d6000803e3d6000fd5b50505050809150509695505050505050565b6000600760009054906101000a900473ffffffffffffffffffffffffffffffffffffffff16905090565b606060018054620010f790620032a7565b80601f01602080910402602001604051908101604052809291908181526020018280546200112590620032a7565b8015620011765780601f106200114a5761010080835404028352916020019162001176565b820191906000526020600020905b8154815290600101906020018083116200115857829003601f168201915b5050505050905090565b620011966200118e6200155c565b838362001c01565b5050565b620011af620011a86200155c565b83620016a4565b620011f1576040517f08c379a0000000000000000000000000000000000000000000000000000000008152600401620011e890620034f4565b60405180910390fd5b620011ff8484848462001d72565b50505050565b606062001212826200150c565b60006006600084815260200190815260200160002080546200123490620032a7565b80601f01602080910402602001604051908101604052809291908181526020018280546200126290620032a7565b8015620012b35780601f106200128757610100808354040283529160200191620012b3565b820191906000526020600020905b8154815290600101906020018083116200129557829003601f168201915b505050505090506000620012c662001dd5565b90506000815103620012dd57819250505062001326565b60008251111562001316578082604051602001620012fd92919062003a81565b6040516020818303038152906040529250505062001326565b620013218462001dec565b925050505b919050565b600b6020528060005260406000206000915054906101000a900473ffffffffffffffffffffffffffffffffffffffff1681565b6000600560008473ffffffffffffffffffffffffffffffffffffffff1673ffffffffffffffffffffffffffffffffffffffff16815260200190815260200160002060008373ffffffffffffffffffffffffffffffffffffffff1673ffffffffffffffffffffffffffffffffffffffff16815260200190815260200160002060009054906101000a900460ff16905092915050565b620013fc6200161f565b600073ffffffffffffffffffffffffffffffffffffffff168173ffffffffffffffffffffffffffffffffffffffff16036200146e576040517f08c379a0000000000000000000000000000000000000000000000000000000008152600401620014659062003b1f565b60405180910390fd5b620014798162001b3b565b50565b600860009054906101000a900473ffffffffffffffffffffffffffffffffffffffff1681565b60007f01ffc9a7000000000000000000000000000000000000000000000000000000007bffffffffffffffffffffffffffffffffffffffffffffffffffffffff1916827bffffffffffffffffffffffffffffffffffffffffffffffffffffffff1916149050919050565b620015178162001e5e565b62001559576040517f08c379a000000000000000000000000000000000000000000000000000000000815260040162001550906200379f565b60405180910390fd5b50565b600033905090565b816004600083815260200190815260200160002060006101000a81548173ffffffffffffffffffffffffffffffffffffffff021916908373ffffffffffffffffffffffffffffffffffffffff160217905550808273ffffffffffffffffffffffffffffffffffffffff16620015d98362000d8a565b73ffffffffffffffffffffffffffffffffffffffff167f8c5be1e5ebec7d5bd14f71427d1e84f3dd0314c0f7b2291e5b200ac8c7c3b92560405160405180910390a45050565b620016296200155c565b73ffffffffffffffffffffffffffffffffffffffff1662001649620010bc565b73ffffffffffffffffffffffffffffffffffffffff1614620016a2576040517f08c379a0000000000000000000000000000000000000000000000000000000008152600401620016999062003b91565b60405180910390fd5b565b600080620016b28362000d8a565b90508073ffffffffffffffffffffffffffffffffffffffff168473ffffffffffffffffffffffffffffffffffffffff161480620016f75750620016f681856200135e565b5b806200173857508373ffffffffffffffffffffffffffffffffffffffff166200172084620006a1565b73ffffffffffffffffffffffffffffffffffffffff16145b91505092915050565b8273ffffffffffffffffffffffffffffffffffffffff16620017638262000d8a565b73ffffffffffffffffffffffffffffffffffffffff1614620017bc576040517f08c379a0000000000000000000000000000000000000000000000000000000008152600401620017b39062003c29565b60405180910390fd5b600073ffffffffffffffffffffffffffffffffffffffff168273ffffffffffffffffffffffffffffffffffffffff16036200182e576040517f08c379a0000000000000000000000000000000000000000000000000000000008152600401620018259062003cc1565b60405180910390fd5b6200183d838383600162001ea1565b8273ffffffffffffffffffffffffffffffffffffffff166200185f8262000d8a565b73ffffffffffffffffffffffffffffffffffffffff1614620018b8576040517f08c379a0000000000000000000000000000000000000000000000000000000008152600401620018af9062003c29565b60405180910390fd5b6004600082815260200190815260200160002060006101000a81549073ffffffffffffffffffffffffffffffffffffffff02191690556001600360008573ffffffffffffffffffffffffffffffffffffffff1673ffffffffffffffffffffffffffffffffffffffff168152602001908152602001600020600082825403925050819055506001600360008473ffffffffffffffffffffffffffffffffffffffff1673ffffffffffffffffffffffffffffffffffffffff16815260200190815260200160002060008282540192505081905550816002600083815260200190815260200160002060006101000a81548173ffffffffffffffffffffffffffffffffffffffff021916908373ffffffffffffffffffffffffffffffffffffffff160217905550808273ffffffffffffffffffffffffffffffffffffffff168473ffffffffffffffffffffffffffffffffffffffff167fddf252ad1be2c89b69c2b068fc378daa952ba7f163c4a11628f55a4df523b3ef60405160405180910390a462001a46838383600162001ea7565b505050565b62001a6782826040518060200160405280600081525062001ead565b5050565b6060604051602001604051602081830303815290604052905092915050565b62001a958262001e5e565b62001ad7576040517f08c379a000000000000000000000000000000000000000000000000000000000815260040162001ace9062003d59565b60405180910390fd5b8060066000848152602001908152602001600020908162001af9919062003f43565b505050565b60006002600083815260200190815260200160002060009054906101000a900473ffffffffffffffffffffffffffffffffffffffff169050919050565b6000600760009054906101000a900473ffffffffffffffffffffffffffffffffffffffff16905081600760006101000a81548173ffffffffffffffffffffffffffffffffffffffff021916908373ffffffffffffffffffffffffffffffffffffffff1602179055508173ffffffffffffffffffffffffffffffffffffffff168173ffffffffffffffffffffffffffffffffffffffff167f8be0079c531659141344cd1fd0a4f28419497f9722a3daafe3b4186f6b6457e060405160405180910390a35050565b8173ffffffffffffffffffffffffffffffffffffffff168373ffffffffffffffffffffffffffffffffffffffff160362001c72576040517f08c379a000000000000000000000000000000000000000000000000000000000815260040162001c69906200407a565b60405180910390fd5b80600560008573ffffffffffffffffffffffffffffffffffffffff1673ffffffffffffffffffffffffffffffffffffffff16815260200190815260200160002060008473ffffffffffffffffffffffffffffffffffffffff1673ffffffffffffffffffffffffffffffffffffffff16815260200190815260200160002060006101000a81548160ff0219169083151502179055508173ffffffffffffffffffffffffffffffffffffffff168373ffffffffffffffffffffffffffffffffffffffff167f17307eab39ab6107e8899845ad3d59bd9653f200f220920489ca2b5937696c318360405162001d6591906200260b565b60405180910390a3505050565b62001d7f84848462001741565b62001d8d8484848462001f0f565b62001dcf576040517f08c379a000000000000000000000000000000000000000000000000000000000815260040162001dc69062004112565b60405180910390fd5b50505050565b606060405180602001604052806000815250905090565b606062001df9826200150c565b600062001e0562001dd5565b9050600081511162001e27576040518060200160405280600081525062001e56565b8062001e3384620020a7565b60405160200162001e4692919062003a81565b6040516020818303038152906040525b915050919050565b60008073ffffffffffffffffffffffffffffffffffffffff1662001e828362001afe565b73ffffffffffffffffffffffffffffffffffffffff1614159050919050565b50505050565b50505050565b62001eb9838362002180565b62001ec8600084848462001f0f565b62001f0a576040517f08c379a000000000000000000000000000000000000000000000000000000000815260040162001f019062004112565b60405180910390fd5b505050565b600062001f328473ffffffffffffffffffffffffffffffffffffffff16620023ae565b156200209a578373ffffffffffffffffffffffffffffffffffffffff1663150b7a0262001f5e6200155c565b8786866040518563ffffffff1660e01b815260040162001f82949392919062004191565b6020604051808303816000875af192505050801562001fc157506040513d601f19601f8201168201806040525081019062001fbe9190620041fc565b60015b62002049573d806000811462001ff4576040519150601f19603f3d011682016040523d82523d6000602084013e62001ff9565b606091505b50600081510362002041576040517f08c379a0000000000000000000000000000000000000000000000000000000008152600401620020389062004112565b60405180910390fd5b805181602001fd5b63150b7a0260e01b7bffffffffffffffffffffffffffffffffffffffffffffffffffffffff1916817bffffffffffffffffffffffffffffffffffffffffffffffffffffffff1916149150506200209f565b600190505b949350505050565b606060006001620020b884620023d1565b01905060008167ffffffffffffffff811115620020da57620020d962002907565b5b6040519080825280601f01601f1916602001820160405280156200210d5781602001600182028036833780820191505090505b509050600082602001820190505b60011562002175578080600190039150507f3031323334353637383961626364656600000000000000000000000000000000600a86061a8153600a85816200216857620021676200422e565b5b049450600085036200211b575b819350505050919050565b600073ffffffffffffffffffffffffffffffffffffffff168273ffffffffffffffffffffffffffffffffffffffff1603620021f2576040517f08c379a0000000000000000000000000000000000000000000000000000000008152600401620021e990620042ad565b60405180910390fd5b620021fd8162001e5e565b1562002240576040517f08c379a000000000000000000000000000000000000000000000000000000000815260040162002237906200431f565b60405180910390fd5b6200225060008383600162001ea1565b6200225b8162001e5e565b156200229e576040517f08c379a000000000000000000000000000000000000000000000000000000000815260040162002295906200431f565b60405180910390fd5b6001600360008473ffffffffffffffffffffffffffffffffffffffff1673ffffffffffffffffffffffffffffffffffffffff16815260200190815260200160002060008282540192505081905550816002600083815260200190815260200160002060006101000a81548173ffffffffffffffffffffffffffffffffffffffff021916908373ffffffffffffffffffffffffffffffffffffffff160217905550808273ffffffffffffffffffffffffffffffffffffffff16600073ffffffffffffffffffffffffffffffffffffffff167fddf252ad1be2c89b69c2b068fc378daa952ba7f163c4a11628f55a4df523b3ef60405160405180910390a4620023aa60008383600162001ea7565b5050565b6000808273ffffffffffffffffffffffffffffffffffffffff163b119050919050565b600080600090507a184f03e93ff9f4daa797ed6e38ed64bf6a1f010000000000000000831062002433577a184f03e93ff9f4daa797ed6e38ed64bf6a1f01000000000000000083816200242957620024286200422e565b5b0492506040810190505b6d04ee2d6d415b85acef8100000000831062002474576d04ee2d6d415b85acef810000000083816200246a57620024696200422e565b5b0492506020810190505b662386f26fc100008310620024a757662386f26fc1000083816200249d576200249c6200422e565b5b0492506010810190505b6305f5e1008310620024d4576305f5e1008381620024ca57620024c96200422e565b5b0492506008810190505b6127108310620024fd576127108381620024f357620024f26200422e565b5b0492506004810190505b606483106200252457606483816200251a57620025196200422e565b5b0492506002810190505b600a831062002534576001810190505b80915050919050565b611272806200434283390190565b6000604051905090565b600080fd5b600080fd5b60007fffffffff0000000000000000000000000000000000000000000000000000000082169050919050565b62002596816200255f565b8114620025a257600080fd5b50565b600081359050620025b6816200258b565b92915050565b600060208284031215620025d557620025d462002555565b5b6000620025e584828501620025a5565b91505092915050565b60008115159050919050565b6200260581620025ee565b82525050565b6000602082019050620026226000830184620025fa565b92915050565b600081519050919050565b600082825260208201905092915050565b60005b838110156200266457808201518184015260208101905062002647565b60008484015250505050565b6000601f19601f8301169050919050565b60006200268e8262002628565b6200269a818562002633565b9350620026ac81856020860162002644565b620026b78162002670565b840191505092915050565b60006020820190508181036000830152620026de818462002681565b905092915050565b6000819050919050565b620026fb81620026e6565b81146200270757600080fd5b50565b6000813590506200271b81620026f0565b92915050565b6000602082840312156200273a576200273962002555565b5b60006200274a848285016200270a565b91505092915050565b600073ffffffffffffffffffffffffffffffffffffffff82169050919050565b6000620027808262002753565b9050919050565b620027928162002773565b82525050565b6000602082019050620027af600083018462002787565b92915050565b620027c08162002773565b8114620027cc57600080fd5b50565b600081359050620027e081620027b5565b92915050565b600080604083850312156200280057620027ff62002555565b5b60006200281085828601620027cf565b925050602062002823858286016200270a565b9150509250929050565b60006020828403121562002846576200284562002555565b5b60006200285684828501620027cf565b91505092915050565b6000806000606084860312156200287b576200287a62002555565b5b60006200288b86828701620027cf565b93505060206200289e86828701620027cf565b9250506040620028b1868287016200270a565b9150509250925092565b60008060408385031215620028d557620028d462002555565b5b6000620028e5858286016200270a565b9250506020620028f885828601620027cf565b9150509250929050565b600080fd5b7f4e487b7100000000000000000000000000000000000000000000000000000000600052604160045260246000fd5b620029418262002670565b810181811067ffffffffffffffff8211171562002963576200296262002907565b5b80604052505050565b6000620029786200254b565b905062002986828262002936565b919050565b600067ffffffffffffffff821115620029a957620029a862002907565b5b602082029050602081019050919050565b600080fd5b600080fd5b600067ffffffffffffffff821115620029e257620029e162002907565b5b620029ed8262002670565b9050602081019050919050565b82818337600083830152505050565b600062002a2062002a1a84620029c4565b6200296c565b90508281526020810184848401111562002a3f5762002a3e620029bf565b5b62002a4c848285620029fa565b509392505050565b600082601f83011262002a6c5762002a6b62002902565b5b813562002a7e84826020860162002a09565b91505092915050565b600062002a9e62002a98846200298b565b6200296c565b9050808382526020820190506020840283018581111562002ac45762002ac3620029ba565b5b835b8181101562002b1257803567ffffffffffffffff81111562002aed5762002aec62002902565b5b80860162002afc898262002a54565b8552602085019450505060208101905062002ac6565b5050509392505050565b600082601f83011262002b345762002b3362002902565b5b813562002b4684826020860162002a87565b91505092915050565b60008060006060848603121562002b6b5762002b6a62002555565b5b600062002b7b86828701620027cf565b935050602084013567ffffffffffffffff81111562002b9f5762002b9e6200255a565b5b62002bad8682870162002b1c565b925050604084013567ffffffffffffffff81111562002bd15762002bd06200255a565b5b62002bdf8682870162002b1c565b9150509250925092565b600081519050919050565b600082825260208201905092915050565b6000819050602082019050919050565b62002c2081620026e6565b82525050565b600062002c34838362002c15565b60208301905092915050565b6000602082019050919050565b600062002c5a8262002be9565b62002c66818562002bf4565b935062002c738362002c05565b8060005b8381101562002caa57815162002c8e888262002c26565b975062002c9b8362002c40565b92505060018101905062002c77565b5085935050505092915050565b6000602082019050818103600083015262002cd3818462002c4d565b905092915050565b62002ce681620026e6565b82525050565b600060208201905062002d03600083018462002cdb565b92915050565b600067ffffffffffffffff82111562002d275762002d2662002907565b5b602082029050602081019050919050565b600062002d4f62002d498462002d09565b6200296c565b9050808382526020820190506020840283018581111562002d755762002d74620029ba565b5b835b8181101562002da2578062002d8d88826200270a565b84526020840193505060208101905062002d77565b5050509392505050565b600082601f83011262002dc45762002dc362002902565b5b813562002dd684826020860162002d38565b91505092915050565b600067ffffffffffffffff82111562002dfd5762002dfc62002907565b5b602082029050602081019050919050565b600062002e2562002e1f8462002ddf565b6200296c565b9050808382526020820190506020840283018581111562002e4b5762002e4a620029ba565b5b835b8181101562002e78578062002e638882620027cf565b84526020840193505060208101905062002e4d565b5050509392505050565b600082601f83011262002e9a5762002e9962002902565b5b813562002eac84826020860162002e0e565b91505092915050565b60008060008060008060c0878903121562002ed55762002ed462002555565b5b600087013567ffffffffffffffff81111562002ef65762002ef56200255a565b5b62002f0489828a0162002dac565b965050602087013567ffffffffffffffff81111562002f285762002f276200255a565b5b62002f3689828a0162002e82565b955050604087013567ffffffffffffffff81111562002f5a5762002f596200255a565b5b62002f6889828a0162002e82565b945050606087013567ffffffffffffffff81111562002f8c5762002f8b6200255a565b5b62002f9a89828a0162002dac565b935050608087013567ffffffffffffffff81111562002fbe5762002fbd6200255a565b5b62002fcc89828a0162002e82565b92505060a062002fdf89828a01620027cf565b9150509295509295509295565b62002ff781620025ee565b81146200300357600080fd5b50565b600081359050620030178162002fec565b92915050565b6000806040838503121562003037576200303662002555565b5b60006200304785828601620027cf565b92505060206200305a8582860162003006565b9150509250929050565b600067ffffffffffffffff82111562003082576200308162002907565b5b6200308d8262002670565b9050602081019050919050565b6000620030b1620030ab8462003064565b6200296c565b905082815260208101848484011115620030d057620030cf620029bf565b5b620030dd848285620029fa565b509392505050565b600082601f830112620030fd57620030fc62002902565b5b81356200310f8482602086016200309a565b91505092915050565b6000806000806080858703121562003135576200313462002555565b5b60006200314587828801620027cf565b94505060206200315887828801620027cf565b93505060406200316b878288016200270a565b925050606085013567ffffffffffffffff8111156200318f576200318e6200255a565b5b6200319d87828801620030e5565b91505092959194509250565b6000819050919050565b6000620031d4620031ce620031c88462002753565b620031a9565b62002753565b9050919050565b6000620031e882620031b3565b9050919050565b6000620031fc82620031db565b9050919050565b6200320e81620031ef565b82525050565b60006020820190506200322b600083018462003203565b92915050565b600080604083850312156200324b576200324a62002555565b5b60006200325b85828601620027cf565b92505060206200326e85828601620027cf565b9150509250929050565b7f4e487b7100000000000000000000000000000000000000000000000000000000600052602260045260246000fd5b60006002820490506001821680620032c057607f821691505b602082108103620032d657620032d562003278565b5b50919050565b7f4552433732313a20617070726f76616c20746f2063757272656e74206f776e6560008201527f7200000000000000000000000000000000000000000000000000000000000000602082015250565b60006200333a60218362002633565b91506200334782620032dc565b604082019050919050565b600060208201905081810360008301526200336d816200332b565b9050919050565b7f4552433732313a20617070726f76652063616c6c6572206973206e6f7420746f60008201527f6b656e206f776e6572206f7220617070726f76656420666f7220616c6c000000602082015250565b6000620033d2603d8362002633565b9150620033df8262003374565b604082019050919050565b600060208201905081810360008301526200340581620033c3565b9050919050565b7f4e6f7420656e6f75676820736967616e74757265730000000000000000000000600082015250565b60006200344460158362002633565b915062003451826200340c565b602082019050919050565b60006020820190508181036000830152620034778162003435565b9050919050565b7f4552433732313a2063616c6c6572206973206e6f7420746f6b656e206f776e6560008201527f72206f7220617070726f76656400000000000000000000000000000000000000602082015250565b6000620034dc602d8362002633565b9150620034e9826200347e565b604082019050919050565b600060208201905081810360008301526200350f81620034cd565b9050919050565b7f4f6e6c792057696c6c50726f746f636f6c2063616e207072652d617070726f7660008201527f65204e4654207472616e73666572730000000000000000000000000000000000602082015250565b600062003574602f8362002633565b9150620035818262003516565b604082019050919050565b60006020820190508181036000830152620035a78162003565565b9050919050565b600081519050620035bf81620026f0565b92915050565b600060208284031215620035de57620035dd62002555565b5b6000620035ee84828501620035ae565b91505092915050565b7f4e487b7100000000000000000000000000000000000000000000000000000000600052601160045260246000fd5b60006200363382620026e6565b91506200364083620026e6565b92508282039050818111156200365b576200365a620035f7565b5b92915050565b7f4f6e6c792057696c6c50726f746f636f6c2063616e206d696e74204e46547300600082015250565b600062003699601f8362002633565b9150620036a68262003661565b602082019050919050565b60006020820190508181036000830152620036cc816200368a565b9050919050565b7f4e487b7100000000000000000000000000000000000000000000000000000000600052603260045260246000fd5b60006200370f82620026e6565b91507fffffffffffffffffffffffffffffffffffffffffffffffffffffffffffffffff8203620037445762003743620035f7565b5b600182019050919050565b7f4552433732313a20696e76616c696420746f6b656e2049440000000000000000600082015250565b60006200378760188362002633565b915062003794826200374f565b602082019050919050565b60006020820190508181036000830152620037ba8162003778565b9050919050565b7f4552433732313a2061646472657373207a65726f206973206e6f74206120766160008201527f6c6964206f776e65720000000000000000000000000000000000000000000000602082015250565b60006200381f60298362002633565b91506200382c82620037c1565b604082019050919050565b60006020820190508181036000830152620038528162003810565b9050919050565b7f4f6e6c792057696c6c50726f746f636f6c2063616e206372656174652061205460008201527f72616e73666572436f6e74726163740000000000000000000000000000000000602082015250565b6000620038b7602f8362002633565b9150620038c48262003859565b604082019050919050565b60006020820190508181036000830152620038ea81620038a8565b9050919050565b600081519050919050565b600082825260208201905092915050565b6000819050602082019050919050565b620039288162002773565b82525050565b60006200393c83836200391d565b60208301905092915050565b6000602082019050919050565b60006200396282620038f1565b6200396e8185620038fc565b93506200397b836200390d565b8060005b83811015620039b25781516200399688826200392e565b9750620039a38362003948565b9250506001810190506200397f565b5085935050505092915050565b600060a0820190508181036000830152620039db818862002c4d565b90508181036020830152620039f1818762003955565b9050818103604083015262003a07818662003955565b9050818103606083015262003a1d818562002c4d565b9050818103608083015262003a33818462003955565b90509695505050505050565b600081905092915050565b600062003a578262002628565b62003a63818562003a3f565b935062003a7581856020860162002644565b80840191505092915050565b600062003a8f828562003a4a565b915062003a9d828462003a4a565b91508190509392505050565b7f4f776e61626c653a206e6577206f776e657220697320746865207a65726f206160008201527f6464726573730000000000000000000000000000000000000000000000000000602082015250565b600062003b0760268362002633565b915062003b148262003aa9565b604082019050919050565b6000602082019050818103600083015262003b3a8162003af8565b9050919050565b7f4f776e61626c653a2063616c6c6572206973206e6f7420746865206f776e6572600082015250565b600062003b7960208362002633565b915062003b868262003b41565b602082019050919050565b6000602082019050818103600083015262003bac8162003b6a565b9050919050565b7f4552433732313a207472616e736665722066726f6d20696e636f72726563742060008201527f6f776e6572000000000000000000000000000000000000000000000000000000602082015250565b600062003c1160258362002633565b915062003c1e8262003bb3565b604082019050919050565b6000602082019050818103600083015262003c448162003c02565b9050919050565b7f4552433732313a207472616e7366657220746f20746865207a65726f2061646460008201527f7265737300000000000000000000000000000000000000000000000000000000602082015250565b600062003ca960248362002633565b915062003cb68262003c4b565b604082019050919050565b6000602082019050818103600083015262003cdc8162003c9a565b9050919050565b7f45524337323155524953746f726167653a2055524920736574206f66206e6f6e60008201527f6578697374656e7420746f6b656e000000000000000000000000000000000000602082015250565b600062003d41602e8362002633565b915062003d4e8262003ce3565b604082019050919050565b6000602082019050818103600083015262003d748162003d32565b9050919050565b60008190508160005260206000209050919050565b60006020601f8301049050919050565b600082821b905092915050565b60006008830262003ddf7fffffffffffffffffffffffffffffffffffffffffffffffffffffffffffffffff8262003da0565b62003deb868362003da0565b95508019841693508086168417925050509392505050565b600062003e2462003e1e62003e1884620026e6565b620031a9565b620026e6565b9050919050565b6000819050919050565b62003e408362003e03565b62003e5862003e4f8262003e2b565b84845462003dad565b825550505050565b600090565b62003e6f62003e60565b62003e7c81848462003e35565b505050565b5b8181101562003ea45762003e9860008262003e65565b60018101905062003e82565b5050565b601f82111562003ef35762003ebd8162003d7b565b62003ec88462003d90565b8101602085101562003ed8578190505b62003ef062003ee78562003d90565b83018262003e81565b50505b505050565b600082821c905092915050565b600062003f186000198460080262003ef8565b1980831691505092915050565b600062003f33838362003f05565b9150826002028217905092915050565b62003f4e8262002628565b67ffffffffffffffff81111562003f6a5762003f6962002907565b5b62003f768254620032a7565b62003f8382828562003ea8565b600060209050601f83116001811462003fbb576000841562003fa6578287015190505b62003fb2858262003f25565b86555062004022565b601f19841662003fcb8662003d7b565b60005b8281101562003ff55784890151825560018201915060208501945060208101905062003fce565b8683101562004015578489015162004011601f89168262003f05565b8355505b6001600288020188555050505b505050505050565b7f4552433732313a20617070726f766520746f2063616c6c657200000000000000600082015250565b60006200406260198362002633565b91506200406f826200402a565b602082019050919050565b60006020820190508181036000830152620040958162004053565b9050919050565b7f4552433732313a207472616e7366657220746f206e6f6e20455243373231526560008201527f63656976657220696d706c656d656e7465720000000000000000000000000000602082015250565b6000620040fa60328362002633565b915062004107826200409c565b604082019050919050565b600060208201905081810360008301526200412d81620040eb565b9050919050565b600081519050919050565b600082825260208201905092915050565b60006200415d8262004134565b6200416981856200413f565b93506200417b81856020860162002644565b620041868162002670565b840191505092915050565b6000608082019050620041a8600083018762002787565b620041b7602083018662002787565b620041c6604083018562002cdb565b8181036060830152620041da818462004150565b905095945050505050565b600081519050620041f6816200258b565b92915050565b60006020828403121562004215576200421462002555565b5b60006200422584828501620041e5565b91505092915050565b7f4e487b7100000000000000000000000000000000000000000000000000000000600052601260045260246000fd5b7f4552433732313a206d696e7420746f20746865207a65726f2061646472657373600082015250565b60006200429560208362002633565b9150620042a2826200425d565b602082019050919050565b60006020820190508181036000830152620042c88162004286565b9050919050565b7f4552433732313a20746f6b656e20616c7265616479206d696e74656400000000600082015250565b600062004307601c8362002633565b91506200431482620042cf565b602082019050919050565b600060208201905081810360008301526200433a81620042f8565b905091905056fe60806040523480156200001157600080fd5b5060405162001272380380620012728339818101604052810190620000379190620001d5565b620000576200004b6200009f60201b60201c565b620000a760201b60201c565b80600660006101000a81548173ffffffffffffffffffffffffffffffffffffffff021916908373ffffffffffffffffffffffffffffffffffffffff1602179055505062000207565b600033905090565b60008060009054906101000a900473ffffffffffffffffffffffffffffffffffffffff169050816000806101000a81548173ffffffffffffffffffffffffffffffffffffffff021916908373ffffffffffffffffffffffffffffffffffffffff1602179055508173ffffffffffffffffffffffffffffffffffffffff168173ffffffffffffffffffffffffffffffffffffffff167f8be0079c531659141344cd1fd0a4f28419497f9722a3daafe3b4186f6b6457e060405160405180910390a35050565b600080fd5b600073ffffffffffffffffffffffffffffffffffffffff82169050919050565b60006200019d8262000170565b9050919050565b620001af8162000190565b8114620001bb57600080fd5b50565b600081519050620001cf81620001a4565b92915050565b600060208284031215620001ee57620001ed6200016b565b5b6000620001fe84828501620001be565b91505092915050565b61105b80620002176000396000f3fe608060405234801561001057600080fd5b50600436106100575760003560e01c8063715018a61461005c5780638da5cb5b146100665780639699114c14610084578063b15a0c581461008e578063f2fde38b146100aa575b600080fd5b6100646100c6565b005b61006e6100da565b60405161007b91906108a1565b60405180910390f35b61008c610103565b005b6100a860048036038101906100a39190610b4e565b61051d565b005b6100c460048036038101906100bf9190610c55565b61059f565b005b6100ce610622565b6100d860006106a0565b565b60008060009054906101000a900473ffffffffffffffffffffffffffffffffffffffff16905090565b61010b610622565b600660149054906101000a900460ff161561015b576040517f08c379a000000000000000000000000000000000000000000000000000000000815260040161015290610cdf565b60405180910390fd5b60006101656100da565b905060008173ffffffffffffffffffffffffffffffffffffffff16633b0683cc6040518163ffffffff1660e01b8152600401602060405180830381865afa1580156101b4573d6000803e3d6000fd5b505050506040513d601f19601f820116820180604052508101906101d89190610d3d565b90508073ffffffffffffffffffffffffffffffffffffffff1663343c5e366101fe6100da565b6040518263ffffffff1660e01b815260040161021a91906108a1565b602060405180830381865afa158015610237573d6000803e3d6000fd5b505050506040513d601f19601f8201168201806040525081019061025b9190610da2565b61029a576040517f08c379a000000000000000000000000000000000000000000000000000000000815260040161029190610e1b565b60405180910390fd5b60005b6001805490508110156103e5576000600182815481106102c0576102bf610e3b565b5b9060005260206000200160009054906101000a900473ffffffffffffffffffffffffffffffffffffffff1690508073ffffffffffffffffffffffffffffffffffffffff166323b872dd6103116100da565b6003858154811061032557610324610e3b565b5b9060005260206000200160009054906101000a900473ffffffffffffffffffffffffffffffffffffffff166002868154811061036457610363610e3b565b5b90600052602060002001546040518463ffffffff1660e01b815260040161038d93929190610e79565b6020604051808303816000875af11580156103ac573d6000803e3d6000fd5b505050506040513d601f19601f820116820180604052508101906103d09190610da2565b505080806103dd90610edf565b91505061029d565b5060005b6005805490508110156104fd57600660009054906101000a900473ffffffffffffffffffffffffffffffffffffffff1673ffffffffffffffffffffffffffffffffffffffff166323b872dd61043c6100da565b600484815481106104505761044f610e3b565b5b9060005260206000200160009054906101000a900473ffffffffffffffffffffffffffffffffffffffff166005858154811061048f5761048e610e3b565b5b90600052602060002001546040518463ffffffff1660e01b81526004016104b893929190610e79565b600060405180830381600087803b1580156104d257600080fd5b505af11580156104e6573d6000803e3d6000fd5b5050505080806104f590610edf565b9150506103e9565b506001600660146101000a81548160ff0219169083151502179055505050565b610525610622565b846002908051906020019061053b92919061076c565b5083600190805190602001906105529291906107b9565b5082600390805190602001906105699291906107b9565b50816005908051906020019061058092919061076c565b5080600490805190602001906105979291906107b9565b505050505050565b6105a7610622565b600073ffffffffffffffffffffffffffffffffffffffff168173ffffffffffffffffffffffffffffffffffffffff1603610616576040517f08c379a000000000000000000000000000000000000000000000000000000000815260040161060d90610f99565b60405180910390fd5b61061f816106a0565b50565b61062a610764565b73ffffffffffffffffffffffffffffffffffffffff166106486100da565b73ffffffffffffffffffffffffffffffffffffffff161461069e576040517f08c379a000000000000000000000000000000000000000000000000000000000815260040161069590611005565b60405180910390fd5b565b60008060009054906101000a900473ffffffffffffffffffffffffffffffffffffffff169050816000806101000a81548173ffffffffffffffffffffffffffffffffffffffff021916908373ffffffffffffffffffffffffffffffffffffffff1602179055508173ffffffffffffffffffffffffffffffffffffffff168173ffffffffffffffffffffffffffffffffffffffff167f8be0079c531659141344cd1fd0a4f28419497f9722a3daafe3b4186f6b6457e060405160405180910390a35050565b600033905090565b8280548282559060005260206000209081019282156107a8579160200282015b828111156107a757825182559160200191906001019061078c565b5b5090506107b59190610843565b5090565b828054828255906000526020600020908101928215610832579160200282015b828111156108315782518260006101000a81548173ffffffffffffffffffffffffffffffffffffffff021916908373ffffffffffffffffffffffffffffffffffffffff160217905550916020019190600101906107d9565b5b50905061083f9190610843565b5090565b5b8082111561085c576000816000905550600101610844565b5090565b600073ffffffffffffffffffffffffffffffffffffffff82169050919050565b600061088b82610860565b9050919050565b61089b81610880565b82525050565b60006020820190506108b66000830184610892565b92915050565b6000604051905090565b600080fd5b600080fd5b600080fd5b6000601f19601f8301169050919050565b7f4e487b7100000000000000000000000000000000000000000000000000000000600052604160045260246000fd5b61091e826108d5565b810181811067ffffffffffffffff8211171561093d5761093c6108e6565b5b80604052505050565b60006109506108bc565b905061095c8282610915565b919050565b600067ffffffffffffffff82111561097c5761097b6108e6565b5b602082029050602081019050919050565b600080fd5b6000819050919050565b6109a581610992565b81146109b057600080fd5b50565b6000813590506109c28161099c565b92915050565b60006109db6109d684610961565b610946565b905080838252602082019050602084028301858111156109fe576109fd61098d565b5b835b81811015610a275780610a1388826109b3565b845260208401935050602081019050610a00565b5050509392505050565b600082601f830112610a4657610a456108d0565b5b8135610a568482602086016109c8565b91505092915050565b600067ffffffffffffffff821115610a7a57610a796108e6565b5b602082029050602081019050919050565b610a9481610880565b8114610a9f57600080fd5b50565b600081359050610ab181610a8b565b92915050565b6000610aca610ac584610a5f565b610946565b90508083825260208201905060208402830185811115610aed57610aec61098d565b5b835b81811015610b165780610b028882610aa2565b845260208401935050602081019050610aef565b5050509392505050565b600082601f830112610b3557610b346108d0565b5b8135610b45848260208601610ab7565b91505092915050565b600080600080600060a08688031215610b6a57610b696108c6565b5b600086013567ffffffffffffffff811115610b8857610b876108cb565b5b610b9488828901610a31565b955050602086013567ffffffffffffffff811115610bb557610bb46108cb565b5b610bc188828901610b20565b945050604086013567ffffffffffffffff811115610be257610be16108cb565b5b610bee88828901610b20565b935050606086013567ffffffffffffffff811115610c0f57610c0e6108cb565b5b610c1b88828901610a31565b925050608086013567ffffffffffffffff811115610c3c57610c3b6108cb565b5b610c4888828901610b20565b9150509295509295909350565b600060208284031215610c6b57610c6a6108c6565b5b6000610c7984828501610aa2565b91505092915050565b600082825260208201905092915050565b7f5472616e736665727320616c7265616479206578656375746564000000000000600082015250565b6000610cc9601a83610c82565b9150610cd482610c93565b602082019050919050565b60006020820190508181036000830152610cf881610cbc565b9050919050565b6000610d0a82610880565b9050919050565b610d1a81610cff565b8114610d2557600080fd5b50565b600081519050610d3781610d11565b92915050565b600060208284031215610d5357610d526108c6565b5b6000610d6184828501610d28565b91505092915050565b60008115159050919050565b610d7f81610d6a565b8114610d8a57600080fd5b50565b600081519050610d9c81610d76565b92915050565b600060208284031215610db857610db76108c6565b5b6000610dc684828501610d8d565b91505092915050565b7f4e6f7420656e6f756768206578656375746f72207369676e6174757265730000600082015250565b6000610e05601e83610c82565b9150610e1082610dcf565b602082019050919050565b60006020820190508181036000830152610e3481610df8565b9050919050565b7f4e487b7100000000000000000000000000000000000000000000000000000000600052603260045260246000fd5b610e7381610992565b82525050565b6000606082019050610e8e6000830186610892565b610e9b6020830185610892565b610ea86040830184610e6a565b949350505050565b7f4e487b7100000000000000000000000000000000000000000000000000000000600052601160045260246000fd5b6000610eea82610992565b91507fffffffffffffffffffffffffffffffffffffffffffffffffffffffffffffffff8203610f1c57610f1b610eb0565b5b600182019050919050565b7f4f776e61626c653a206e6577206f776e657220697320746865207a65726f206160008201527f6464726573730000000000000000000000000000000000000000000000000000602082015250565b6000610f83602683610c82565b9150610f8e82610f27565b604082019050919050565b60006020820190508181036000830152610fb281610f76565b9050919050565b7f4f776e61626c653a2063616c6c6572206973206e6f7420746865206f776e6572600082015250565b6000610fef602083610c82565b9150610ffa82610fb9565b602082019050919050565b6000602082019050818103600083015261101e81610fe2565b905091905056fea2646970667358221220698941e73c35de2e1d0a2487302cea5c77cd9367d440d4725ede80f950022c7764736f6c63430008120033a2646970667358221220449d0a84abc8b0b1cd77d49197cf0938d2166eecb9f5756d00c4ae469882e59264736f6c63430008120033","opcodes":"PUSH1 0x80 PUSH1 0x40 MSTORE CALLVALUE DUP1 ISZERO PUSH3 0x11 JUMPI PUSH1 0x0 DUP1 REVERT JUMPDEST POP PUSH1 0x40 MLOAD DUP1 PUSH1 0x40 ADD PUSH1 0x40 MSTORE DUP1 PUSH1 0x13 DUP2 MSTORE PUSH1 0x20 ADD PUSH32 0x50726F70657274795472616E736665724E465400000000000000000000000000 DUP2 MSTORE POP PUSH1 0x40 MLOAD DUP1 PUSH1 0x40 ADD PUSH1 0x40 MSTORE DUP1 PUSH1 0x3 DUP2 MSTORE PUSH1 0x20 ADD PUSH32 0x5054520000000000000000000000000000000000000000000000000000000000 DUP2 MSTORE POP DUP2 PUSH1 0x0 SWAP1 DUP2 PUSH3 0x8F SWAP2 SWAP1 PUSH3 0x4B6 JUMP JUMPDEST POP DUP1 PUSH1 0x1 SWAP1 DUP2 PUSH3 0xA1 SWAP2 SWAP1 PUSH3 0x4B6 JUMP JUMPDEST POP POP POP PUSH3 0xC4 PUSH3 0xB8 PUSH3 0x16E PUSH1 0x20 SHL PUSH1 0x20 SHR JUMP JUMPDEST PUSH3 0x176 PUSH1 0x20 SHL PUSH1 0x20 SHR JUMP JUMPDEST CALLER PUSH1 0x8 PUSH1 0x0 PUSH2 0x100 EXP DUP2 SLOAD DUP2 PUSH20 0xFFFFFFFFFFFFFFFFFFFFFFFFFFFFFFFFFFFFFFFF MUL NOT AND SWAP1 DUP4 PUSH20 0xFFFFFFFFFFFFFFFFFFFFFFFFFFFFFFFFFFFFFFFF AND MUL OR SWAP1 SSTORE POP PUSH1 0x8 PUSH1 0x0 SWAP1 SLOAD SWAP1 PUSH2 0x100 EXP SWAP1 DIV PUSH20 0xFFFFFFFFFFFFFFFFFFFFFFFFFFFFFFFFFFFFFFFF AND PUSH1 0x9 PUSH1 0x0 PUSH2 0x100 EXP DUP2 SLOAD DUP2 PUSH20 0xFFFFFFFFFFFFFFFFFFFFFFFFFFFFFFFFFFFFFFFF MUL NOT AND SWAP1 DUP4 PUSH20 0xFFFFFFFFFFFFFFFFFFFFFFFFFFFFFFFFFFFFFFFF AND MUL OR SWAP1 SSTORE POP PUSH3 0x59D JUMP JUMPDEST PUSH1 0x0 CALLER SWAP1 POP SWAP1 JUMP JUMPDEST PUSH1 0x0 PUSH1 0x7 PUSH1 0x0 SWAP1 SLOAD SWAP1 PUSH2 0x100 EXP SWAP1 DIV PUSH20 0xFFFFFFFFFFFFFFFFFFFFFFFFFFFFFFFFFFFFFFFF AND SWAP1 POP DUP2 PUSH1 0x7 PUSH1 0x0 PUSH2 0x100 EXP DUP2 SLOAD DUP2 PUSH20 0xFFFFFFFFFFFFFFFFFFFFFFFFFFFFFFFFFFFFFFFF MUL NOT AND SWAP1 DUP4 PUSH20 0xFFFFFFFFFFFFFFFFFFFFFFFFFFFFFFFFFFFFFFFF AND MUL OR SWAP1 SSTORE POP DUP2 PUSH20 0xFFFFFFFFFFFFFFFFFFFFFFFFFFFFFFFFFFFFFFFF AND DUP2 PUSH20 0xFFFFFFFFFFFFFFFFFFFFFFFFFFFFFFFFFFFFFFFF AND PUSH32 0x8BE0079C531659141344CD1FD0A4F28419497F9722A3DAAFE3B4186F6B6457E0 PUSH1 0x40 MLOAD PUSH1 0x40 MLOAD DUP1 SWAP2 SUB SWAP1 LOG3 POP POP JUMP JUMPDEST PUSH1 0x0 DUP2 MLOAD SWAP1 POP SWAP2 SWAP1 POP JUMP JUMPDEST PUSH32 0x4E487B7100000000000000000000000000000000000000000000000000000000 PUSH1 0x0 MSTORE PUSH1 0x41 PUSH1 0x4 MSTORE PUSH1 0x24 PUSH1 0x0 REVERT JUMPDEST PUSH32 0x4E487B7100000000000000000000000000000000000000000000000000000000 PUSH1 0x0 MSTORE PUSH1 0x22 PUSH1 0x4 MSTORE PUSH1 0x24 PUSH1 0x0 REVERT JUMPDEST PUSH1 0x0 PUSH1 0x2 DUP3 DIV SWAP1 POP PUSH1 0x1 DUP3 AND DUP1 PUSH3 0x2BE JUMPI PUSH1 0x7F DUP3 AND SWAP2 POP JUMPDEST PUSH1 0x20 DUP3 LT DUP2 SUB PUSH3 0x2D4 JUMPI PUSH3 0x2D3 PUSH3 0x276 JUMP JUMPDEST JUMPDEST POP SWAP2 SWAP1 POP JUMP JUMPDEST PUSH1 0x0 DUP2 SWAP1 POP DUP2 PUSH1 0x0 MSTORE PUSH1 0x20 PUSH1 0x0 KECCAK256 SWAP1 POP SWAP2 SWAP1 POP JUMP JUMPDEST PUSH1 0x0 PUSH1 0x20 PUSH1 0x1F DUP4 ADD DIV SWAP1 POP SWAP2 SWAP1 POP JUMP JUMPDEST PUSH1 0x0 DUP3 DUP3 SHL SWAP1 POP SWAP3 SWAP2 POP POP JUMP JUMPDEST PUSH1 0x0 PUSH1 0x8 DUP4 MUL PUSH3 0x33E PUSH32 0xFFFFFFFFFFFFFFFFFFFFFFFFFFFFFFFFFFFFFFFFFFFFFFFFFFFFFFFFFFFFFFFF DUP3 PUSH3 0x2FF JUMP JUMPDEST PUSH3 0x34A DUP7 DUP4 PUSH3 0x2FF JUMP JUMPDEST SWAP6 POP DUP1 NOT DUP5 AND SWAP4 POP DUP1 DUP7 AND DUP5 OR SWAP3 POP POP POP SWAP4 SWAP3 POP POP POP JUMP JUMPDEST PUSH1 0x0 DUP2 SWAP1 POP SWAP2 SWAP1 POP JUMP JUMPDEST PUSH1 0x0 DUP2 SWAP1 POP SWAP2 SWAP1 POP JUMP JUMPDEST PUSH1 0x0 PUSH3 0x397 PUSH3 0x391 PUSH3 0x38B DUP5 PUSH3 0x362 JUMP JUMPDEST PUSH3 0x36C JUMP JUMPDEST PUSH3 0x362 JUMP JUMPDEST SWAP1 POP SWAP2 SWAP1 POP JUMP JUMPDEST PUSH1 0x0 DUP2 SWAP1 POP SWAP2 SWAP1 POP JUMP JUMPDEST PUSH3 0x3B3 DUP4 PUSH3 0x376 JUMP JUMPDEST PUSH3 0x3CB PUSH3 0x3C2 DUP3 PUSH3 0x39E JUMP JUMPDEST DUP5 DUP5 SLOAD PUSH3 0x30C JUMP JUMPDEST DUP3 SSTORE POP POP POP POP JUMP JUMPDEST PUSH1 0x0 SWAP1 JUMP JUMPDEST PUSH3 0x3E2 PUSH3 0x3D3 JUMP JUMPDEST PUSH3 0x3EF DUP2 DUP5 DUP5 PUSH3 0x3A8 JUMP JUMPDEST POP POP POP JUMP JUMPDEST JUMPDEST DUP2 DUP2 LT ISZERO PUSH3 0x417 JUMPI PUSH3 0x40B PUSH1 0x0 DUP3 PUSH3 0x3D8 JUMP JUMPDEST PUSH1 0x1 DUP2 ADD SWAP1 POP PUSH3 0x3F5 JUMP JUMPDEST POP POP JUMP JUMPDEST PUSH1 0x1F DUP3 GT ISZERO PUSH3 0x466 JUMPI PUSH3 0x430 DUP2 PUSH3 0x2DA JUMP JUMPDEST PUSH3 0x43B DUP5 PUSH3 0x2EF JUMP JUMPDEST DUP2 ADD PUSH1 0x20 DUP6 LT ISZERO PUSH3 0x44B JUMPI DUP2 SWAP1 POP JUMPDEST PUSH3 0x463 PUSH3 0x45A DUP6 PUSH3 0x2EF JUMP JUMPDEST DUP4 ADD DUP3 PUSH3 0x3F4 JUMP JUMPDEST POP POP JUMPDEST POP POP POP JUMP JUMPDEST PUSH1 0x0 DUP3 DUP3 SHR SWAP1 POP SWAP3 SWAP2 POP POP JUMP JUMPDEST PUSH1 0x0 PUSH3 0x48B PUSH1 0x0 NOT DUP5 PUSH1 0x8 MUL PUSH3 0x46B JUMP JUMPDEST NOT DUP1 DUP4 AND SWAP2 POP POP SWAP3 SWAP2 POP POP JUMP JUMPDEST PUSH1 0x0 PUSH3 0x4A6 DUP4 DUP4 PUSH3 0x478 JUMP JUMPDEST SWAP2 POP DUP3 PUSH1 0x2 MUL DUP3 OR SWAP1 POP SWAP3 SWAP2 POP POP JUMP JUMPDEST PUSH3 0x4C1 DUP3 PUSH3 0x23C JUMP JUMPDEST PUSH8 0xFFFFFFFFFFFFFFFF DUP2 GT ISZERO PUSH3 0x4DD JUMPI PUSH3 0x4DC PUSH3 0x247 JUMP JUMPDEST JUMPDEST PUSH3 0x4E9 DUP3 SLOAD PUSH3 0x2A5 JUMP JUMPDEST PUSH3 0x4F6 DUP3 DUP3 DUP6 PUSH3 0x41B JUMP JUMPDEST PUSH1 0x0 PUSH1 0x20 SWAP1 POP PUSH1 0x1F DUP4 GT PUSH1 0x1 DUP2 EQ PUSH3 0x52E JUMPI PUSH1 0x0 DUP5 ISZERO PUSH3 0x519 JUMPI DUP3 DUP8 ADD MLOAD SWAP1 POP JUMPDEST PUSH3 0x525 DUP6 DUP3 PUSH3 0x498 JUMP JUMPDEST DUP7 SSTORE POP PUSH3 0x595 JUMP JUMPDEST PUSH1 0x1F NOT DUP5 AND PUSH3 0x53E DUP7 PUSH3 0x2DA JUMP JUMPDEST PUSH1 0x0 JUMPDEST DUP3 DUP2 LT ISZERO PUSH3 0x568 JUMPI DUP5 DUP10 ADD MLOAD DUP3 SSTORE PUSH1 0x1 DUP3 ADD SWAP2 POP PUSH1 0x20 DUP6 ADD SWAP5 POP PUSH1 0x20 DUP2 ADD SWAP1 POP PUSH3 0x541 JUMP JUMPDEST DUP7 DUP4 LT ISZERO PUSH3 0x588 JUMPI DUP5 DUP10 ADD MLOAD PUSH3 0x584 PUSH1 0x1F DUP10 AND DUP3 PUSH3 0x478 JUMP JUMPDEST DUP4 SSTORE POP JUMPDEST PUSH1 0x1 PUSH1 0x2 DUP9 MUL ADD DUP9 SSTORE POP POP POP JUMPDEST POP POP POP POP POP POP JUMP JUMPDEST PUSH2 0x55E9 DUP1 PUSH3 0x5AD PUSH1 0x0 CODECOPY PUSH1 0x0 RETURN INVALID PUSH1 0x80 PUSH1 0x40 MSTORE CALLVALUE DUP1 ISZERO PUSH3 0x11 JUMPI PUSH1 0x0 DUP1 REVERT JUMPDEST POP PUSH1 0x4 CALLDATASIZE LT PUSH3 0x16C JUMPI PUSH1 0x0 CALLDATALOAD PUSH1 0xE0 SHR DUP1 PUSH4 0x70A08231 GT PUSH3 0xD5 JUMPI DUP1 PUSH4 0xB88D4FDE GT PUSH3 0x87 JUMPI DUP1 PUSH4 0xB88D4FDE EQ PUSH3 0x41D JUMPI DUP1 PUSH4 0xC87B56DD EQ PUSH3 0x43D JUMPI DUP1 PUSH4 0xD1382064 EQ PUSH3 0x473 JUMPI DUP1 PUSH4 0xE985E9C5 EQ PUSH3 0x4A9 JUMPI DUP1 PUSH4 0xF2FDE38B EQ PUSH3 0x4DF JUMPI DUP1 PUSH4 0xFFE6EA49 EQ PUSH3 0x4FF JUMPI PUSH3 0x16C JUMP JUMPDEST DUP1 PUSH4 0x70A08231 EQ PUSH3 0x341 JUMPI DUP1 PUSH4 0x715018A6 EQ PUSH3 0x377 JUMPI DUP1 PUSH4 0x75778DB1 EQ PUSH3 0x383 JUMPI DUP1 PUSH4 0x8DA5CB5B EQ PUSH3 0x3B9 JUMPI DUP1 PUSH4 0x95D89B41 EQ PUSH3 0x3DB JUMPI DUP1 PUSH4 0xA22CB465 EQ PUSH3 0x3FD JUMPI PUSH3 0x16C JUMP JUMPDEST DUP1 PUSH4 0x23B872DD GT PUSH3 0x12F JUMPI DUP1 PUSH4 0x23B872DD EQ PUSH3 0x23F JUMPI DUP1 PUSH4 0x32F00C64 EQ PUSH3 0x25F JUMPI DUP1 PUSH4 0x343C5E36 EQ PUSH3 0x27F JUMPI DUP1 PUSH4 0x42842E0E EQ PUSH3 0x2B5 JUMPI DUP1 PUSH4 0x48BB5FC6 EQ PUSH3 0x2D5 JUMPI DUP1 PUSH4 0x6352211E EQ PUSH3 0x30B JUMPI PUSH3 0x16C JUMP JUMPDEST DUP1 PUSH4 0x1FFC9A7 EQ PUSH3 0x171 JUMPI DUP1 PUSH4 0x6FDDE03 EQ PUSH3 0x1A7 JUMPI DUP1 PUSH4 0x81812FC EQ PUSH3 0x1C9 JUMPI DUP1 PUSH4 0x95EA7B3 EQ PUSH3 0x1FF JUMPI DUP1 PUSH4 0x202FF74D EQ PUSH3 0x21F JUMPI JUMPDEST PUSH1 0x0 DUP1 REVERT JUMPDEST PUSH3 0x18F PUSH1 0x4 DUP1 CALLDATASIZE SUB DUP2 ADD SWAP1 PUSH3 0x189 SWAP2 SWAP1 PUSH3 0x25BC JUMP JUMPDEST PUSH3 0x521 JUMP JUMPDEST PUSH1 0x40 MLOAD PUSH3 0x19E SWAP2 SWAP1 PUSH3 0x260B JUMP JUMPDEST PUSH1 0x40 MLOAD DUP1 SWAP2 SUB SWAP1 RETURN JUMPDEST PUSH3 0x1B1 PUSH3 0x607 JUMP JUMPDEST PUSH1 0x40 MLOAD PUSH3 0x1C0 SWAP2 SWAP1 PUSH3 0x26C2 JUMP JUMPDEST PUSH1 0x40 MLOAD DUP1 SWAP2 SUB SWAP1 RETURN JUMPDEST PUSH3 0x1E7 PUSH1 0x4 DUP1 CALLDATASIZE SUB DUP2 ADD SWAP1 PUSH3 0x1E1 SWAP2 SWAP1 PUSH3 0x2721 JUMP JUMPDEST PUSH3 0x6A1 JUMP JUMPDEST PUSH1 0x40 MLOAD PUSH3 0x1F6 SWAP2 SWAP1 PUSH3 0x2798 JUMP JUMPDEST PUSH1 0x40 MLOAD DUP1 SWAP2 SUB SWAP1 RETURN JUMPDEST PUSH3 0x21D PUSH1 0x4 DUP1 CALLDATASIZE SUB DUP2 ADD SWAP1 PUSH3 0x217 SWAP2 SWAP1 PUSH3 0x27E6 JUMP JUMPDEST PUSH3 0x6E9 JUMP JUMPDEST STOP JUMPDEST PUSH3 0x23D PUSH1 0x4 DUP1 CALLDATASIZE SUB DUP2 ADD SWAP1 PUSH3 0x237 SWAP2 SWAP1 PUSH3 0x282D JUMP JUMPDEST PUSH3 0x811 JUMP JUMPDEST STOP JUMPDEST PUSH3 0x25D PUSH1 0x4 DUP1 CALLDATASIZE SUB DUP2 ADD SWAP1 PUSH3 0x257 SWAP2 SWAP1 PUSH3 0x285F JUMP JUMPDEST PUSH3 0x938 JUMP JUMPDEST STOP JUMPDEST PUSH3 0x27D PUSH1 0x4 DUP1 CALLDATASIZE SUB DUP2 ADD SWAP1 PUSH3 0x277 SWAP2 SWAP1 PUSH3 0x28BB JUMP JUMPDEST PUSH3 0x9A1 JUMP JUMPDEST STOP JUMPDEST PUSH3 0x29D PUSH1 0x4 DUP1 CALLDATASIZE SUB DUP2 ADD SWAP1 PUSH3 0x297 SWAP2 SWAP1 PUSH3 0x282D JUMP JUMPDEST PUSH3 0xA44 JUMP JUMPDEST PUSH1 0x40 MLOAD PUSH3 0x2AC SWAP2 SWAP1 PUSH3 0x260B JUMP JUMPDEST PUSH1 0x40 MLOAD DUP1 SWAP2 SUB SWAP1 RETURN JUMPDEST PUSH3 0x2D3 PUSH1 0x4 DUP1 CALLDATASIZE SUB DUP2 ADD SWAP1 PUSH3 0x2CD SWAP2 SWAP1 PUSH3 0x285F JUMP JUMPDEST PUSH3 0xBB0 JUMP JUMPDEST STOP JUMPDEST PUSH3 0x2F3 PUSH1 0x4 DUP1 CALLDATASIZE SUB DUP2 ADD SWAP1 PUSH3 0x2ED SWAP2 SWAP1 PUSH3 0x2B4F JUMP JUMPDEST PUSH3 0xBD2 JUMP JUMPDEST PUSH1 0x40 MLOAD PUSH3 0x302 SWAP2 SWAP1 PUSH3 0x2CB7 JUMP JUMPDEST PUSH1 0x40 MLOAD DUP1 SWAP2 SUB SWAP1 RETURN JUMPDEST PUSH3 0x329 PUSH1 0x4 DUP1 CALLDATASIZE SUB DUP2 ADD SWAP1 PUSH3 0x323 SWAP2 SWAP1 PUSH3 0x2721 JUMP JUMPDEST PUSH3 0xD8A JUMP JUMPDEST PUSH1 0x40 MLOAD PUSH3 0x338 SWAP2 SWAP1 PUSH3 0x2798 JUMP JUMPDEST PUSH1 0x40 MLOAD DUP1 SWAP2 SUB SWAP1 RETURN JUMPDEST PUSH3 0x35F PUSH1 0x4 DUP1 CALLDATASIZE SUB DUP2 ADD SWAP1 PUSH3 0x359 SWAP2 SWAP1 PUSH3 0x282D JUMP JUMPDEST PUSH3 0xE15 JUMP JUMPDEST PUSH1 0x40 MLOAD PUSH3 0x36E SWAP2 SWAP1 PUSH3 0x2CEC JUMP JUMPDEST PUSH1 0x40 MLOAD DUP1 SWAP2 SUB SWAP1 RETURN JUMPDEST PUSH3 0x381 PUSH3 0xECF JUMP JUMPDEST STOP JUMPDEST PUSH3 0x3A1 PUSH1 0x4 DUP1 CALLDATASIZE SUB DUP2 ADD SWAP1 PUSH3 0x39B SWAP2 SWAP1 PUSH3 0x2EB5 JUMP JUMPDEST PUSH3 0xEE7 JUMP JUMPDEST PUSH1 0x40 MLOAD PUSH3 0x3B0 SWAP2 SWAP1 PUSH3 0x2798 JUMP JUMPDEST PUSH1 0x40 MLOAD DUP1 SWAP2 SUB SWAP1 RETURN JUMPDEST PUSH3 0x3C3 PUSH3 0x10BC JUMP JUMPDEST PUSH1 0x40 MLOAD PUSH3 0x3D2 SWAP2 SWAP1 PUSH3 0x2798 JUMP JUMPDEST PUSH1 0x40 MLOAD DUP1 SWAP2 SUB SWAP1 RETURN JUMPDEST PUSH3 0x3E5 PUSH3 0x10E6 JUMP JUMPDEST PUSH1 0x40 MLOAD PUSH3 0x3F4 SWAP2 SWAP1 PUSH3 0x26C2 JUMP JUMPDEST PUSH1 0x40 MLOAD DUP1 SWAP2 SUB SWAP1 RETURN JUMPDEST PUSH3 0x41B PUSH1 0x4 DUP1 CALLDATASIZE SUB DUP2 ADD SWAP1 PUSH3 0x415 SWAP2 SWAP1 PUSH3 0x301D JUMP JUMPDEST PUSH3 0x1180 JUMP JUMPDEST STOP JUMPDEST PUSH3 0x43B PUSH1 0x4 DUP1 CALLDATASIZE SUB DUP2 ADD SWAP1 PUSH3 0x435 SWAP2 SWAP1 PUSH3 0x3118 JUMP JUMPDEST PUSH3 0x119A JUMP JUMPDEST STOP JUMPDEST PUSH3 0x45B PUSH1 0x4 DUP1 CALLDATASIZE SUB DUP2 ADD SWAP1 PUSH3 0x455 SWAP2 SWAP1 PUSH3 0x2721 JUMP JUMPDEST PUSH3 0x1205 JUMP JUMPDEST PUSH1 0x40 MLOAD PUSH3 0x46A SWAP2 SWAP1 PUSH3 0x26C2 JUMP JUMPDEST PUSH1 0x40 MLOAD DUP1 SWAP2 SUB SWAP1 RETURN JUMPDEST PUSH3 0x491 PUSH1 0x4 DUP1 CALLDATASIZE SUB DUP2 ADD SWAP1 PUSH3 0x48B SWAP2 SWAP1 PUSH3 0x282D JUMP JUMPDEST PUSH3 0x132B JUMP JUMPDEST PUSH1 0x40 MLOAD PUSH3 0x4A0 SWAP2 SWAP1 PUSH3 0x3214 JUMP JUMPDEST PUSH1 0x40 MLOAD DUP1 SWAP2 SUB SWAP1 RETURN JUMPDEST PUSH3 0x4C7 PUSH1 0x4 DUP1 CALLDATASIZE SUB DUP2 ADD SWAP1 PUSH3 0x4C1 SWAP2 SWAP1 PUSH3 0x3231 JUMP JUMPDEST PUSH3 0x135E JUMP JUMPDEST PUSH1 0x40 MLOAD PUSH3 0x4D6 SWAP2 SWAP1 PUSH3 0x260B JUMP JUMPDEST PUSH1 0x40 MLOAD DUP1 SWAP2 SUB SWAP1 RETURN JUMPDEST PUSH3 0x4FD PUSH1 0x4 DUP1 CALLDATASIZE SUB DUP2 ADD SWAP1 PUSH3 0x4F7 SWAP2 SWAP1 PUSH3 0x282D JUMP JUMPDEST PUSH3 0x13F2 JUMP JUMPDEST STOP JUMPDEST PUSH3 0x509 PUSH3 0x147C JUMP JUMPDEST PUSH1 0x40 MLOAD PUSH3 0x518 SWAP2 SWAP1 PUSH3 0x2798 JUMP JUMPDEST PUSH1 0x40 MLOAD DUP1 SWAP2 SUB SWAP1 RETURN JUMPDEST PUSH1 0x0 PUSH32 0x80AC58CD00000000000000000000000000000000000000000000000000000000 PUSH28 0xFFFFFFFFFFFFFFFFFFFFFFFFFFFFFFFFFFFFFFFFFFFFFFFFFFFFFFFF NOT AND DUP3 PUSH28 0xFFFFFFFFFFFFFFFFFFFFFFFFFFFFFFFFFFFFFFFFFFFFFFFFFFFFFFFF NOT AND EQ DUP1 PUSH3 0x5ED JUMPI POP PUSH32 0x5B5E139F00000000000000000000000000000000000000000000000000000000 PUSH28 0xFFFFFFFFFFFFFFFFFFFFFFFFFFFFFFFFFFFFFFFFFFFFFFFFFFFFFFFF NOT AND DUP3 PUSH28 0xFFFFFFFFFFFFFFFFFFFFFFFFFFFFFFFFFFFFFFFFFFFFFFFFFFFFFFFF NOT AND EQ JUMPDEST DUP1 PUSH3 0x600 JUMPI POP PUSH3 0x5FF DUP3 PUSH3 0x14A2 JUMP JUMPDEST JUMPDEST SWAP1 POP SWAP2 SWAP1 POP JUMP JUMPDEST PUSH1 0x60 PUSH1 0x0 DUP1 SLOAD PUSH3 0x618 SWAP1 PUSH3 0x32A7 JUMP JUMPDEST DUP1 PUSH1 0x1F ADD PUSH1 0x20 DUP1 SWAP2 DIV MUL PUSH1 0x20 ADD PUSH1 0x40 MLOAD SWAP1 DUP2 ADD PUSH1 0x40 MSTORE DUP1 SWAP3 SWAP2 SWAP1 DUP2 DUP2 MSTORE PUSH1 0x20 ADD DUP3 DUP1 SLOAD PUSH3 0x646 SWAP1 PUSH3 0x32A7 JUMP JUMPDEST DUP1 ISZERO PUSH3 0x697 JUMPI DUP1 PUSH1 0x1F LT PUSH3 0x66B JUMPI PUSH2 0x100 DUP1 DUP4 SLOAD DIV MUL DUP4 MSTORE SWAP2 PUSH1 0x20 ADD SWAP2 PUSH3 0x697 JUMP JUMPDEST DUP3 ADD SWAP2 SWAP1 PUSH1 0x0 MSTORE PUSH1 0x20 PUSH1 0x0 KECCAK256 SWAP1 JUMPDEST DUP2 SLOAD DUP2 MSTORE SWAP1 PUSH1 0x1 ADD SWAP1 PUSH1 0x20 ADD DUP1 DUP4 GT PUSH3 0x679 JUMPI DUP3 SWAP1 SUB PUSH1 0x1F AND DUP3 ADD SWAP2 JUMPDEST POP POP POP POP POP SWAP1 POP SWAP1 JUMP JUMPDEST PUSH1 0x0 PUSH3 0x6AE DUP3 PUSH3 0x150C JUMP JUMPDEST PUSH1 0x4 PUSH1 0x0 DUP4 DUP2 MSTORE PUSH1 0x20 ADD SWAP1 DUP2 MSTORE PUSH1 0x20 ADD PUSH1 0x0 KECCAK256 PUSH1 0x0 SWAP1 SLOAD SWAP1 PUSH2 0x100 EXP SWAP1 DIV PUSH20 0xFFFFFFFFFFFFFFFFFFFFFFFFFFFFFFFFFFFFFFFF AND SWAP1 POP SWAP2 SWAP1 POP JUMP JUMPDEST PUSH1 0x0 PUSH3 0x6F6 DUP3 PUSH3 0xD8A JUMP JUMPDEST SWAP1 POP DUP1 PUSH20 0xFFFFFFFFFFFFFFFFFFFFFFFFFFFFFFFFFFFFFFFF AND DUP4 PUSH20 0xFFFFFFFFFFFFFFFFFFFFFFFFFFFFFFFFFFFFFFFF AND SUB PUSH3 0x769 JUMPI PUSH1 0x40 MLOAD PUSH32 0x8C379A000000000000000000000000000000000000000000000000000000000 DUP2 MSTORE PUSH1 0x4 ADD PUSH3 0x760 SWAP1 PUSH3 0x3352 JUMP JUMPDEST PUSH1 0x40 MLOAD DUP1 SWAP2 SUB SWAP1 REVERT JUMPDEST DUP1 PUSH20 0xFFFFFFFFFFFFFFFFFFFFFFFFFFFFFFFFFFFFFFFF AND PUSH3 0x78A PUSH3 0x155C JUMP JUMPDEST PUSH20 0xFFFFFFFFFFFFFFFFFFFFFFFFFFFFFFFFFFFFFFFF AND EQ DUP1 PUSH3 0x7BE JUMPI POP PUSH3 0x7BD DUP2 PUSH3 0x7B7 PUSH3 0x155C JUMP JUMPDEST PUSH3 0x135E JUMP JUMPDEST JUMPDEST PUSH3 0x800 JUMPI PUSH1 0x40 MLOAD PUSH32 0x8C379A000000000000000000000000000000000000000000000000000000000 DUP2 MSTORE PUSH1 0x4 ADD PUSH3 0x7F7 SWAP1 PUSH3 0x33EA JUMP JUMPDEST PUSH1 0x40 MLOAD DUP1 SWAP2 SUB SWAP1 REVERT JUMPDEST PUSH3 0x80C DUP4 DUP4 PUSH3 0x1564 JUMP JUMPDEST POP POP POP JUMP JUMPDEST PUSH3 0x81B PUSH3 0x161F JUMP JUMPDEST PUSH3 0x826 DUP2 PUSH3 0xA44 JUMP JUMPDEST PUSH3 0x868 JUMPI PUSH1 0x40 MLOAD PUSH32 0x8C379A000000000000000000000000000000000000000000000000000000000 DUP2 MSTORE PUSH1 0x4 ADD PUSH3 0x85F SWAP1 PUSH3 0x345C JUMP JUMPDEST PUSH1 0x40 MLOAD DUP1 SWAP2 SUB SWAP1 REVERT JUMPDEST PUSH1 0x0 PUSH1 0xB PUSH1 0x0 DUP4 PUSH20 0xFFFFFFFFFFFFFFFFFFFFFFFFFFFFFFFFFFFFFFFF AND PUSH20 0xFFFFFFFFFFFFFFFFFFFFFFFFFFFFFFFFFFFFFFFF AND DUP2 MSTORE PUSH1 0x20 ADD SWAP1 DUP2 MSTORE PUSH1 0x20 ADD PUSH1 0x0 KECCAK256 PUSH1 0x0 SWAP1 SLOAD SWAP1 PUSH2 0x100 EXP SWAP1 DIV PUSH20 0xFFFFFFFFFFFFFFFFFFFFFFFFFFFFFFFFFFFFFFFF AND SWAP1 POP PUSH1 0x0 DUP2 SWAP1 POP DUP1 PUSH20 0xFFFFFFFFFFFFFFFFFFFFFFFFFFFFFFFFFFFFFFFF AND PUSH4 0x9699114C PUSH1 0x40 MLOAD DUP2 PUSH4 0xFFFFFFFF AND PUSH1 0xE0 SHL DUP2 MSTORE PUSH1 0x4 ADD PUSH1 0x0 PUSH1 0x40 MLOAD DUP1 DUP4 SUB DUP2 PUSH1 0x0 DUP8 DUP1 EXTCODESIZE ISZERO DUP1 ISZERO PUSH3 0x91A JUMPI PUSH1 0x0 DUP1 REVERT JUMPDEST POP GAS CALL ISZERO DUP1 ISZERO PUSH3 0x92F JUMPI RETURNDATASIZE PUSH1 0x0 DUP1 RETURNDATACOPY RETURNDATASIZE PUSH1 0x0 REVERT JUMPDEST POP POP POP POP POP POP POP JUMP JUMPDEST PUSH3 0x94D PUSH3 0x946 PUSH3 0x155C JUMP JUMPDEST DUP3 PUSH3 0x16A4 JUMP JUMPDEST PUSH3 0x98F JUMPI PUSH1 0x40 MLOAD PUSH32 0x8C379A000000000000000000000000000000000000000000000000000000000 DUP2 MSTORE PUSH1 0x4 ADD PUSH3 0x986 SWAP1 PUSH3 0x34F4 JUMP JUMPDEST PUSH1 0x40 MLOAD DUP1 SWAP2 SUB SWAP1 REVERT JUMPDEST PUSH3 0x99C DUP4 DUP4 DUP4 PUSH3 0x1741 JUMP JUMPDEST POP POP POP JUMP JUMPDEST PUSH1 0x8 PUSH1 0x0 SWAP1 SLOAD SWAP1 PUSH2 0x100 EXP SWAP1 DIV PUSH20 0xFFFFFFFFFFFFFFFFFFFFFFFFFFFFFFFFFFFFFFFF AND PUSH20 0xFFFFFFFFFFFFFFFFFFFFFFFFFFFFFFFFFFFFFFFF AND CALLER PUSH20 0xFFFFFFFFFFFFFFFFFFFFFFFFFFFFFFFFFFFFFFFF AND EQ PUSH3 0xA34 JUMPI PUSH1 0x40 MLOAD PUSH32 0x8C379A000000000000000000000000000000000000000000000000000000000 DUP2 MSTORE PUSH1 0x4 ADD PUSH3 0xA2B SWAP1 PUSH3 0x358C JUMP JUMPDEST PUSH1 0x40 MLOAD DUP1 SWAP2 SUB SWAP1 REVERT JUMPDEST PUSH3 0xA40 DUP2 DUP4 PUSH3 0x6E9 JUMP JUMPDEST POP POP JUMP JUMPDEST PUSH1 0x0 DUP1 PUSH1 0x9 PUSH1 0x0 SWAP1 SLOAD SWAP1 PUSH2 0x100 EXP SWAP1 DIV PUSH20 0xFFFFFFFFFFFFFFFFFFFFFFFFFFFFFFFFFFFFFFFF AND PUSH20 0xFFFFFFFFFFFFFFFFFFFFFFFFFFFFFFFFFFFFFFFF AND PUSH4 0xBF9C3CEC DUP5 PUSH1 0x40 MLOAD DUP3 PUSH4 0xFFFFFFFF AND PUSH1 0xE0 SHL DUP2 MSTORE PUSH1 0x4 ADD PUSH3 0xAA4 SWAP2 SWAP1 PUSH3 0x2798 JUMP JUMPDEST PUSH1 0x20 PUSH1 0x40 MLOAD DUP1 DUP4 SUB DUP2 DUP7 GAS STATICCALL ISZERO DUP1 ISZERO PUSH3 0xAC2 JUMPI RETURNDATASIZE PUSH1 0x0 DUP1 RETURNDATACOPY RETURNDATASIZE PUSH1 0x0 REVERT JUMPDEST POP POP POP POP PUSH1 0x40 MLOAD RETURNDATASIZE PUSH1 0x1F NOT PUSH1 0x1F DUP3 ADD AND DUP3 ADD DUP1 PUSH1 0x40 MSTORE POP DUP2 ADD SWAP1 PUSH3 0xAE8 SWAP2 SWAP1 PUSH3 0x35C5 JUMP JUMPDEST SWAP1 POP PUSH1 0x0 PUSH1 0x9 PUSH1 0x0 SWAP1 SLOAD SWAP1 PUSH2 0x100 EXP SWAP1 DIV PUSH20 0xFFFFFFFFFFFFFFFFFFFFFFFFFFFFFFFFFFFFFFFF AND PUSH20 0xFFFFFFFFFFFFFFFFFFFFFFFFFFFFFFFFFFFFFFFF AND PUSH4 0x8EE58187 DUP6 PUSH1 0x40 MLOAD DUP3 PUSH4 0xFFFFFFFF AND PUSH1 0xE0 SHL DUP2 MSTORE PUSH1 0x4 ADD PUSH3 0xB49 SWAP2 SWAP1 PUSH3 0x2798 JUMP JUMPDEST PUSH1 0x20 PUSH1 0x40 MLOAD DUP1 DUP4 SUB DUP2 DUP7 GAS STATICCALL ISZERO DUP1 ISZERO PUSH3 0xB67 JUMPI RETURNDATASIZE PUSH1 0x0 DUP1 RETURNDATACOPY RETURNDATASIZE PUSH1 0x0 REVERT JUMPDEST POP POP POP POP PUSH1 0x40 MLOAD RETURNDATASIZE PUSH1 0x1F NOT PUSH1 0x1F DUP3 ADD AND DUP3 ADD DUP1 PUSH1 0x40 MSTORE POP DUP2 ADD SWAP1 PUSH3 0xB8D SWAP2 SWAP1 PUSH3 0x35C5 JUMP JUMPDEST SWAP1 POP PUSH1 0x0 PUSH1 0x1 DUP3 PUSH3 0xBA0 SWAP2 SWAP1 PUSH3 0x3626 JUMP JUMPDEST SWAP1 POP DUP1 DUP4 LT ISZERO SWAP4 POP POP POP POP SWAP2 SWAP1 POP JUMP JUMPDEST PUSH3 0xBCD DUP4 DUP4 DUP4 PUSH1 0x40 MLOAD DUP1 PUSH1 0x20 ADD PUSH1 0x40 MSTORE DUP1 PUSH1 0x0 DUP2 MSTORE POP PUSH3 0x119A JUMP JUMPDEST POP POP POP JUMP JUMPDEST PUSH1 0x60 PUSH1 0x8 PUSH1 0x0 SWAP1 SLOAD SWAP1 PUSH2 0x100 EXP SWAP1 DIV PUSH20 0xFFFFFFFFFFFFFFFFFFFFFFFFFFFFFFFFFFFFFFFF AND PUSH20 0xFFFFFFFFFFFFFFFFFFFFFFFFFFFFFFFFFFFFFFFF AND CALLER PUSH20 0xFFFFFFFFFFFFFFFFFFFFFFFFFFFFFFFFFFFFFFFF AND EQ PUSH3 0xC67 JUMPI PUSH1 0x40 MLOAD PUSH32 0x8C379A000000000000000000000000000000000000000000000000000000000 DUP2 MSTORE PUSH1 0x4 ADD PUSH3 0xC5E SWAP1 PUSH3 0x36B1 JUMP JUMPDEST PUSH1 0x40 MLOAD DUP1 SWAP2 SUB SWAP1 REVERT JUMPDEST PUSH1 0x0 DUP4 MLOAD PUSH8 0xFFFFFFFFFFFFFFFF DUP2 GT ISZERO PUSH3 0xC87 JUMPI PUSH3 0xC86 PUSH3 0x2907 JUMP JUMPDEST JUMPDEST PUSH1 0x40 MLOAD SWAP1 DUP1 DUP3 MSTORE DUP1 PUSH1 0x20 MUL PUSH1 0x20 ADD DUP3 ADD PUSH1 0x40 MSTORE DUP1 ISZERO PUSH3 0xCB6 JUMPI DUP2 PUSH1 0x20 ADD PUSH1 0x20 DUP3 MUL DUP1 CALLDATASIZE DUP4 CALLDATACOPY DUP1 DUP3 ADD SWAP2 POP POP SWAP1 POP JUMPDEST POP SWAP1 POP PUSH1 0x0 JUMPDEST DUP5 MLOAD DUP2 LT ISZERO PUSH3 0xD7E JUMPI PUSH1 0x0 PUSH1 0xA SLOAD SWAP1 POP PUSH3 0xCD9 DUP8 DUP3 PUSH3 0x1A4B JUMP JUMPDEST PUSH3 0xD2A DUP2 PUSH3 0xD24 DUP9 DUP6 DUP2 MLOAD DUP2 LT PUSH3 0xCF8 JUMPI PUSH3 0xCF7 PUSH3 0x36D3 JUMP JUMPDEST JUMPDEST PUSH1 0x20 MUL PUSH1 0x20 ADD ADD MLOAD DUP9 DUP7 DUP2 MLOAD DUP2 LT PUSH3 0xD16 JUMPI PUSH3 0xD15 PUSH3 0x36D3 JUMP JUMPDEST JUMPDEST PUSH1 0x20 MUL PUSH1 0x20 ADD ADD MLOAD PUSH3 0x1A6B JUMP JUMPDEST PUSH3 0x1A8A JUMP JUMPDEST DUP1 DUP4 DUP4 DUP2 MLOAD DUP2 LT PUSH3 0xD41 JUMPI PUSH3 0xD40 PUSH3 0x36D3 JUMP JUMPDEST JUMPDEST PUSH1 0x20 MUL PUSH1 0x20 ADD ADD DUP2 DUP2 MSTORE POP POP PUSH1 0xA PUSH1 0x0 DUP2 SLOAD DUP1 SWAP3 SWAP2 SWAP1 PUSH3 0xD62 SWAP1 PUSH3 0x3702 JUMP JUMPDEST SWAP2 SWAP1 POP SSTORE POP POP DUP1 DUP1 PUSH3 0xD75 SWAP1 PUSH3 0x3702 JUMP JUMPDEST SWAP2 POP POP PUSH3 0xCBC JUMP JUMPDEST POP DUP1 SWAP2 POP POP SWAP4 SWAP3 POP POP POP JUMP JUMPDEST PUSH1 0x0 DUP1 PUSH3 0xD98 DUP4 PUSH3 0x1AFE JUMP JUMPDEST SWAP1 POP PUSH1 0x0 PUSH20 0xFFFFFFFFFFFFFFFFFFFFFFFFFFFFFFFFFFFFFFFF AND DUP2 PUSH20 0xFFFFFFFFFFFFFFFFFFFFFFFFFFFFFFFFFFFFFFFF AND SUB PUSH3 0xE0C JUMPI PUSH1 0x40 MLOAD PUSH32 0x8C379A000000000000000000000000000000000000000000000000000000000 DUP2 MSTORE PUSH1 0x4 ADD PUSH3 0xE03 SWAP1 PUSH3 0x379F JUMP JUMPDEST PUSH1 0x40 MLOAD DUP1 SWAP2 SUB SWAP1 REVERT JUMPDEST DUP1 SWAP2 POP POP SWAP2 SWAP1 POP JUMP JUMPDEST PUSH1 0x0 DUP1 PUSH20 0xFFFFFFFFFFFFFFFFFFFFFFFFFFFFFFFFFFFFFFFF AND DUP3 PUSH20 0xFFFFFFFFFFFFFFFFFFFFFFFFFFFFFFFFFFFFFFFF AND SUB PUSH3 0xE88 JUMPI PUSH1 0x40 MLOAD PUSH32 0x8C379A000000000000000000000000000000000000000000000000000000000 DUP2 MSTORE PUSH1 0x4 ADD PUSH3 0xE7F SWAP1 PUSH3 0x3837 JUMP JUMPDEST PUSH1 0x40 MLOAD DUP1 SWAP2 SUB SWAP1 REVERT JUMPDEST PUSH1 0x3 PUSH1 0x0 DUP4 PUSH20 0xFFFFFFFFFFFFFFFFFFFFFFFFFFFFFFFFFFFFFFFF AND PUSH20 0xFFFFFFFFFFFFFFFFFFFFFFFFFFFFFFFFFFFFFFFF AND DUP2 MSTORE PUSH1 0x20 ADD SWAP1 DUP2 MSTORE PUSH1 0x20 ADD PUSH1 0x0 KECCAK256 SLOAD SWAP1 POP SWAP2 SWAP1 POP JUMP JUMPDEST PUSH3 0xED9 PUSH3 0x161F JUMP JUMPDEST PUSH3 0xEE5 PUSH1 0x0 PUSH3 0x1B3B JUMP JUMPDEST JUMP JUMPDEST PUSH1 0x0 PUSH1 0x8 PUSH1 0x0 SWAP1 SLOAD SWAP1 PUSH2 0x100 EXP SWAP1 DIV PUSH20 0xFFFFFFFFFFFFFFFFFFFFFFFFFFFFFFFFFFFFFFFF AND PUSH20 0xFFFFFFFFFFFFFFFFFFFFFFFFFFFFFFFFFFFFFFFF AND CALLER PUSH20 0xFFFFFFFFFFFFFFFFFFFFFFFFFFFFFFFFFFFFFFFF AND EQ PUSH3 0xF7C JUMPI PUSH1 0x40 MLOAD PUSH32 0x8C379A000000000000000000000000000000000000000000000000000000000 DUP2 MSTORE PUSH1 0x4 ADD PUSH3 0xF73 SWAP1 PUSH3 0x38CF JUMP JUMPDEST PUSH1 0x40 MLOAD DUP1 SWAP2 SUB SWAP1 REVERT JUMPDEST PUSH1 0x0 ADDRESS PUSH1 0x40 MLOAD PUSH3 0xF8D SWAP1 PUSH3 0x253D JUMP JUMPDEST PUSH3 0xF99 SWAP2 SWAP1 PUSH3 0x2798 JUMP JUMPDEST PUSH1 0x40 MLOAD DUP1 SWAP2 SUB SWAP1 PUSH1 0x0 CREATE DUP1 ISZERO DUP1 ISZERO PUSH3 0xFB6 JUMPI RETURNDATASIZE PUSH1 0x0 DUP1 RETURNDATACOPY RETURNDATASIZE PUSH1 0x0 REVERT JUMPDEST POP SWAP1 POP DUP1 PUSH1 0xB PUSH1 0x0 DUP6 PUSH20 0xFFFFFFFFFFFFFFFFFFFFFFFFFFFFFFFFFFFFFFFF AND PUSH20 0xFFFFFFFFFFFFFFFFFFFFFFFFFFFFFFFFFFFFFFFF AND DUP2 MSTORE PUSH1 0x20 ADD SWAP1 DUP2 MSTORE PUSH1 0x20 ADD PUSH1 0x0 KECCAK256 PUSH1 0x0 PUSH2 0x100 EXP DUP2 SLOAD DUP2 PUSH20 0xFFFFFFFFFFFFFFFFFFFFFFFFFFFFFFFFFFFFFFFF MUL NOT AND SWAP1 DUP4 PUSH20 0xFFFFFFFFFFFFFFFFFFFFFFFFFFFFFFFFFFFFFFFF AND MUL OR SWAP1 SSTORE POP DUP1 PUSH20 0xFFFFFFFFFFFFFFFFFFFFFFFFFFFFFFFFFFFFFFFF AND PUSH4 0xB15A0C58 DUP10 DUP10 DUP10 DUP10 DUP10 PUSH1 0x40 MLOAD DUP7 PUSH4 0xFFFFFFFF AND PUSH1 0xE0 SHL DUP2 MSTORE PUSH1 0x4 ADD PUSH3 0x107A SWAP6 SWAP5 SWAP4 SWAP3 SWAP2 SWAP1 PUSH3 0x39BF JUMP JUMPDEST PUSH1 0x0 PUSH1 0x40 MLOAD DUP1 DUP4 SUB DUP2 PUSH1 0x0 DUP8 DUP1 EXTCODESIZE ISZERO DUP1 ISZERO PUSH3 0x1095 JUMPI PUSH1 0x0 DUP1 REVERT JUMPDEST POP GAS CALL ISZERO DUP1 ISZERO PUSH3 0x10AA JUMPI RETURNDATASIZE PUSH1 0x0 DUP1 RETURNDATACOPY RETURNDATASIZE PUSH1 0x0 REVERT JUMPDEST POP POP POP POP DUP1 SWAP2 POP POP SWAP7 SWAP6 POP POP POP POP POP POP JUMP JUMPDEST PUSH1 0x0 PUSH1 0x7 PUSH1 0x0 SWAP1 SLOAD SWAP1 PUSH2 0x100 EXP SWAP1 DIV PUSH20 0xFFFFFFFFFFFFFFFFFFFFFFFFFFFFFFFFFFFFFFFF AND SWAP1 POP SWAP1 JUMP JUMPDEST PUSH1 0x60 PUSH1 0x1 DUP1 SLOAD PUSH3 0x10F7 SWAP1 PUSH3 0x32A7 JUMP JUMPDEST DUP1 PUSH1 0x1F ADD PUSH1 0x20 DUP1 SWAP2 DIV MUL PUSH1 0x20 ADD PUSH1 0x40 MLOAD SWAP1 DUP2 ADD PUSH1 0x40 MSTORE DUP1 SWAP3 SWAP2 SWAP1 DUP2 DUP2 MSTORE PUSH1 0x20 ADD DUP3 DUP1 SLOAD PUSH3 0x1125 SWAP1 PUSH3 0x32A7 JUMP JUMPDEST DUP1 ISZERO PUSH3 0x1176 JUMPI DUP1 PUSH1 0x1F LT PUSH3 0x114A JUMPI PUSH2 0x100 DUP1 DUP4 SLOAD DIV MUL DUP4 MSTORE SWAP2 PUSH1 0x20 ADD SWAP2 PUSH3 0x1176 JUMP JUMPDEST DUP3 ADD SWAP2 SWAP1 PUSH1 0x0 MSTORE PUSH1 0x20 PUSH1 0x0 KECCAK256 SWAP1 JUMPDEST DUP2 SLOAD DUP2 MSTORE SWAP1 PUSH1 0x1 ADD SWAP1 PUSH1 0x20 ADD DUP1 DUP4 GT PUSH3 0x1158 JUMPI DUP3 SWAP1 SUB PUSH1 0x1F AND DUP3 ADD SWAP2 JUMPDEST POP POP POP POP POP SWAP1 POP SWAP1 JUMP JUMPDEST PUSH3 0x1196 PUSH3 0x118E PUSH3 0x155C JUMP JUMPDEST DUP4 DUP4 PUSH3 0x1C01 JUMP JUMPDEST POP POP JUMP JUMPDEST PUSH3 0x11AF PUSH3 0x11A8 PUSH3 0x155C JUMP JUMPDEST DUP4 PUSH3 0x16A4 JUMP JUMPDEST PUSH3 0x11F1 JUMPI PUSH1 0x40 MLOAD PUSH32 0x8C379A000000000000000000000000000000000000000000000000000000000 DUP2 MSTORE PUSH1 0x4 ADD PUSH3 0x11E8 SWAP1 PUSH3 0x34F4 JUMP JUMPDEST PUSH1 0x40 MLOAD DUP1 SWAP2 SUB SWAP1 REVERT JUMPDEST PUSH3 0x11FF DUP5 DUP5 DUP5 DUP5 PUSH3 0x1D72 JUMP JUMPDEST POP POP POP POP JUMP JUMPDEST PUSH1 0x60 PUSH3 0x1212 DUP3 PUSH3 0x150C JUMP JUMPDEST PUSH1 0x0 PUSH1 0x6 PUSH1 0x0 DUP5 DUP2 MSTORE PUSH1 0x20 ADD SWAP1 DUP2 MSTORE PUSH1 0x20 ADD PUSH1 0x0 KECCAK256 DUP1 SLOAD PUSH3 0x1234 SWAP1 PUSH3 0x32A7 JUMP JUMPDEST DUP1 PUSH1 0x1F ADD PUSH1 0x20 DUP1 SWAP2 DIV MUL PUSH1 0x20 ADD PUSH1 0x40 MLOAD SWAP1 DUP2 ADD PUSH1 0x40 MSTORE DUP1 SWAP3 SWAP2 SWAP1 DUP2 DUP2 MSTORE PUSH1 0x20 ADD DUP3 DUP1 SLOAD PUSH3 0x1262 SWAP1 PUSH3 0x32A7 JUMP JUMPDEST DUP1 ISZERO PUSH3 0x12B3 JUMPI DUP1 PUSH1 0x1F LT PUSH3 0x1287 JUMPI PUSH2 0x100 DUP1 DUP4 SLOAD DIV MUL DUP4 MSTORE SWAP2 PUSH1 0x20 ADD SWAP2 PUSH3 0x12B3 JUMP JUMPDEST DUP3 ADD SWAP2 SWAP1 PUSH1 0x0 MSTORE PUSH1 0x20 PUSH1 0x0 KECCAK256 SWAP1 JUMPDEST DUP2 SLOAD DUP2 MSTORE SWAP1 PUSH1 0x1 ADD SWAP1 PUSH1 0x20 ADD DUP1 DUP4 GT PUSH3 0x1295 JUMPI DUP3 SWAP1 SUB PUSH1 0x1F AND DUP3 ADD SWAP2 JUMPDEST POP POP POP POP POP SWAP1 POP PUSH1 0x0 PUSH3 0x12C6 PUSH3 0x1DD5 JUMP JUMPDEST SWAP1 POP PUSH1 0x0 DUP2 MLOAD SUB PUSH3 0x12DD JUMPI DUP2 SWAP3 POP POP POP PUSH3 0x1326 JUMP JUMPDEST PUSH1 0x0 DUP3 MLOAD GT ISZERO PUSH3 0x1316 JUMPI DUP1 DUP3 PUSH1 0x40 MLOAD PUSH1 0x20 ADD PUSH3 0x12FD SWAP3 SWAP2 SWAP1 PUSH3 0x3A81 JUMP JUMPDEST PUSH1 0x40 MLOAD PUSH1 0x20 DUP2 DUP4 SUB SUB DUP2 MSTORE SWAP1 PUSH1 0x40 MSTORE SWAP3 POP POP POP PUSH3 0x1326 JUMP JUMPDEST PUSH3 0x1321 DUP5 PUSH3 0x1DEC JUMP JUMPDEST SWAP3 POP POP POP JUMPDEST SWAP2 SWAP1 POP JUMP JUMPDEST PUSH1 0xB PUSH1 0x20 MSTORE DUP1 PUSH1 0x0 MSTORE PUSH1 0x40 PUSH1 0x0 KECCAK256 PUSH1 0x0 SWAP2 POP SLOAD SWAP1 PUSH2 0x100 EXP SWAP1 DIV PUSH20 0xFFFFFFFFFFFFFFFFFFFFFFFFFFFFFFFFFFFFFFFF AND DUP2 JUMP JUMPDEST PUSH1 0x0 PUSH1 0x5 PUSH1 0x0 DUP5 PUSH20 0xFFFFFFFFFFFFFFFFFFFFFFFFFFFFFFFFFFFFFFFF AND PUSH20 0xFFFFFFFFFFFFFFFFFFFFFFFFFFFFFFFFFFFFFFFF AND DUP2 MSTORE PUSH1 0x20 ADD SWAP1 DUP2 MSTORE PUSH1 0x20 ADD PUSH1 0x0 KECCAK256 PUSH1 0x0 DUP4 PUSH20 0xFFFFFFFFFFFFFFFFFFFFFFFFFFFFFFFFFFFFFFFF AND PUSH20 0xFFFFFFFFFFFFFFFFFFFFFFFFFFFFFFFFFFFFFFFF AND DUP2 MSTORE PUSH1 0x20 ADD SWAP1 DUP2 MSTORE PUSH1 0x20 ADD PUSH1 0x0 KECCAK256 PUSH1 0x0 SWAP1 SLOAD SWAP1 PUSH2 0x100 EXP SWAP1 DIV PUSH1 0xFF AND SWAP1 POP SWAP3 SWAP2 POP POP JUMP JUMPDEST PUSH3 0x13FC PUSH3 0x161F JUMP JUMPDEST PUSH1 0x0 PUSH20 0xFFFFFFFFFFFFFFFFFFFFFFFFFFFFFFFFFFFFFFFF AND DUP2 PUSH20 0xFFFFFFFFFFFFFFFFFFFFFFFFFFFFFFFFFFFFFFFF AND SUB PUSH3 0x146E JUMPI PUSH1 0x40 MLOAD PUSH32 0x8C379A000000000000000000000000000000000000000000000000000000000 DUP2 MSTORE PUSH1 0x4 ADD PUSH3 0x1465 SWAP1 PUSH3 0x3B1F JUMP JUMPDEST PUSH1 0x40 MLOAD DUP1 SWAP2 SUB SWAP1 REVERT JUMPDEST PUSH3 0x1479 DUP2 PUSH3 0x1B3B JUMP JUMPDEST POP JUMP JUMPDEST PUSH1 0x8 PUSH1 0x0 SWAP1 SLOAD SWAP1 PUSH2 0x100 EXP SWAP1 DIV PUSH20 0xFFFFFFFFFFFFFFFFFFFFFFFFFFFFFFFFFFFFFFFF AND DUP2 JUMP JUMPDEST PUSH1 0x0 PUSH32 0x1FFC9A700000000000000000000000000000000000000000000000000000000 PUSH28 0xFFFFFFFFFFFFFFFFFFFFFFFFFFFFFFFFFFFFFFFFFFFFFFFFFFFFFFFF NOT AND DUP3 PUSH28 0xFFFFFFFFFFFFFFFFFFFFFFFFFFFFFFFFFFFFFFFFFFFFFFFFFFFFFFFF NOT AND EQ SWAP1 POP SWAP2 SWAP1 POP JUMP JUMPDEST PUSH3 0x1517 DUP2 PUSH3 0x1E5E JUMP JUMPDEST PUSH3 0x1559 JUMPI PUSH1 0x40 MLOAD PUSH32 0x8C379A000000000000000000000000000000000000000000000000000000000 DUP2 MSTORE PUSH1 0x4 ADD PUSH3 0x1550 SWAP1 PUSH3 0x379F JUMP JUMPDEST PUSH1 0x40 MLOAD DUP1 SWAP2 SUB SWAP1 REVERT JUMPDEST POP JUMP JUMPDEST PUSH1 0x0 CALLER SWAP1 POP SWAP1 JUMP JUMPDEST DUP2 PUSH1 0x4 PUSH1 0x0 DUP4 DUP2 MSTORE PUSH1 0x20 ADD SWAP1 DUP2 MSTORE PUSH1 0x20 ADD PUSH1 0x0 KECCAK256 PUSH1 0x0 PUSH2 0x100 EXP DUP2 SLOAD DUP2 PUSH20 0xFFFFFFFFFFFFFFFFFFFFFFFFFFFFFFFFFFFFFFFF MUL NOT AND SWAP1 DUP4 PUSH20 0xFFFFFFFFFFFFFFFFFFFFFFFFFFFFFFFFFFFFFFFF AND MUL OR SWAP1 SSTORE POP DUP1 DUP3 PUSH20 0xFFFFFFFFFFFFFFFFFFFFFFFFFFFFFFFFFFFFFFFF AND PUSH3 0x15D9 DUP4 PUSH3 0xD8A JUMP JUMPDEST PUSH20 0xFFFFFFFFFFFFFFFFFFFFFFFFFFFFFFFFFFFFFFFF AND PUSH32 0x8C5BE1E5EBEC7D5BD14F71427D1E84F3DD0314C0F7B2291E5B200AC8C7C3B925 PUSH1 0x40 MLOAD PUSH1 0x40 MLOAD DUP1 SWAP2 SUB SWAP1 LOG4 POP POP JUMP JUMPDEST PUSH3 0x1629 PUSH3 0x155C JUMP JUMPDEST PUSH20 0xFFFFFFFFFFFFFFFFFFFFFFFFFFFFFFFFFFFFFFFF AND PUSH3 0x1649 PUSH3 0x10BC JUMP JUMPDEST PUSH20 0xFFFFFFFFFFFFFFFFFFFFFFFFFFFFFFFFFFFFFFFF AND EQ PUSH3 0x16A2 JUMPI PUSH1 0x40 MLOAD PUSH32 0x8C379A000000000000000000000000000000000000000000000000000000000 DUP2 MSTORE PUSH1 0x4 ADD PUSH3 0x1699 SWAP1 PUSH3 0x3B91 JUMP JUMPDEST PUSH1 0x40 MLOAD DUP1 SWAP2 SUB SWAP1 REVERT JUMPDEST JUMP JUMPDEST PUSH1 0x0 DUP1 PUSH3 0x16B2 DUP4 PUSH3 0xD8A JUMP JUMPDEST SWAP1 POP DUP1 PUSH20 0xFFFFFFFFFFFFFFFFFFFFFFFFFFFFFFFFFFFFFFFF AND DUP5 PUSH20 0xFFFFFFFFFFFFFFFFFFFFFFFFFFFFFFFFFFFFFFFF AND EQ DUP1 PUSH3 0x16F7 JUMPI POP PUSH3 0x16F6 DUP2 DUP6 PUSH3 0x135E JUMP JUMPDEST JUMPDEST DUP1 PUSH3 0x1738 JUMPI POP DUP4 PUSH20 0xFFFFFFFFFFFFFFFFFFFFFFFFFFFFFFFFFFFFFFFF AND PUSH3 0x1720 DUP5 PUSH3 0x6A1 JUMP JUMPDEST PUSH20 0xFFFFFFFFFFFFFFFFFFFFFFFFFFFFFFFFFFFFFFFF AND EQ JUMPDEST SWAP2 POP POP SWAP3 SWAP2 POP POP JUMP JUMPDEST DUP3 PUSH20 0xFFFFFFFFFFFFFFFFFFFFFFFFFFFFFFFFFFFFFFFF AND PUSH3 0x1763 DUP3 PUSH3 0xD8A JUMP JUMPDEST PUSH20 0xFFFFFFFFFFFFFFFFFFFFFFFFFFFFFFFFFFFFFFFF AND EQ PUSH3 0x17BC JUMPI PUSH1 0x40 MLOAD PUSH32 0x8C379A000000000000000000000000000000000000000000000000000000000 DUP2 MSTORE PUSH1 0x4 ADD PUSH3 0x17B3 SWAP1 PUSH3 0x3C29 JUMP JUMPDEST PUSH1 0x40 MLOAD DUP1 SWAP2 SUB SWAP1 REVERT JUMPDEST PUSH1 0x0 PUSH20 0xFFFFFFFFFFFFFFFFFFFFFFFFFFFFFFFFFFFFFFFF AND DUP3 PUSH20 0xFFFFFFFFFFFFFFFFFFFFFFFFFFFFFFFFFFFFFFFF AND SUB PUSH3 0x182E JUMPI PUSH1 0x40 MLOAD PUSH32 0x8C379A000000000000000000000000000000000000000000000000000000000 DUP2 MSTORE PUSH1 0x4 ADD PUSH3 0x1825 SWAP1 PUSH3 0x3CC1 JUMP JUMPDEST PUSH1 0x40 MLOAD DUP1 SWAP2 SUB SWAP1 REVERT JUMPDEST PUSH3 0x183D DUP4 DUP4 DUP4 PUSH1 0x1 PUSH3 0x1EA1 JUMP JUMPDEST DUP3 PUSH20 0xFFFFFFFFFFFFFFFFFFFFFFFFFFFFFFFFFFFFFFFF AND PUSH3 0x185F DUP3 PUSH3 0xD8A JUMP JUMPDEST PUSH20 0xFFFFFFFFFFFFFFFFFFFFFFFFFFFFFFFFFFFFFFFF AND EQ PUSH3 0x18B8 JUMPI PUSH1 0x40 MLOAD PUSH32 0x8C379A000000000000000000000000000000000000000000000000000000000 DUP2 MSTORE PUSH1 0x4 ADD PUSH3 0x18AF SWAP1 PUSH3 0x3C29 JUMP JUMPDEST PUSH1 0x40 MLOAD DUP1 SWAP2 SUB SWAP1 REVERT JUMPDEST PUSH1 0x4 PUSH1 0x0 DUP3 DUP2 MSTORE PUSH1 0x20 ADD SWAP1 DUP2 MSTORE PUSH1 0x20 ADD PUSH1 0x0 KECCAK256 PUSH1 0x0 PUSH2 0x100 EXP DUP2 SLOAD SWAP1 PUSH20 0xFFFFFFFFFFFFFFFFFFFFFFFFFFFFFFFFFFFFFFFF MUL NOT AND SWAP1 SSTORE PUSH1 0x1 PUSH1 0x3 PUSH1 0x0 DUP6 PUSH20 0xFFFFFFFFFFFFFFFFFFFFFFFFFFFFFFFFFFFFFFFF AND PUSH20 0xFFFFFFFFFFFFFFFFFFFFFFFFFFFFFFFFFFFFFFFF AND DUP2 MSTORE PUSH1 0x20 ADD SWAP1 DUP2 MSTORE PUSH1 0x20 ADD PUSH1 0x0 KECCAK256 PUSH1 0x0 DUP3 DUP3 SLOAD SUB SWAP3 POP POP DUP2 SWAP1 SSTORE POP PUSH1 0x1 PUSH1 0x3 PUSH1 0x0 DUP5 PUSH20 0xFFFFFFFFFFFFFFFFFFFFFFFFFFFFFFFFFFFFFFFF AND PUSH20 0xFFFFFFFFFFFFFFFFFFFFFFFFFFFFFFFFFFFFFFFF AND DUP2 MSTORE PUSH1 0x20 ADD SWAP1 DUP2 MSTORE PUSH1 0x20 ADD PUSH1 0x0 KECCAK256 PUSH1 0x0 DUP3 DUP3 SLOAD ADD SWAP3 POP POP DUP2 SWAP1 SSTORE POP DUP2 PUSH1 0x2 PUSH1 0x0 DUP4 DUP2 MSTORE PUSH1 0x20 ADD SWAP1 DUP2 MSTORE PUSH1 0x20 ADD PUSH1 0x0 KECCAK256 PUSH1 0x0 PUSH2 0x100 EXP DUP2 SLOAD DUP2 PUSH20 0xFFFFFFFFFFFFFFFFFFFFFFFFFFFFFFFFFFFFFFFF MUL NOT AND SWAP1 DUP4 PUSH20 0xFFFFFFFFFFFFFFFFFFFFFFFFFFFFFFFFFFFFFFFF AND MUL OR SWAP1 SSTORE POP DUP1 DUP3 PUSH20 0xFFFFFFFFFFFFFFFFFFFFFFFFFFFFFFFFFFFFFFFF AND DUP5 PUSH20 0xFFFFFFFFFFFFFFFFFFFFFFFFFFFFFFFFFFFFFFFF AND PUSH32 0xDDF252AD1BE2C89B69C2B068FC378DAA952BA7F163C4A11628F55A4DF523B3EF PUSH1 0x40 MLOAD PUSH1 0x40 MLOAD DUP1 SWAP2 SUB SWAP1 LOG4 PUSH3 0x1A46 DUP4 DUP4 DUP4 PUSH1 0x1 PUSH3 0x1EA7 JUMP JUMPDEST POP POP POP JUMP JUMPDEST PUSH3 0x1A67 DUP3 DUP3 PUSH1 0x40 MLOAD DUP1 PUSH1 0x20 ADD PUSH1 0x40 MSTORE DUP1 PUSH1 0x0 DUP2 MSTORE POP PUSH3 0x1EAD JUMP JUMPDEST POP POP JUMP JUMPDEST PUSH1 0x60 PUSH1 0x40 MLOAD PUSH1 0x20 ADD PUSH1 0x40 MLOAD PUSH1 0x20 DUP2 DUP4 SUB SUB DUP2 MSTORE SWAP1 PUSH1 0x40 MSTORE SWAP1 POP SWAP3 SWAP2 POP POP JUMP JUMPDEST PUSH3 0x1A95 DUP3 PUSH3 0x1E5E JUMP JUMPDEST PUSH3 0x1AD7 JUMPI PUSH1 0x40 MLOAD PUSH32 0x8C379A000000000000000000000000000000000000000000000000000000000 DUP2 MSTORE PUSH1 0x4 ADD PUSH3 0x1ACE SWAP1 PUSH3 0x3D59 JUMP JUMPDEST PUSH1 0x40 MLOAD DUP1 SWAP2 SUB SWAP1 REVERT JUMPDEST DUP1 PUSH1 0x6 PUSH1 0x0 DUP5 DUP2 MSTORE PUSH1 0x20 ADD SWAP1 DUP2 MSTORE PUSH1 0x20 ADD PUSH1 0x0 KECCAK256 SWAP1 DUP2 PUSH3 0x1AF9 SWAP2 SWAP1 PUSH3 0x3F43 JUMP JUMPDEST POP POP POP JUMP JUMPDEST PUSH1 0x0 PUSH1 0x2 PUSH1 0x0 DUP4 DUP2 MSTORE PUSH1 0x20 ADD SWAP1 DUP2 MSTORE PUSH1 0x20 ADD PUSH1 0x0 KECCAK256 PUSH1 0x0 SWAP1 SLOAD SWAP1 PUSH2 0x100 EXP SWAP1 DIV PUSH20 0xFFFFFFFFFFFFFFFFFFFFFFFFFFFFFFFFFFFFFFFF AND SWAP1 POP SWAP2 SWAP1 POP JUMP JUMPDEST PUSH1 0x0 PUSH1 0x7 PUSH1 0x0 SWAP1 SLOAD SWAP1 PUSH2 0x100 EXP SWAP1 DIV PUSH20 0xFFFFFFFFFFFFFFFFFFFFFFFFFFFFFFFFFFFFFFFF AND SWAP1 POP DUP2 PUSH1 0x7 PUSH1 0x0 PUSH2 0x100 EXP DUP2 SLOAD DUP2 PUSH20 0xFFFFFFFFFFFFFFFFFFFFFFFFFFFFFFFFFFFFFFFF MUL NOT AND SWAP1 DUP4 PUSH20 0xFFFFFFFFFFFFFFFFFFFFFFFFFFFFFFFFFFFFFFFF AND MUL OR SWAP1 SSTORE POP DUP2 PUSH20 0xFFFFFFFFFFFFFFFFFFFFFFFFFFFFFFFFFFFFFFFF AND DUP2 PUSH20 0xFFFFFFFFFFFFFFFFFFFFFFFFFFFFFFFFFFFFFFFF AND PUSH32 0x8BE0079C531659141344CD1FD0A4F28419497F9722A3DAAFE3B4186F6B6457E0 PUSH1 0x40 MLOAD PUSH1 0x40 MLOAD DUP1 SWAP2 SUB SWAP1 LOG3 POP POP JUMP JUMPDEST DUP2 PUSH20 0xFFFFFFFFFFFFFFFFFFFFFFFFFFFFFFFFFFFFFFFF AND DUP4 PUSH20 0xFFFFFFFFFFFFFFFFFFFFFFFFFFFFFFFFFFFFFFFF AND SUB PUSH3 0x1C72 JUMPI PUSH1 0x40 MLOAD PUSH32 0x8C379A000000000000000000000000000000000000000000000000000000000 DUP2 MSTORE PUSH1 0x4 ADD PUSH3 0x1C69 SWAP1 PUSH3 0x407A JUMP JUMPDEST PUSH1 0x40 MLOAD DUP1 SWAP2 SUB SWAP1 REVERT JUMPDEST DUP1 PUSH1 0x5 PUSH1 0x0 DUP6 PUSH20 0xFFFFFFFFFFFFFFFFFFFFFFFFFFFFFFFFFFFFFFFF AND PUSH20 0xFFFFFFFFFFFFFFFFFFFFFFFFFFFFFFFFFFFFFFFF AND DUP2 MSTORE PUSH1 0x20 ADD SWAP1 DUP2 MSTORE PUSH1 0x20 ADD PUSH1 0x0 KECCAK256 PUSH1 0x0 DUP5 PUSH20 0xFFFFFFFFFFFFFFFFFFFFFFFFFFFFFFFFFFFFFFFF AND PUSH20 0xFFFFFFFFFFFFFFFFFFFFFFFFFFFFFFFFFFFFFFFF AND DUP2 MSTORE PUSH1 0x20 ADD SWAP1 DUP2 MSTORE PUSH1 0x20 ADD PUSH1 0x0 KECCAK256 PUSH1 0x0 PUSH2 0x100 EXP DUP2 SLOAD DUP2 PUSH1 0xFF MUL NOT AND SWAP1 DUP4 ISZERO ISZERO MUL OR SWAP1 SSTORE POP DUP2 PUSH20 0xFFFFFFFFFFFFFFFFFFFFFFFFFFFFFFFFFFFFFFFF AND DUP4 PUSH20 0xFFFFFFFFFFFFFFFFFFFFFFFFFFFFFFFFFFFFFFFF AND PUSH32 0x17307EAB39AB6107E8899845AD3D59BD9653F200F220920489CA2B5937696C31 DUP4 PUSH1 0x40 MLOAD PUSH3 0x1D65 SWAP2 SWAP1 PUSH3 0x260B JUMP JUMPDEST PUSH1 0x40 MLOAD DUP1 SWAP2 SUB SWAP1 LOG3 POP POP POP JUMP JUMPDEST PUSH3 0x1D7F DUP5 DUP5 DUP5 PUSH3 0x1741 JUMP JUMPDEST PUSH3 0x1D8D DUP5 DUP5 DUP5 DUP5 PUSH3 0x1F0F JUMP JUMPDEST PUSH3 0x1DCF JUMPI PUSH1 0x40 MLOAD PUSH32 0x8C379A000000000000000000000000000000000000000000000000000000000 DUP2 MSTORE PUSH1 0x4 ADD PUSH3 0x1DC6 SWAP1 PUSH3 0x4112 JUMP JUMPDEST PUSH1 0x40 MLOAD DUP1 SWAP2 SUB SWAP1 REVERT JUMPDEST POP POP POP POP JUMP JUMPDEST PUSH1 0x60 PUSH1 0x40 MLOAD DUP1 PUSH1 0x20 ADD PUSH1 0x40 MSTORE DUP1 PUSH1 0x0 DUP2 MSTORE POP SWAP1 POP SWAP1 JUMP JUMPDEST PUSH1 0x60 PUSH3 0x1DF9 DUP3 PUSH3 0x150C JUMP JUMPDEST PUSH1 0x0 PUSH3 0x1E05 PUSH3 0x1DD5 JUMP JUMPDEST SWAP1 POP PUSH1 0x0 DUP2 MLOAD GT PUSH3 0x1E27 JUMPI PUSH1 0x40 MLOAD DUP1 PUSH1 0x20 ADD PUSH1 0x40 MSTORE DUP1 PUSH1 0x0 DUP2 MSTORE POP PUSH3 0x1E56 JUMP JUMPDEST DUP1 PUSH3 0x1E33 DUP5 PUSH3 0x20A7 JUMP JUMPDEST PUSH1 0x40 MLOAD PUSH1 0x20 ADD PUSH3 0x1E46 SWAP3 SWAP2 SWAP1 PUSH3 0x3A81 JUMP JUMPDEST PUSH1 0x40 MLOAD PUSH1 0x20 DUP2 DUP4 SUB SUB DUP2 MSTORE SWAP1 PUSH1 0x40 MSTORE JUMPDEST SWAP2 POP POP SWAP2 SWAP1 POP JUMP JUMPDEST PUSH1 0x0 DUP1 PUSH20 0xFFFFFFFFFFFFFFFFFFFFFFFFFFFFFFFFFFFFFFFF AND PUSH3 0x1E82 DUP4 PUSH3 0x1AFE JUMP JUMPDEST PUSH20 0xFFFFFFFFFFFFFFFFFFFFFFFFFFFFFFFFFFFFFFFF AND EQ ISZERO SWAP1 POP SWAP2 SWAP1 POP JUMP JUMPDEST POP POP POP POP JUMP JUMPDEST POP POP POP POP JUMP JUMPDEST PUSH3 0x1EB9 DUP4 DUP4 PUSH3 0x2180 JUMP JUMPDEST PUSH3 0x1EC8 PUSH1 0x0 DUP5 DUP5 DUP5 PUSH3 0x1F0F JUMP JUMPDEST PUSH3 0x1F0A JUMPI PUSH1 0x40 MLOAD PUSH32 0x8C379A000000000000000000000000000000000000000000000000000000000 DUP2 MSTORE PUSH1 0x4 ADD PUSH3 0x1F01 SWAP1 PUSH3 0x4112 JUMP JUMPDEST PUSH1 0x40 MLOAD DUP1 SWAP2 SUB SWAP1 REVERT JUMPDEST POP POP POP JUMP JUMPDEST PUSH1 0x0 PUSH3 0x1F32 DUP5 PUSH20 0xFFFFFFFFFFFFFFFFFFFFFFFFFFFFFFFFFFFFFFFF AND PUSH3 0x23AE JUMP JUMPDEST ISZERO PUSH3 0x209A JUMPI DUP4 PUSH20 0xFFFFFFFFFFFFFFFFFFFFFFFFFFFFFFFFFFFFFFFF AND PUSH4 0x150B7A02 PUSH3 0x1F5E PUSH3 0x155C JUMP JUMPDEST DUP8 DUP7 DUP7 PUSH1 0x40 MLOAD DUP6 PUSH4 0xFFFFFFFF AND PUSH1 0xE0 SHL DUP2 MSTORE PUSH1 0x4 ADD PUSH3 0x1F82 SWAP5 SWAP4 SWAP3 SWAP2 SWAP1 PUSH3 0x4191 JUMP JUMPDEST PUSH1 0x20 PUSH1 0x40 MLOAD DUP1 DUP4 SUB DUP2 PUSH1 0x0 DUP8 GAS CALL SWAP3 POP POP POP DUP1 ISZERO PUSH3 0x1FC1 JUMPI POP PUSH1 0x40 MLOAD RETURNDATASIZE PUSH1 0x1F NOT PUSH1 0x1F DUP3 ADD AND DUP3 ADD DUP1 PUSH1 0x40 MSTORE POP DUP2 ADD SWAP1 PUSH3 0x1FBE SWAP2 SWAP1 PUSH3 0x41FC JUMP JUMPDEST PUSH1 0x1 JUMPDEST PUSH3 0x2049 JUMPI RETURNDATASIZE DUP1 PUSH1 0x0 DUP2 EQ PUSH3 0x1FF4 JUMPI PUSH1 0x40 MLOAD SWAP2 POP PUSH1 0x1F NOT PUSH1 0x3F RETURNDATASIZE ADD AND DUP3 ADD PUSH1 0x40 MSTORE RETURNDATASIZE DUP3 MSTORE RETURNDATASIZE PUSH1 0x0 PUSH1 0x20 DUP5 ADD RETURNDATACOPY PUSH3 0x1FF9 JUMP JUMPDEST PUSH1 0x60 SWAP2 POP JUMPDEST POP PUSH1 0x0 DUP2 MLOAD SUB PUSH3 0x2041 JUMPI PUSH1 0x40 MLOAD PUSH32 0x8C379A000000000000000000000000000000000000000000000000000000000 DUP2 MSTORE PUSH1 0x4 ADD PUSH3 0x2038 SWAP1 PUSH3 0x4112 JUMP JUMPDEST PUSH1 0x40 MLOAD DUP1 SWAP2 SUB SWAP1 REVERT JUMPDEST DUP1 MLOAD DUP2 PUSH1 0x20 ADD REVERT JUMPDEST PUSH4 0x150B7A02 PUSH1 0xE0 SHL PUSH28 0xFFFFFFFFFFFFFFFFFFFFFFFFFFFFFFFFFFFFFFFFFFFFFFFFFFFFFFFF NOT AND DUP2 PUSH28 0xFFFFFFFFFFFFFFFFFFFFFFFFFFFFFFFFFFFFFFFFFFFFFFFFFFFFFFFF NOT AND EQ SWAP2 POP POP PUSH3 0x209F JUMP JUMPDEST PUSH1 0x1 SWAP1 POP JUMPDEST SWAP5 SWAP4 POP POP POP POP JUMP JUMPDEST PUSH1 0x60 PUSH1 0x0 PUSH1 0x1 PUSH3 0x20B8 DUP5 PUSH3 0x23D1 JUMP JUMPDEST ADD SWAP1 POP PUSH1 0x0 DUP2 PUSH8 0xFFFFFFFFFFFFFFFF DUP2 GT ISZERO PUSH3 0x20DA JUMPI PUSH3 0x20D9 PUSH3 0x2907 JUMP JUMPDEST JUMPDEST PUSH1 0x40 MLOAD SWAP1 DUP1 DUP3 MSTORE DUP1 PUSH1 0x1F ADD PUSH1 0x1F NOT AND PUSH1 0x20 ADD DUP3 ADD PUSH1 0x40 MSTORE DUP1 ISZERO PUSH3 0x210D JUMPI DUP2 PUSH1 0x20 ADD PUSH1 0x1 DUP3 MUL DUP1 CALLDATASIZE DUP4 CALLDATACOPY DUP1 DUP3 ADD SWAP2 POP POP SWAP1 POP JUMPDEST POP SWAP1 POP PUSH1 0x0 DUP3 PUSH1 0x20 ADD DUP3 ADD SWAP1 POP JUMPDEST PUSH1 0x1 ISZERO PUSH3 0x2175 JUMPI DUP1 DUP1 PUSH1 0x1 SWAP1 SUB SWAP2 POP POP PUSH32 0x3031323334353637383961626364656600000000000000000000000000000000 PUSH1 0xA DUP7 MOD BYTE DUP2 MSTORE8 PUSH1 0xA DUP6 DUP2 PUSH3 0x2168 JUMPI PUSH3 0x2167 PUSH3 0x422E JUMP JUMPDEST JUMPDEST DIV SWAP5 POP PUSH1 0x0 DUP6 SUB PUSH3 0x211B JUMPI JUMPDEST DUP2 SWAP4 POP POP POP POP SWAP2 SWAP1 POP JUMP JUMPDEST PUSH1 0x0 PUSH20 0xFFFFFFFFFFFFFFFFFFFFFFFFFFFFFFFFFFFFFFFF AND DUP3 PUSH20 0xFFFFFFFFFFFFFFFFFFFFFFFFFFFFFFFFFFFFFFFF AND SUB PUSH3 0x21F2 JUMPI PUSH1 0x40 MLOAD PUSH32 0x8C379A000000000000000000000000000000000000000000000000000000000 DUP2 MSTORE PUSH1 0x4 ADD PUSH3 0x21E9 SWAP1 PUSH3 0x42AD JUMP JUMPDEST PUSH1 0x40 MLOAD DUP1 SWAP2 SUB SWAP1 REVERT JUMPDEST PUSH3 0x21FD DUP2 PUSH3 0x1E5E JUMP JUMPDEST ISZERO PUSH3 0x2240 JUMPI PUSH1 0x40 MLOAD PUSH32 0x8C379A000000000000000000000000000000000000000000000000000000000 DUP2 MSTORE PUSH1 0x4 ADD PUSH3 0x2237 SWAP1 PUSH3 0x431F JUMP JUMPDEST PUSH1 0x40 MLOAD DUP1 SWAP2 SUB SWAP1 REVERT JUMPDEST PUSH3 0x2250 PUSH1 0x0 DUP4 DUP4 PUSH1 0x1 PUSH3 0x1EA1 JUMP JUMPDEST PUSH3 0x225B DUP2 PUSH3 0x1E5E JUMP JUMPDEST ISZERO PUSH3 0x229E JUMPI PUSH1 0x40 MLOAD PUSH32 0x8C379A000000000000000000000000000000000000000000000000000000000 DUP2 MSTORE PUSH1 0x4 ADD PUSH3 0x2295 SWAP1 PUSH3 0x431F JUMP JUMPDEST PUSH1 0x40 MLOAD DUP1 SWAP2 SUB SWAP1 REVERT JUMPDEST PUSH1 0x1 PUSH1 0x3 PUSH1 0x0 DUP5 PUSH20 0xFFFFFFFFFFFFFFFFFFFFFFFFFFFFFFFFFFFFFFFF AND PUSH20 0xFFFFFFFFFFFFFFFFFFFFFFFFFFFFFFFFFFFFFFFF AND DUP2 MSTORE PUSH1 0x20 ADD SWAP1 DUP2 MSTORE PUSH1 0x20 ADD PUSH1 0x0 KECCAK256 PUSH1 0x0 DUP3 DUP3 SLOAD ADD SWAP3 POP POP DUP2 SWAP1 SSTORE POP DUP2 PUSH1 0x2 PUSH1 0x0 DUP4 DUP2 MSTORE PUSH1 0x20 ADD SWAP1 DUP2 MSTORE PUSH1 0x20 ADD PUSH1 0x0 KECCAK256 PUSH1 0x0 PUSH2 0x100 EXP DUP2 SLOAD DUP2 PUSH20 0xFFFFFFFFFFFFFFFFFFFFFFFFFFFFFFFFFFFFFFFF MUL NOT AND SWAP1 DUP4 PUSH20 0xFFFFFFFFFFFFFFFFFFFFFFFFFFFFFFFFFFFFFFFF AND MUL OR SWAP1 SSTORE POP DUP1 DUP3 PUSH20 0xFFFFFFFFFFFFFFFFFFFFFFFFFFFFFFFFFFFFFFFF AND PUSH1 0x0 PUSH20 0xFFFFFFFFFFFFFFFFFFFFFFFFFFFFFFFFFFFFFFFF AND PUSH32 0xDDF252AD1BE2C89B69C2B068FC378DAA952BA7F163C4A11628F55A4DF523B3EF PUSH1 0x40 MLOAD PUSH1 0x40 MLOAD DUP1 SWAP2 SUB SWAP1 LOG4 PUSH3 0x23AA PUSH1 0x0 DUP4 DUP4 PUSH1 0x1 PUSH3 0x1EA7 JUMP JUMPDEST POP POP JUMP JUMPDEST PUSH1 0x0 DUP1 DUP3 PUSH20 0xFFFFFFFFFFFFFFFFFFFFFFFFFFFFFFFFFFFFFFFF AND EXTCODESIZE GT SWAP1 POP SWAP2 SWAP1 POP JUMP JUMPDEST PUSH1 0x0 DUP1 PUSH1 0x0 SWAP1 POP PUSH27 0x184F03E93FF9F4DAA797ED6E38ED64BF6A1F010000000000000000 DUP4 LT PUSH3 0x2433 JUMPI PUSH27 0x184F03E93FF9F4DAA797ED6E38ED64BF6A1F010000000000000000 DUP4 DUP2 PUSH3 0x2429 JUMPI PUSH3 0x2428 PUSH3 0x422E JUMP JUMPDEST JUMPDEST DIV SWAP3 POP PUSH1 0x40 DUP2 ADD SWAP1 POP JUMPDEST PUSH14 0x4EE2D6D415B85ACEF8100000000 DUP4 LT PUSH3 0x2474 JUMPI PUSH14 0x4EE2D6D415B85ACEF8100000000 DUP4 DUP2 PUSH3 0x246A JUMPI PUSH3 0x2469 PUSH3 0x422E JUMP JUMPDEST JUMPDEST DIV SWAP3 POP PUSH1 0x20 DUP2 ADD SWAP1 POP JUMPDEST PUSH7 0x2386F26FC10000 DUP4 LT PUSH3 0x24A7 JUMPI PUSH7 0x2386F26FC10000 DUP4 DUP2 PUSH3 0x249D JUMPI PUSH3 0x249C PUSH3 0x422E JUMP JUMPDEST JUMPDEST DIV SWAP3 POP PUSH1 0x10 DUP2 ADD SWAP1 POP JUMPDEST PUSH4 0x5F5E100 DUP4 LT PUSH3 0x24D4 JUMPI PUSH4 0x5F5E100 DUP4 DUP2 PUSH3 0x24CA JUMPI PUSH3 0x24C9 PUSH3 0x422E JUMP JUMPDEST JUMPDEST DIV SWAP3 POP PUSH1 0x8 DUP2 ADD SWAP1 POP JUMPDEST PUSH2 0x2710 DUP4 LT PUSH3 0x24FD JUMPI PUSH2 0x2710 DUP4 DUP2 PUSH3 0x24F3 JUMPI PUSH3 0x24F2 PUSH3 0x422E JUMP JUMPDEST JUMPDEST DIV SWAP3 POP PUSH1 0x4 DUP2 ADD SWAP1 POP JUMPDEST PUSH1 0x64 DUP4 LT PUSH3 0x2524 JUMPI PUSH1 0x64 DUP4 DUP2 PUSH3 0x251A JUMPI PUSH3 0x2519 PUSH3 0x422E JUMP JUMPDEST JUMPDEST DIV SWAP3 POP PUSH1 0x2 DUP2 ADD SWAP1 POP JUMPDEST PUSH1 0xA DUP4 LT PUSH3 0x2534 JUMPI PUSH1 0x1 DUP2 ADD SWAP1 POP JUMPDEST DUP1 SWAP2 POP POP SWAP2 SWAP1 POP JUMP JUMPDEST PUSH2 0x1272 DUP1 PUSH3 0x4342 DUP4 CODECOPY ADD SWAP1 JUMP JUMPDEST PUSH1 0x0 PUSH1 0x40 MLOAD SWAP1 POP SWAP1 JUMP JUMPDEST PUSH1 0x0 DUP1 REVERT JUMPDEST PUSH1 0x0 DUP1 REVERT JUMPDEST PUSH1 0x0 PUSH32 0xFFFFFFFF00000000000000000000000000000000000000000000000000000000 DUP3 AND SWAP1 POP SWAP2 SWAP1 POP JUMP JUMPDEST PUSH3 0x2596 DUP2 PUSH3 0x255F JUMP JUMPDEST DUP2 EQ PUSH3 0x25A2 JUMPI PUSH1 0x0 DUP1 REVERT JUMPDEST POP JUMP JUMPDEST PUSH1 0x0 DUP2 CALLDATALOAD SWAP1 POP PUSH3 0x25B6 DUP2 PUSH3 0x258B JUMP JUMPDEST SWAP3 SWAP2 POP POP JUMP JUMPDEST PUSH1 0x0 PUSH1 0x20 DUP3 DUP5 SUB SLT ISZERO PUSH3 0x25D5 JUMPI PUSH3 0x25D4 PUSH3 0x2555 JUMP JUMPDEST JUMPDEST PUSH1 0x0 PUSH3 0x25E5 DUP5 DUP3 DUP6 ADD PUSH3 0x25A5 JUMP JUMPDEST SWAP2 POP POP SWAP3 SWAP2 POP POP JUMP JUMPDEST PUSH1 0x0 DUP2 ISZERO ISZERO SWAP1 POP SWAP2 SWAP1 POP JUMP JUMPDEST PUSH3 0x2605 DUP2 PUSH3 0x25EE JUMP JUMPDEST DUP3 MSTORE POP POP JUMP JUMPDEST PUSH1 0x0 PUSH1 0x20 DUP3 ADD SWAP1 POP PUSH3 0x2622 PUSH1 0x0 DUP4 ADD DUP5 PUSH3 0x25FA JUMP JUMPDEST SWAP3 SWAP2 POP POP JUMP JUMPDEST PUSH1 0x0 DUP2 MLOAD SWAP1 POP SWAP2 SWAP1 POP JUMP JUMPDEST PUSH1 0x0 DUP3 DUP3 MSTORE PUSH1 0x20 DUP3 ADD SWAP1 POP SWAP3 SWAP2 POP POP JUMP JUMPDEST PUSH1 0x0 JUMPDEST DUP4 DUP2 LT ISZERO PUSH3 0x2664 JUMPI DUP1 DUP3 ADD MLOAD DUP2 DUP5 ADD MSTORE PUSH1 0x20 DUP2 ADD SWAP1 POP PUSH3 0x2647 JUMP JUMPDEST PUSH1 0x0 DUP5 DUP5 ADD MSTORE POP POP POP POP JUMP JUMPDEST PUSH1 0x0 PUSH1 0x1F NOT PUSH1 0x1F DUP4 ADD AND SWAP1 POP SWAP2 SWAP1 POP JUMP JUMPDEST PUSH1 0x0 PUSH3 0x268E DUP3 PUSH3 0x2628 JUMP JUMPDEST PUSH3 0x269A DUP2 DUP6 PUSH3 0x2633 JUMP JUMPDEST SWAP4 POP PUSH3 0x26AC DUP2 DUP6 PUSH1 0x20 DUP7 ADD PUSH3 0x2644 JUMP JUMPDEST PUSH3 0x26B7 DUP2 PUSH3 0x2670 JUMP JUMPDEST DUP5 ADD SWAP2 POP POP SWAP3 SWAP2 POP POP JUMP JUMPDEST PUSH1 0x0 PUSH1 0x20 DUP3 ADD SWAP1 POP DUP2 DUP2 SUB PUSH1 0x0 DUP4 ADD MSTORE PUSH3 0x26DE DUP2 DUP5 PUSH3 0x2681 JUMP JUMPDEST SWAP1 POP SWAP3 SWAP2 POP POP JUMP JUMPDEST PUSH1 0x0 DUP2 SWAP1 POP SWAP2 SWAP1 POP JUMP JUMPDEST PUSH3 0x26FB DUP2 PUSH3 0x26E6 JUMP JUMPDEST DUP2 EQ PUSH3 0x2707 JUMPI PUSH1 0x0 DUP1 REVERT JUMPDEST POP JUMP JUMPDEST PUSH1 0x0 DUP2 CALLDATALOAD SWAP1 POP PUSH3 0x271B DUP2 PUSH3 0x26F0 JUMP JUMPDEST SWAP3 SWAP2 POP POP JUMP JUMPDEST PUSH1 0x0 PUSH1 0x20 DUP3 DUP5 SUB SLT ISZERO PUSH3 0x273A JUMPI PUSH3 0x2739 PUSH3 0x2555 JUMP JUMPDEST JUMPDEST PUSH1 0x0 PUSH3 0x274A DUP5 DUP3 DUP6 ADD PUSH3 0x270A JUMP JUMPDEST SWAP2 POP POP SWAP3 SWAP2 POP POP JUMP JUMPDEST PUSH1 0x0 PUSH20 0xFFFFFFFFFFFFFFFFFFFFFFFFFFFFFFFFFFFFFFFF DUP3 AND SWAP1 POP SWAP2 SWAP1 POP JUMP JUMPDEST PUSH1 0x0 PUSH3 0x2780 DUP3 PUSH3 0x2753 JUMP JUMPDEST SWAP1 POP SWAP2 SWAP1 POP JUMP JUMPDEST PUSH3 0x2792 DUP2 PUSH3 0x2773 JUMP JUMPDEST DUP3 MSTORE POP POP JUMP JUMPDEST PUSH1 0x0 PUSH1 0x20 DUP3 ADD SWAP1 POP PUSH3 0x27AF PUSH1 0x0 DUP4 ADD DUP5 PUSH3 0x2787 JUMP JUMPDEST SWAP3 SWAP2 POP POP JUMP JUMPDEST PUSH3 0x27C0 DUP2 PUSH3 0x2773 JUMP JUMPDEST DUP2 EQ PUSH3 0x27CC JUMPI PUSH1 0x0 DUP1 REVERT JUMPDEST POP JUMP JUMPDEST PUSH1 0x0 DUP2 CALLDATALOAD SWAP1 POP PUSH3 0x27E0 DUP2 PUSH3 0x27B5 JUMP JUMPDEST SWAP3 SWAP2 POP POP JUMP JUMPDEST PUSH1 0x0 DUP1 PUSH1 0x40 DUP4 DUP6 SUB SLT ISZERO PUSH3 0x2800 JUMPI PUSH3 0x27FF PUSH3 0x2555 JUMP JUMPDEST JUMPDEST PUSH1 0x0 PUSH3 0x2810 DUP6 DUP3 DUP7 ADD PUSH3 0x27CF JUMP JUMPDEST SWAP3 POP POP PUSH1 0x20 PUSH3 0x2823 DUP6 DUP3 DUP7 ADD PUSH3 0x270A JUMP JUMPDEST SWAP2 POP POP SWAP3 POP SWAP3 SWAP1 POP JUMP JUMPDEST PUSH1 0x0 PUSH1 0x20 DUP3 DUP5 SUB SLT ISZERO PUSH3 0x2846 JUMPI PUSH3 0x2845 PUSH3 0x2555 JUMP JUMPDEST JUMPDEST PUSH1 0x0 PUSH3 0x2856 DUP5 DUP3 DUP6 ADD PUSH3 0x27CF JUMP JUMPDEST SWAP2 POP POP SWAP3 SWAP2 POP POP JUMP JUMPDEST PUSH1 0x0 DUP1 PUSH1 0x0 PUSH1 0x60 DUP5 DUP7 SUB SLT ISZERO PUSH3 0x287B JUMPI PUSH3 0x287A PUSH3 0x2555 JUMP JUMPDEST JUMPDEST PUSH1 0x0 PUSH3 0x288B DUP7 DUP3 DUP8 ADD PUSH3 0x27CF JUMP JUMPDEST SWAP4 POP POP PUSH1 0x20 PUSH3 0x289E DUP7 DUP3 DUP8 ADD PUSH3 0x27CF JUMP JUMPDEST SWAP3 POP POP PUSH1 0x40 PUSH3 0x28B1 DUP7 DUP3 DUP8 ADD PUSH3 0x270A JUMP JUMPDEST SWAP2 POP POP SWAP3 POP SWAP3 POP SWAP3 JUMP JUMPDEST PUSH1 0x0 DUP1 PUSH1 0x40 DUP4 DUP6 SUB SLT ISZERO PUSH3 0x28D5 JUMPI PUSH3 0x28D4 PUSH3 0x2555 JUMP JUMPDEST JUMPDEST PUSH1 0x0 PUSH3 0x28E5 DUP6 DUP3 DUP7 ADD PUSH3 0x270A JUMP JUMPDEST SWAP3 POP POP PUSH1 0x20 PUSH3 0x28F8 DUP6 DUP3 DUP7 ADD PUSH3 0x27CF JUMP JUMPDEST SWAP2 POP POP SWAP3 POP SWAP3 SWAP1 POP JUMP JUMPDEST PUSH1 0x0 DUP1 REVERT JUMPDEST PUSH32 0x4E487B7100000000000000000000000000000000000000000000000000000000 PUSH1 0x0 MSTORE PUSH1 0x41 PUSH1 0x4 MSTORE PUSH1 0x24 PUSH1 0x0 REVERT JUMPDEST PUSH3 0x2941 DUP3 PUSH3 0x2670 JUMP JUMPDEST DUP2 ADD DUP2 DUP2 LT PUSH8 0xFFFFFFFFFFFFFFFF DUP3 GT OR ISZERO PUSH3 0x2963 JUMPI PUSH3 0x2962 PUSH3 0x2907 JUMP JUMPDEST JUMPDEST DUP1 PUSH1 0x40 MSTORE POP POP POP JUMP JUMPDEST PUSH1 0x0 PUSH3 0x2978 PUSH3 0x254B JUMP JUMPDEST SWAP1 POP PUSH3 0x2986 DUP3 DUP3 PUSH3 0x2936 JUMP JUMPDEST SWAP2 SWAP1 POP JUMP JUMPDEST PUSH1 0x0 PUSH8 0xFFFFFFFFFFFFFFFF DUP3 GT ISZERO PUSH3 0x29A9 JUMPI PUSH3 0x29A8 PUSH3 0x2907 JUMP JUMPDEST JUMPDEST PUSH1 0x20 DUP3 MUL SWAP1 POP PUSH1 0x20 DUP2 ADD SWAP1 POP SWAP2 SWAP1 POP JUMP JUMPDEST PUSH1 0x0 DUP1 REVERT JUMPDEST PUSH1 0x0 DUP1 REVERT JUMPDEST PUSH1 0x0 PUSH8 0xFFFFFFFFFFFFFFFF DUP3 GT ISZERO PUSH3 0x29E2 JUMPI PUSH3 0x29E1 PUSH3 0x2907 JUMP JUMPDEST JUMPDEST PUSH3 0x29ED DUP3 PUSH3 0x2670 JUMP JUMPDEST SWAP1 POP PUSH1 0x20 DUP2 ADD SWAP1 POP SWAP2 SWAP1 POP JUMP JUMPDEST DUP3 DUP2 DUP4 CALLDATACOPY PUSH1 0x0 DUP4 DUP4 ADD MSTORE POP POP POP JUMP JUMPDEST PUSH1 0x0 PUSH3 0x2A20 PUSH3 0x2A1A DUP5 PUSH3 0x29C4 JUMP JUMPDEST PUSH3 0x296C JUMP JUMPDEST SWAP1 POP DUP3 DUP2 MSTORE PUSH1 0x20 DUP2 ADD DUP5 DUP5 DUP5 ADD GT ISZERO PUSH3 0x2A3F JUMPI PUSH3 0x2A3E PUSH3 0x29BF JUMP JUMPDEST JUMPDEST PUSH3 0x2A4C DUP5 DUP3 DUP6 PUSH3 0x29FA JUMP JUMPDEST POP SWAP4 SWAP3 POP POP POP JUMP JUMPDEST PUSH1 0x0 DUP3 PUSH1 0x1F DUP4 ADD SLT PUSH3 0x2A6C JUMPI PUSH3 0x2A6B PUSH3 0x2902 JUMP JUMPDEST JUMPDEST DUP2 CALLDATALOAD PUSH3 0x2A7E DUP5 DUP3 PUSH1 0x20 DUP7 ADD PUSH3 0x2A09 JUMP JUMPDEST SWAP2 POP POP SWAP3 SWAP2 POP POP JUMP JUMPDEST PUSH1 0x0 PUSH3 0x2A9E PUSH3 0x2A98 DUP5 PUSH3 0x298B JUMP JUMPDEST PUSH3 0x296C JUMP JUMPDEST SWAP1 POP DUP1 DUP4 DUP3 MSTORE PUSH1 0x20 DUP3 ADD SWAP1 POP PUSH1 0x20 DUP5 MUL DUP4 ADD DUP6 DUP2 GT ISZERO PUSH3 0x2AC4 JUMPI PUSH3 0x2AC3 PUSH3 0x29BA JUMP JUMPDEST JUMPDEST DUP4 JUMPDEST DUP2 DUP2 LT ISZERO PUSH3 0x2B12 JUMPI DUP1 CALLDATALOAD PUSH8 0xFFFFFFFFFFFFFFFF DUP2 GT ISZERO PUSH3 0x2AED JUMPI PUSH3 0x2AEC PUSH3 0x2902 JUMP JUMPDEST JUMPDEST DUP1 DUP7 ADD PUSH3 0x2AFC DUP10 DUP3 PUSH3 0x2A54 JUMP JUMPDEST DUP6 MSTORE PUSH1 0x20 DUP6 ADD SWAP5 POP POP POP PUSH1 0x20 DUP2 ADD SWAP1 POP PUSH3 0x2AC6 JUMP JUMPDEST POP POP POP SWAP4 SWAP3 POP POP POP JUMP JUMPDEST PUSH1 0x0 DUP3 PUSH1 0x1F DUP4 ADD SLT PUSH3 0x2B34 JUMPI PUSH3 0x2B33 PUSH3 0x2902 JUMP JUMPDEST JUMPDEST DUP2 CALLDATALOAD PUSH3 0x2B46 DUP5 DUP3 PUSH1 0x20 DUP7 ADD PUSH3 0x2A87 JUMP JUMPDEST SWAP2 POP POP SWAP3 SWAP2 POP POP JUMP JUMPDEST PUSH1 0x0 DUP1 PUSH1 0x0 PUSH1 0x60 DUP5 DUP7 SUB SLT ISZERO PUSH3 0x2B6B JUMPI PUSH3 0x2B6A PUSH3 0x2555 JUMP JUMPDEST JUMPDEST PUSH1 0x0 PUSH3 0x2B7B DUP7 DUP3 DUP8 ADD PUSH3 0x27CF JUMP JUMPDEST SWAP4 POP POP PUSH1 0x20 DUP5 ADD CALLDATALOAD PUSH8 0xFFFFFFFFFFFFFFFF DUP2 GT ISZERO PUSH3 0x2B9F JUMPI PUSH3 0x2B9E PUSH3 0x255A JUMP JUMPDEST JUMPDEST PUSH3 0x2BAD DUP7 DUP3 DUP8 ADD PUSH3 0x2B1C JUMP JUMPDEST SWAP3 POP POP PUSH1 0x40 DUP5 ADD CALLDATALOAD PUSH8 0xFFFFFFFFFFFFFFFF DUP2 GT ISZERO PUSH3 0x2BD1 JUMPI PUSH3 0x2BD0 PUSH3 0x255A JUMP JUMPDEST JUMPDEST PUSH3 0x2BDF DUP7 DUP3 DUP8 ADD PUSH3 0x2B1C JUMP JUMPDEST SWAP2 POP POP SWAP3 POP SWAP3 POP SWAP3 JUMP JUMPDEST PUSH1 0x0 DUP2 MLOAD SWAP1 POP SWAP2 SWAP1 POP JUMP JUMPDEST PUSH1 0x0 DUP3 DUP3 MSTORE PUSH1 0x20 DUP3 ADD SWAP1 POP SWAP3 SWAP2 POP POP JUMP JUMPDEST PUSH1 0x0 DUP2 SWAP1 POP PUSH1 0x20 DUP3 ADD SWAP1 POP SWAP2 SWAP1 POP JUMP JUMPDEST PUSH3 0x2C20 DUP2 PUSH3 0x26E6 JUMP JUMPDEST DUP3 MSTORE POP POP JUMP JUMPDEST PUSH1 0x0 PUSH3 0x2C34 DUP4 DUP4 PUSH3 0x2C15 JUMP JUMPDEST PUSH1 0x20 DUP4 ADD SWAP1 POP SWAP3 SWAP2 POP POP JUMP JUMPDEST PUSH1 0x0 PUSH1 0x20 DUP3 ADD SWAP1 POP SWAP2 SWAP1 POP JUMP JUMPDEST PUSH1 0x0 PUSH3 0x2C5A DUP3 PUSH3 0x2BE9 JUMP JUMPDEST PUSH3 0x2C66 DUP2 DUP6 PUSH3 0x2BF4 JUMP JUMPDEST SWAP4 POP PUSH3 0x2C73 DUP4 PUSH3 0x2C05 JUMP JUMPDEST DUP1 PUSH1 0x0 JUMPDEST DUP4 DUP2 LT ISZERO PUSH3 0x2CAA JUMPI DUP2 MLOAD PUSH3 0x2C8E DUP9 DUP3 PUSH3 0x2C26 JUMP JUMPDEST SWAP8 POP PUSH3 0x2C9B DUP4 PUSH3 0x2C40 JUMP JUMPDEST SWAP3 POP POP PUSH1 0x1 DUP2 ADD SWAP1 POP PUSH3 0x2C77 JUMP JUMPDEST POP DUP6 SWAP4 POP POP POP POP SWAP3 SWAP2 POP POP JUMP JUMPDEST PUSH1 0x0 PUSH1 0x20 DUP3 ADD SWAP1 POP DUP2 DUP2 SUB PUSH1 0x0 DUP4 ADD MSTORE PUSH3 0x2CD3 DUP2 DUP5 PUSH3 0x2C4D JUMP JUMPDEST SWAP1 POP SWAP3 SWAP2 POP POP JUMP JUMPDEST PUSH3 0x2CE6 DUP2 PUSH3 0x26E6 JUMP JUMPDEST DUP3 MSTORE POP POP JUMP JUMPDEST PUSH1 0x0 PUSH1 0x20 DUP3 ADD SWAP1 POP PUSH3 0x2D03 PUSH1 0x0 DUP4 ADD DUP5 PUSH3 0x2CDB JUMP JUMPDEST SWAP3 SWAP2 POP POP JUMP JUMPDEST PUSH1 0x0 PUSH8 0xFFFFFFFFFFFFFFFF DUP3 GT ISZERO PUSH3 0x2D27 JUMPI PUSH3 0x2D26 PUSH3 0x2907 JUMP JUMPDEST JUMPDEST PUSH1 0x20 DUP3 MUL SWAP1 POP PUSH1 0x20 DUP2 ADD SWAP1 POP SWAP2 SWAP1 POP JUMP JUMPDEST PUSH1 0x0 PUSH3 0x2D4F PUSH3 0x2D49 DUP5 PUSH3 0x2D09 JUMP JUMPDEST PUSH3 0x296C JUMP JUMPDEST SWAP1 POP DUP1 DUP4 DUP3 MSTORE PUSH1 0x20 DUP3 ADD SWAP1 POP PUSH1 0x20 DUP5 MUL DUP4 ADD DUP6 DUP2 GT ISZERO PUSH3 0x2D75 JUMPI PUSH3 0x2D74 PUSH3 0x29BA JUMP JUMPDEST JUMPDEST DUP4 JUMPDEST DUP2 DUP2 LT ISZERO PUSH3 0x2DA2 JUMPI DUP1 PUSH3 0x2D8D DUP9 DUP3 PUSH3 0x270A JUMP JUMPDEST DUP5 MSTORE PUSH1 0x20 DUP5 ADD SWAP4 POP POP PUSH1 0x20 DUP2 ADD SWAP1 POP PUSH3 0x2D77 JUMP JUMPDEST POP POP POP SWAP4 SWAP3 POP POP POP JUMP JUMPDEST PUSH1 0x0 DUP3 PUSH1 0x1F DUP4 ADD SLT PUSH3 0x2DC4 JUMPI PUSH3 0x2DC3 PUSH3 0x2902 JUMP JUMPDEST JUMPDEST DUP2 CALLDATALOAD PUSH3 0x2DD6 DUP5 DUP3 PUSH1 0x20 DUP7 ADD PUSH3 0x2D38 JUMP JUMPDEST SWAP2 POP POP SWAP3 SWAP2 POP POP JUMP JUMPDEST PUSH1 0x0 PUSH8 0xFFFFFFFFFFFFFFFF DUP3 GT ISZERO PUSH3 0x2DFD JUMPI PUSH3 0x2DFC PUSH3 0x2907 JUMP JUMPDEST JUMPDEST PUSH1 0x20 DUP3 MUL SWAP1 POP PUSH1 0x20 DUP2 ADD SWAP1 POP SWAP2 SWAP1 POP JUMP JUMPDEST PUSH1 0x0 PUSH3 0x2E25 PUSH3 0x2E1F DUP5 PUSH3 0x2DDF JUMP JUMPDEST PUSH3 0x296C JUMP JUMPDEST SWAP1 POP DUP1 DUP4 DUP3 MSTORE PUSH1 0x20 DUP3 ADD SWAP1 POP PUSH1 0x20 DUP5 MUL DUP4 ADD DUP6 DUP2 GT ISZERO PUSH3 0x2E4B JUMPI PUSH3 0x2E4A PUSH3 0x29BA JUMP JUMPDEST JUMPDEST DUP4 JUMPDEST DUP2 DUP2 LT ISZERO PUSH3 0x2E78 JUMPI DUP1 PUSH3 0x2E63 DUP9 DUP3 PUSH3 0x27CF JUMP JUMPDEST DUP5 MSTORE PUSH1 0x20 DUP5 ADD SWAP4 POP POP PUSH1 0x20 DUP2 ADD SWAP1 POP PUSH3 0x2E4D JUMP JUMPDEST POP POP POP SWAP4 SWAP3 POP POP POP JUMP JUMPDEST PUSH1 0x0 DUP3 PUSH1 0x1F DUP4 ADD SLT PUSH3 0x2E9A JUMPI PUSH3 0x2E99 PUSH3 0x2902 JUMP JUMPDEST JUMPDEST DUP2 CALLDATALOAD PUSH3 0x2EAC DUP5 DUP3 PUSH1 0x20 DUP7 ADD PUSH3 0x2E0E JUMP JUMPDEST SWAP2 POP POP SWAP3 SWAP2 POP POP JUMP JUMPDEST PUSH1 0x0 DUP1 PUSH1 0x0 DUP1 PUSH1 0x0 DUP1 PUSH1 0xC0 DUP8 DUP10 SUB SLT ISZERO PUSH3 0x2ED5 JUMPI PUSH3 0x2ED4 PUSH3 0x2555 JUMP JUMPDEST JUMPDEST PUSH1 0x0 DUP8 ADD CALLDATALOAD PUSH8 0xFFFFFFFFFFFFFFFF DUP2 GT ISZERO PUSH3 0x2EF6 JUMPI PUSH3 0x2EF5 PUSH3 0x255A JUMP JUMPDEST JUMPDEST PUSH3 0x2F04 DUP10 DUP3 DUP11 ADD PUSH3 0x2DAC JUMP JUMPDEST SWAP7 POP POP PUSH1 0x20 DUP8 ADD CALLDATALOAD PUSH8 0xFFFFFFFFFFFFFFFF DUP2 GT ISZERO PUSH3 0x2F28 JUMPI PUSH3 0x2F27 PUSH3 0x255A JUMP JUMPDEST JUMPDEST PUSH3 0x2F36 DUP10 DUP3 DUP11 ADD PUSH3 0x2E82 JUMP JUMPDEST SWAP6 POP POP PUSH1 0x40 DUP8 ADD CALLDATALOAD PUSH8 0xFFFFFFFFFFFFFFFF DUP2 GT ISZERO PUSH3 0x2F5A JUMPI PUSH3 0x2F59 PUSH3 0x255A JUMP JUMPDEST JUMPDEST PUSH3 0x2F68 DUP10 DUP3 DUP11 ADD PUSH3 0x2E82 JUMP JUMPDEST SWAP5 POP POP PUSH1 0x60 DUP8 ADD CALLDATALOAD PUSH8 0xFFFFFFFFFFFFFFFF DUP2 GT ISZERO PUSH3 0x2F8C JUMPI PUSH3 0x2F8B PUSH3 0x255A JUMP JUMPDEST JUMPDEST PUSH3 0x2F9A DUP10 DUP3 DUP11 ADD PUSH3 0x2DAC JUMP JUMPDEST SWAP4 POP POP PUSH1 0x80 DUP8 ADD CALLDATALOAD PUSH8 0xFFFFFFFFFFFFFFFF DUP2 GT ISZERO PUSH3 0x2FBE JUMPI PUSH3 0x2FBD PUSH3 0x255A JUMP JUMPDEST JUMPDEST PUSH3 0x2FCC DUP10 DUP3 DUP11 ADD PUSH3 0x2E82 JUMP JUMPDEST SWAP3 POP POP PUSH1 0xA0 PUSH3 0x2FDF DUP10 DUP3 DUP11 ADD PUSH3 0x27CF JUMP JUMPDEST SWAP2 POP POP SWAP3 SWAP6 POP SWAP3 SWAP6 POP SWAP3 SWAP6 JUMP JUMPDEST PUSH3 0x2FF7 DUP2 PUSH3 0x25EE JUMP JUMPDEST DUP2 EQ PUSH3 0x3003 JUMPI PUSH1 0x0 DUP1 REVERT JUMPDEST POP JUMP JUMPDEST PUSH1 0x0 DUP2 CALLDATALOAD SWAP1 POP PUSH3 0x3017 DUP2 PUSH3 0x2FEC JUMP JUMPDEST SWAP3 SWAP2 POP POP JUMP JUMPDEST PUSH1 0x0 DUP1 PUSH1 0x40 DUP4 DUP6 SUB SLT ISZERO PUSH3 0x3037 JUMPI PUSH3 0x3036 PUSH3 0x2555 JUMP JUMPDEST JUMPDEST PUSH1 0x0 PUSH3 0x3047 DUP6 DUP3 DUP7 ADD PUSH3 0x27CF JUMP JUMPDEST SWAP3 POP POP PUSH1 0x20 PUSH3 0x305A DUP6 DUP3 DUP7 ADD PUSH3 0x3006 JUMP JUMPDEST SWAP2 POP POP SWAP3 POP SWAP3 SWAP1 POP JUMP JUMPDEST PUSH1 0x0 PUSH8 0xFFFFFFFFFFFFFFFF DUP3 GT ISZERO PUSH3 0x3082 JUMPI PUSH3 0x3081 PUSH3 0x2907 JUMP JUMPDEST JUMPDEST PUSH3 0x308D DUP3 PUSH3 0x2670 JUMP JUMPDEST SWAP1 POP PUSH1 0x20 DUP2 ADD SWAP1 POP SWAP2 SWAP1 POP JUMP JUMPDEST PUSH1 0x0 PUSH3 0x30B1 PUSH3 0x30AB DUP5 PUSH3 0x3064 JUMP JUMPDEST PUSH3 0x296C JUMP JUMPDEST SWAP1 POP DUP3 DUP2 MSTORE PUSH1 0x20 DUP2 ADD DUP5 DUP5 DUP5 ADD GT ISZERO PUSH3 0x30D0 JUMPI PUSH3 0x30CF PUSH3 0x29BF JUMP JUMPDEST JUMPDEST PUSH3 0x30DD DUP5 DUP3 DUP6 PUSH3 0x29FA JUMP JUMPDEST POP SWAP4 SWAP3 POP POP POP JUMP JUMPDEST PUSH1 0x0 DUP3 PUSH1 0x1F DUP4 ADD SLT PUSH3 0x30FD JUMPI PUSH3 0x30FC PUSH3 0x2902 JUMP JUMPDEST JUMPDEST DUP2 CALLDATALOAD PUSH3 0x310F DUP5 DUP3 PUSH1 0x20 DUP7 ADD PUSH3 0x309A JUMP JUMPDEST SWAP2 POP POP SWAP3 SWAP2 POP POP JUMP JUMPDEST PUSH1 0x0 DUP1 PUSH1 0x0 DUP1 PUSH1 0x80 DUP6 DUP8 SUB SLT ISZERO PUSH3 0x3135 JUMPI PUSH3 0x3134 PUSH3 0x2555 JUMP JUMPDEST JUMPDEST PUSH1 0x0 PUSH3 0x3145 DUP8 DUP3 DUP9 ADD PUSH3 0x27CF JUMP JUMPDEST SWAP5 POP POP PUSH1 0x20 PUSH3 0x3158 DUP8 DUP3 DUP9 ADD PUSH3 0x27CF JUMP JUMPDEST SWAP4 POP POP PUSH1 0x40 PUSH3 0x316B DUP8 DUP3 DUP9 ADD PUSH3 0x270A JUMP JUMPDEST SWAP3 POP POP PUSH1 0x60 DUP6 ADD CALLDATALOAD PUSH8 0xFFFFFFFFFFFFFFFF DUP2 GT ISZERO PUSH3 0x318F JUMPI PUSH3 0x318E PUSH3 0x255A JUMP JUMPDEST JUMPDEST PUSH3 0x319D DUP8 DUP3 DUP9 ADD PUSH3 0x30E5 JUMP JUMPDEST SWAP2 POP POP SWAP3 SWAP6 SWAP2 SWAP5 POP SWAP3 POP JUMP JUMPDEST PUSH1 0x0 DUP2 SWAP1 POP SWAP2 SWAP1 POP JUMP JUMPDEST PUSH1 0x0 PUSH3 0x31D4 PUSH3 0x31CE PUSH3 0x31C8 DUP5 PUSH3 0x2753 JUMP JUMPDEST PUSH3 0x31A9 JUMP JUMPDEST PUSH3 0x2753 JUMP JUMPDEST SWAP1 POP SWAP2 SWAP1 POP JUMP JUMPDEST PUSH1 0x0 PUSH3 0x31E8 DUP3 PUSH3 0x31B3 JUMP JUMPDEST SWAP1 POP SWAP2 SWAP1 POP JUMP JUMPDEST PUSH1 0x0 PUSH3 0x31FC DUP3 PUSH3 0x31DB JUMP JUMPDEST SWAP1 POP SWAP2 SWAP1 POP JUMP JUMPDEST PUSH3 0x320E DUP2 PUSH3 0x31EF JUMP JUMPDEST DUP3 MSTORE POP POP JUMP JUMPDEST PUSH1 0x0 PUSH1 0x20 DUP3 ADD SWAP1 POP PUSH3 0x322B PUSH1 0x0 DUP4 ADD DUP5 PUSH3 0x3203 JUMP JUMPDEST SWAP3 SWAP2 POP POP JUMP JUMPDEST PUSH1 0x0 DUP1 PUSH1 0x40 DUP4 DUP6 SUB SLT ISZERO PUSH3 0x324B JUMPI PUSH3 0x324A PUSH3 0x2555 JUMP JUMPDEST JUMPDEST PUSH1 0x0 PUSH3 0x325B DUP6 DUP3 DUP7 ADD PUSH3 0x27CF JUMP JUMPDEST SWAP3 POP POP PUSH1 0x20 PUSH3 0x326E DUP6 DUP3 DUP7 ADD PUSH3 0x27CF JUMP JUMPDEST SWAP2 POP POP SWAP3 POP SWAP3 SWAP1 POP JUMP JUMPDEST PUSH32 0x4E487B7100000000000000000000000000000000000000000000000000000000 PUSH1 0x0 MSTORE PUSH1 0x22 PUSH1 0x4 MSTORE PUSH1 0x24 PUSH1 0x0 REVERT JUMPDEST PUSH1 0x0 PUSH1 0x2 DUP3 DIV SWAP1 POP PUSH1 0x1 DUP3 AND DUP1 PUSH3 0x32C0 JUMPI PUSH1 0x7F DUP3 AND SWAP2 POP JUMPDEST PUSH1 0x20 DUP3 LT DUP2 SUB PUSH3 0x32D6 JUMPI PUSH3 0x32D5 PUSH3 0x3278 JUMP JUMPDEST JUMPDEST POP SWAP2 SWAP1 POP JUMP JUMPDEST PUSH32 0x4552433732313A20617070726F76616C20746F2063757272656E74206F776E65 PUSH1 0x0 DUP3 ADD MSTORE PUSH32 0x7200000000000000000000000000000000000000000000000000000000000000 PUSH1 0x20 DUP3 ADD MSTORE POP JUMP JUMPDEST PUSH1 0x0 PUSH3 0x333A PUSH1 0x21 DUP4 PUSH3 0x2633 JUMP JUMPDEST SWAP2 POP PUSH3 0x3347 DUP3 PUSH3 0x32DC JUMP JUMPDEST PUSH1 0x40 DUP3 ADD SWAP1 POP SWAP2 SWAP1 POP JUMP JUMPDEST PUSH1 0x0 PUSH1 0x20 DUP3 ADD SWAP1 POP DUP2 DUP2 SUB PUSH1 0x0 DUP4 ADD MSTORE PUSH3 0x336D DUP2 PUSH3 0x332B JUMP JUMPDEST SWAP1 POP SWAP2 SWAP1 POP JUMP JUMPDEST PUSH32 0x4552433732313A20617070726F76652063616C6C6572206973206E6F7420746F PUSH1 0x0 DUP3 ADD MSTORE PUSH32 0x6B656E206F776E6572206F7220617070726F76656420666F7220616C6C000000 PUSH1 0x20 DUP3 ADD MSTORE POP JUMP JUMPDEST PUSH1 0x0 PUSH3 0x33D2 PUSH1 0x3D DUP4 PUSH3 0x2633 JUMP JUMPDEST SWAP2 POP PUSH3 0x33DF DUP3 PUSH3 0x3374 JUMP JUMPDEST PUSH1 0x40 DUP3 ADD SWAP1 POP SWAP2 SWAP1 POP JUMP JUMPDEST PUSH1 0x0 PUSH1 0x20 DUP3 ADD SWAP1 POP DUP2 DUP2 SUB PUSH1 0x0 DUP4 ADD MSTORE PUSH3 0x3405 DUP2 PUSH3 0x33C3 JUMP JUMPDEST SWAP1 POP SWAP2 SWAP1 POP JUMP JUMPDEST PUSH32 0x4E6F7420656E6F75676820736967616E74757265730000000000000000000000 PUSH1 0x0 DUP3 ADD MSTORE POP JUMP JUMPDEST PUSH1 0x0 PUSH3 0x3444 PUSH1 0x15 DUP4 PUSH3 0x2633 JUMP JUMPDEST SWAP2 POP PUSH3 0x3451 DUP3 PUSH3 0x340C JUMP JUMPDEST PUSH1 0x20 DUP3 ADD SWAP1 POP SWAP2 SWAP1 POP JUMP JUMPDEST PUSH1 0x0 PUSH1 0x20 DUP3 ADD SWAP1 POP DUP2 DUP2 SUB PUSH1 0x0 DUP4 ADD MSTORE PUSH3 0x3477 DUP2 PUSH3 0x3435 JUMP JUMPDEST SWAP1 POP SWAP2 SWAP1 POP JUMP JUMPDEST PUSH32 0x4552433732313A2063616C6C6572206973206E6F7420746F6B656E206F776E65 PUSH1 0x0 DUP3 ADD MSTORE PUSH32 0x72206F7220617070726F76656400000000000000000000000000000000000000 PUSH1 0x20 DUP3 ADD MSTORE POP JUMP JUMPDEST PUSH1 0x0 PUSH3 0x34DC PUSH1 0x2D DUP4 PUSH3 0x2633 JUMP JUMPDEST SWAP2 POP PUSH3 0x34E9 DUP3 PUSH3 0x347E JUMP JUMPDEST PUSH1 0x40 DUP3 ADD SWAP1 POP SWAP2 SWAP1 POP JUMP JUMPDEST PUSH1 0x0 PUSH1 0x20 DUP3 ADD SWAP1 POP DUP2 DUP2 SUB PUSH1 0x0 DUP4 ADD MSTORE PUSH3 0x350F DUP2 PUSH3 0x34CD JUMP JUMPDEST SWAP1 POP SWAP2 SWAP1 POP JUMP JUMPDEST PUSH32 0x4F6E6C792057696C6C50726F746F636F6C2063616E207072652D617070726F76 PUSH1 0x0 DUP3 ADD MSTORE PUSH32 0x65204E4654207472616E73666572730000000000000000000000000000000000 PUSH1 0x20 DUP3 ADD MSTORE POP JUMP JUMPDEST PUSH1 0x0 PUSH3 0x3574 PUSH1 0x2F DUP4 PUSH3 0x2633 JUMP JUMPDEST SWAP2 POP PUSH3 0x3581 DUP3 PUSH3 0x3516 JUMP JUMPDEST PUSH1 0x40 DUP3 ADD SWAP1 POP SWAP2 SWAP1 POP JUMP JUMPDEST PUSH1 0x0 PUSH1 0x20 DUP3 ADD SWAP1 POP DUP2 DUP2 SUB PUSH1 0x0 DUP4 ADD MSTORE PUSH3 0x35A7 DUP2 PUSH3 0x3565 JUMP JUMPDEST SWAP1 POP SWAP2 SWAP1 POP JUMP JUMPDEST PUSH1 0x0 DUP2 MLOAD SWAP1 POP PUSH3 0x35BF DUP2 PUSH3 0x26F0 JUMP JUMPDEST SWAP3 SWAP2 POP POP JUMP JUMPDEST PUSH1 0x0 PUSH1 0x20 DUP3 DUP5 SUB SLT ISZERO PUSH3 0x35DE JUMPI PUSH3 0x35DD PUSH3 0x2555 JUMP JUMPDEST JUMPDEST PUSH1 0x0 PUSH3 0x35EE DUP5 DUP3 DUP6 ADD PUSH3 0x35AE JUMP JUMPDEST SWAP2 POP POP SWAP3 SWAP2 POP POP JUMP JUMPDEST PUSH32 0x4E487B7100000000000000000000000000000000000000000000000000000000 PUSH1 0x0 MSTORE PUSH1 0x11 PUSH1 0x4 MSTORE PUSH1 0x24 PUSH1 0x0 REVERT JUMPDEST PUSH1 0x0 PUSH3 0x3633 DUP3 PUSH3 0x26E6 JUMP JUMPDEST SWAP2 POP PUSH3 0x3640 DUP4 PUSH3 0x26E6 JUMP JUMPDEST SWAP3 POP DUP3 DUP3 SUB SWAP1 POP DUP2 DUP2 GT ISZERO PUSH3 0x365B JUMPI PUSH3 0x365A PUSH3 0x35F7 JUMP JUMPDEST JUMPDEST SWAP3 SWAP2 POP POP JUMP JUMPDEST PUSH32 0x4F6E6C792057696C6C50726F746F636F6C2063616E206D696E74204E46547300 PUSH1 0x0 DUP3 ADD MSTORE POP JUMP JUMPDEST PUSH1 0x0 PUSH3 0x3699 PUSH1 0x1F DUP4 PUSH3 0x2633 JUMP JUMPDEST SWAP2 POP PUSH3 0x36A6 DUP3 PUSH3 0x3661 JUMP JUMPDEST PUSH1 0x20 DUP3 ADD SWAP1 POP SWAP2 SWAP1 POP JUMP JUMPDEST PUSH1 0x0 PUSH1 0x20 DUP3 ADD SWAP1 POP DUP2 DUP2 SUB PUSH1 0x0 DUP4 ADD MSTORE PUSH3 0x36CC DUP2 PUSH3 0x368A JUMP JUMPDEST SWAP1 POP SWAP2 SWAP1 POP JUMP JUMPDEST PUSH32 0x4E487B7100000000000000000000000000000000000000000000000000000000 PUSH1 0x0 MSTORE PUSH1 0x32 PUSH1 0x4 MSTORE PUSH1 0x24 PUSH1 0x0 REVERT JUMPDEST PUSH1 0x0 PUSH3 0x370F DUP3 PUSH3 0x26E6 JUMP JUMPDEST SWAP2 POP PUSH32 0xFFFFFFFFFFFFFFFFFFFFFFFFFFFFFFFFFFFFFFFFFFFFFFFFFFFFFFFFFFFFFFFF DUP3 SUB PUSH3 0x3744 JUMPI PUSH3 0x3743 PUSH3 0x35F7 JUMP JUMPDEST JUMPDEST PUSH1 0x1 DUP3 ADD SWAP1 POP SWAP2 SWAP1 POP JUMP JUMPDEST PUSH32 0x4552433732313A20696E76616C696420746F6B656E2049440000000000000000 PUSH1 0x0 DUP3 ADD MSTORE POP JUMP JUMPDEST PUSH1 0x0 PUSH3 0x3787 PUSH1 0x18 DUP4 PUSH3 0x2633 JUMP JUMPDEST SWAP2 POP PUSH3 0x3794 DUP3 PUSH3 0x374F JUMP JUMPDEST PUSH1 0x20 DUP3 ADD SWAP1 POP SWAP2 SWAP1 POP JUMP JUMPDEST PUSH1 0x0 PUSH1 0x20 DUP3 ADD SWAP1 POP DUP2 DUP2 SUB PUSH1 0x0 DUP4 ADD MSTORE PUSH3 0x37BA DUP2 PUSH3 0x3778 JUMP JUMPDEST SWAP1 POP SWAP2 SWAP1 POP JUMP JUMPDEST PUSH32 0x4552433732313A2061646472657373207A65726F206973206E6F742061207661 PUSH1 0x0 DUP3 ADD MSTORE PUSH32 0x6C6964206F776E65720000000000000000000000000000000000000000000000 PUSH1 0x20 DUP3 ADD MSTORE POP JUMP JUMPDEST PUSH1 0x0 PUSH3 0x381F PUSH1 0x29 DUP4 PUSH3 0x2633 JUMP JUMPDEST SWAP2 POP PUSH3 0x382C DUP3 PUSH3 0x37C1 JUMP JUMPDEST PUSH1 0x40 DUP3 ADD SWAP1 POP SWAP2 SWAP1 POP JUMP JUMPDEST PUSH1 0x0 PUSH1 0x20 DUP3 ADD SWAP1 POP DUP2 DUP2 SUB PUSH1 0x0 DUP4 ADD MSTORE PUSH3 0x3852 DUP2 PUSH3 0x3810 JUMP JUMPDEST SWAP1 POP SWAP2 SWAP1 POP JUMP JUMPDEST PUSH32 0x4F6E6C792057696C6C50726F746F636F6C2063616E2063726561746520612054 PUSH1 0x0 DUP3 ADD MSTORE PUSH32 0x72616E73666572436F6E74726163740000000000000000000000000000000000 PUSH1 0x20 DUP3 ADD MSTORE POP JUMP JUMPDEST PUSH1 0x0 PUSH3 0x38B7 PUSH1 0x2F DUP4 PUSH3 0x2633 JUMP JUMPDEST SWAP2 POP PUSH3 0x38C4 DUP3 PUSH3 0x3859 JUMP JUMPDEST PUSH1 0x40 DUP3 ADD SWAP1 POP SWAP2 SWAP1 POP JUMP JUMPDEST PUSH1 0x0 PUSH1 0x20 DUP3 ADD SWAP1 POP DUP2 DUP2 SUB PUSH1 0x0 DUP4 ADD MSTORE PUSH3 0x38EA DUP2 PUSH3 0x38A8 JUMP JUMPDEST SWAP1 POP SWAP2 SWAP1 POP JUMP JUMPDEST PUSH1 0x0 DUP2 MLOAD SWAP1 POP SWAP2 SWAP1 POP JUMP JUMPDEST PUSH1 0x0 DUP3 DUP3 MSTORE PUSH1 0x20 DUP3 ADD SWAP1 POP SWAP3 SWAP2 POP POP JUMP JUMPDEST PUSH1 0x0 DUP2 SWAP1 POP PUSH1 0x20 DUP3 ADD SWAP1 POP SWAP2 SWAP1 POP JUMP JUMPDEST PUSH3 0x3928 DUP2 PUSH3 0x2773 JUMP JUMPDEST DUP3 MSTORE POP POP JUMP JUMPDEST PUSH1 0x0 PUSH3 0x393C DUP4 DUP4 PUSH3 0x391D JUMP JUMPDEST PUSH1 0x20 DUP4 ADD SWAP1 POP SWAP3 SWAP2 POP POP JUMP JUMPDEST PUSH1 0x0 PUSH1 0x20 DUP3 ADD SWAP1 POP SWAP2 SWAP1 POP JUMP JUMPDEST PUSH1 0x0 PUSH3 0x3962 DUP3 PUSH3 0x38F1 JUMP JUMPDEST PUSH3 0x396E DUP2 DUP6 PUSH3 0x38FC JUMP JUMPDEST SWAP4 POP PUSH3 0x397B DUP4 PUSH3 0x390D JUMP JUMPDEST DUP1 PUSH1 0x0 JUMPDEST DUP4 DUP2 LT ISZERO PUSH3 0x39B2 JUMPI DUP2 MLOAD PUSH3 0x3996 DUP9 DUP3 PUSH3 0x392E JUMP JUMPDEST SWAP8 POP PUSH3 0x39A3 DUP4 PUSH3 0x3948 JUMP JUMPDEST SWAP3 POP POP PUSH1 0x1 DUP2 ADD SWAP1 POP PUSH3 0x397F JUMP JUMPDEST POP DUP6 SWAP4 POP POP POP POP SWAP3 SWAP2 POP POP JUMP JUMPDEST PUSH1 0x0 PUSH1 0xA0 DUP3 ADD SWAP1 POP DUP2 DUP2 SUB PUSH1 0x0 DUP4 ADD MSTORE PUSH3 0x39DB DUP2 DUP9 PUSH3 0x2C4D JUMP JUMPDEST SWAP1 POP DUP2 DUP2 SUB PUSH1 0x20 DUP4 ADD MSTORE PUSH3 0x39F1 DUP2 DUP8 PUSH3 0x3955 JUMP JUMPDEST SWAP1 POP DUP2 DUP2 SUB PUSH1 0x40 DUP4 ADD MSTORE PUSH3 0x3A07 DUP2 DUP7 PUSH3 0x3955 JUMP JUMPDEST SWAP1 POP DUP2 DUP2 SUB PUSH1 0x60 DUP4 ADD MSTORE PUSH3 0x3A1D DUP2 DUP6 PUSH3 0x2C4D JUMP JUMPDEST SWAP1 POP DUP2 DUP2 SUB PUSH1 0x80 DUP4 ADD MSTORE PUSH3 0x3A33 DUP2 DUP5 PUSH3 0x3955 JUMP JUMPDEST SWAP1 POP SWAP7 SWAP6 POP POP POP POP POP POP JUMP JUMPDEST PUSH1 0x0 DUP2 SWAP1 POP SWAP3 SWAP2 POP POP JUMP JUMPDEST PUSH1 0x0 PUSH3 0x3A57 DUP3 PUSH3 0x2628 JUMP JUMPDEST PUSH3 0x3A63 DUP2 DUP6 PUSH3 0x3A3F JUMP JUMPDEST SWAP4 POP PUSH3 0x3A75 DUP2 DUP6 PUSH1 0x20 DUP7 ADD PUSH3 0x2644 JUMP JUMPDEST DUP1 DUP5 ADD SWAP2 POP POP SWAP3 SWAP2 POP POP JUMP JUMPDEST PUSH1 0x0 PUSH3 0x3A8F DUP3 DUP6 PUSH3 0x3A4A JUMP JUMPDEST SWAP2 POP PUSH3 0x3A9D DUP3 DUP5 PUSH3 0x3A4A JUMP JUMPDEST SWAP2 POP DUP2 SWAP1 POP SWAP4 SWAP3 POP POP POP JUMP JUMPDEST PUSH32 0x4F776E61626C653A206E6577206F776E657220697320746865207A65726F2061 PUSH1 0x0 DUP3 ADD MSTORE PUSH32 0x6464726573730000000000000000000000000000000000000000000000000000 PUSH1 0x20 DUP3 ADD MSTORE POP JUMP JUMPDEST PUSH1 0x0 PUSH3 0x3B07 PUSH1 0x26 DUP4 PUSH3 0x2633 JUMP JUMPDEST SWAP2 POP PUSH3 0x3B14 DUP3 PUSH3 0x3AA9 JUMP JUMPDEST PUSH1 0x40 DUP3 ADD SWAP1 POP SWAP2 SWAP1 POP JUMP JUMPDEST PUSH1 0x0 PUSH1 0x20 DUP3 ADD SWAP1 POP DUP2 DUP2 SUB PUSH1 0x0 DUP4 ADD MSTORE PUSH3 0x3B3A DUP2 PUSH3 0x3AF8 JUMP JUMPDEST SWAP1 POP SWAP2 SWAP1 POP JUMP JUMPDEST PUSH32 0x4F776E61626C653A2063616C6C6572206973206E6F7420746865206F776E6572 PUSH1 0x0 DUP3 ADD MSTORE POP JUMP JUMPDEST PUSH1 0x0 PUSH3 0x3B79 PUSH1 0x20 DUP4 PUSH3 0x2633 JUMP JUMPDEST SWAP2 POP PUSH3 0x3B86 DUP3 PUSH3 0x3B41 JUMP JUMPDEST PUSH1 0x20 DUP3 ADD SWAP1 POP SWAP2 SWAP1 POP JUMP JUMPDEST PUSH1 0x0 PUSH1 0x20 DUP3 ADD SWAP1 POP DUP2 DUP2 SUB PUSH1 0x0 DUP4 ADD MSTORE PUSH3 0x3BAC DUP2 PUSH3 0x3B6A JUMP JUMPDEST SWAP1 POP SWAP2 SWAP1 POP JUMP JUMPDEST PUSH32 0x4552433732313A207472616E736665722066726F6D20696E636F727265637420 PUSH1 0x0 DUP3 ADD MSTORE PUSH32 0x6F776E6572000000000000000000000000000000000000000000000000000000 PUSH1 0x20 DUP3 ADD MSTORE POP JUMP JUMPDEST PUSH1 0x0 PUSH3 0x3C11 PUSH1 0x25 DUP4 PUSH3 0x2633 JUMP JUMPDEST SWAP2 POP PUSH3 0x3C1E DUP3 PUSH3 0x3BB3 JUMP JUMPDEST PUSH1 0x40 DUP3 ADD SWAP1 POP SWAP2 SWAP1 POP JUMP JUMPDEST PUSH1 0x0 PUSH1 0x20 DUP3 ADD SWAP1 POP DUP2 DUP2 SUB PUSH1 0x0 DUP4 ADD MSTORE PUSH3 0x3C44 DUP2 PUSH3 0x3C02 JUMP JUMPDEST SWAP1 POP SWAP2 SWAP1 POP JUMP JUMPDEST PUSH32 0x4552433732313A207472616E7366657220746F20746865207A65726F20616464 PUSH1 0x0 DUP3 ADD MSTORE PUSH32 0x7265737300000000000000000000000000000000000000000000000000000000 PUSH1 0x20 DUP3 ADD MSTORE POP JUMP JUMPDEST PUSH1 0x0 PUSH3 0x3CA9 PUSH1 0x24 DUP4 PUSH3 0x2633 JUMP JUMPDEST SWAP2 POP PUSH3 0x3CB6 DUP3 PUSH3 0x3C4B JUMP JUMPDEST PUSH1 0x40 DUP3 ADD SWAP1 POP SWAP2 SWAP1 POP JUMP JUMPDEST PUSH1 0x0 PUSH1 0x20 DUP3 ADD SWAP1 POP DUP2 DUP2 SUB PUSH1 0x0 DUP4 ADD MSTORE PUSH3 0x3CDC DUP2 PUSH3 0x3C9A JUMP JUMPDEST SWAP1 POP SWAP2 SWAP1 POP JUMP JUMPDEST PUSH32 0x45524337323155524953746F726167653A2055524920736574206F66206E6F6E PUSH1 0x0 DUP3 ADD MSTORE PUSH32 0x6578697374656E7420746F6B656E000000000000000000000000000000000000 PUSH1 0x20 DUP3 ADD MSTORE POP JUMP JUMPDEST PUSH1 0x0 PUSH3 0x3D41 PUSH1 0x2E DUP4 PUSH3 0x2633 JUMP JUMPDEST SWAP2 POP PUSH3 0x3D4E DUP3 PUSH3 0x3CE3 JUMP JUMPDEST PUSH1 0x40 DUP3 ADD SWAP1 POP SWAP2 SWAP1 POP JUMP JUMPDEST PUSH1 0x0 PUSH1 0x20 DUP3 ADD SWAP1 POP DUP2 DUP2 SUB PUSH1 0x0 DUP4 ADD MSTORE PUSH3 0x3D74 DUP2 PUSH3 0x3D32 JUMP JUMPDEST SWAP1 POP SWAP2 SWAP1 POP JUMP JUMPDEST PUSH1 0x0 DUP2 SWAP1 POP DUP2 PUSH1 0x0 MSTORE PUSH1 0x20 PUSH1 0x0 KECCAK256 SWAP1 POP SWAP2 SWAP1 POP JUMP JUMPDEST PUSH1 0x0 PUSH1 0x20 PUSH1 0x1F DUP4 ADD DIV SWAP1 POP SWAP2 SWAP1 POP JUMP JUMPDEST PUSH1 0x0 DUP3 DUP3 SHL SWAP1 POP SWAP3 SWAP2 POP POP JUMP JUMPDEST PUSH1 0x0 PUSH1 0x8 DUP4 MUL PUSH3 0x3DDF PUSH32 0xFFFFFFFFFFFFFFFFFFFFFFFFFFFFFFFFFFFFFFFFFFFFFFFFFFFFFFFFFFFFFFFF DUP3 PUSH3 0x3DA0 JUMP JUMPDEST PUSH3 0x3DEB DUP7 DUP4 PUSH3 0x3DA0 JUMP JUMPDEST SWAP6 POP DUP1 NOT DUP5 AND SWAP4 POP DUP1 DUP7 AND DUP5 OR SWAP3 POP POP POP SWAP4 SWAP3 POP POP POP JUMP JUMPDEST PUSH1 0x0 PUSH3 0x3E24 PUSH3 0x3E1E PUSH3 0x3E18 DUP5 PUSH3 0x26E6 JUMP JUMPDEST PUSH3 0x31A9 JUMP JUMPDEST PUSH3 0x26E6 JUMP JUMPDEST SWAP1 POP SWAP2 SWAP1 POP JUMP JUMPDEST PUSH1 0x0 DUP2 SWAP1 POP SWAP2 SWAP1 POP JUMP JUMPDEST PUSH3 0x3E40 DUP4 PUSH3 0x3E03 JUMP JUMPDEST PUSH3 0x3E58 PUSH3 0x3E4F DUP3 PUSH3 0x3E2B JUMP JUMPDEST DUP5 DUP5 SLOAD PUSH3 0x3DAD JUMP JUMPDEST DUP3 SSTORE POP POP POP POP JUMP JUMPDEST PUSH1 0x0 SWAP1 JUMP JUMPDEST PUSH3 0x3E6F PUSH3 0x3E60 JUMP JUMPDEST PUSH3 0x3E7C DUP2 DUP5 DUP5 PUSH3 0x3E35 JUMP JUMPDEST POP POP POP JUMP JUMPDEST JUMPDEST DUP2 DUP2 LT ISZERO PUSH3 0x3EA4 JUMPI PUSH3 0x3E98 PUSH1 0x0 DUP3 PUSH3 0x3E65 JUMP JUMPDEST PUSH1 0x1 DUP2 ADD SWAP1 POP PUSH3 0x3E82 JUMP JUMPDEST POP POP JUMP JUMPDEST PUSH1 0x1F DUP3 GT ISZERO PUSH3 0x3EF3 JUMPI PUSH3 0x3EBD DUP2 PUSH3 0x3D7B JUMP JUMPDEST PUSH3 0x3EC8 DUP5 PUSH3 0x3D90 JUMP JUMPDEST DUP2 ADD PUSH1 0x20 DUP6 LT ISZERO PUSH3 0x3ED8 JUMPI DUP2 SWAP1 POP JUMPDEST PUSH3 0x3EF0 PUSH3 0x3EE7 DUP6 PUSH3 0x3D90 JUMP JUMPDEST DUP4 ADD DUP3 PUSH3 0x3E81 JUMP JUMPDEST POP POP JUMPDEST POP POP POP JUMP JUMPDEST PUSH1 0x0 DUP3 DUP3 SHR SWAP1 POP SWAP3 SWAP2 POP POP JUMP JUMPDEST PUSH1 0x0 PUSH3 0x3F18 PUSH1 0x0 NOT DUP5 PUSH1 0x8 MUL PUSH3 0x3EF8 JUMP JUMPDEST NOT DUP1 DUP4 AND SWAP2 POP POP SWAP3 SWAP2 POP POP JUMP JUMPDEST PUSH1 0x0 PUSH3 0x3F33 DUP4 DUP4 PUSH3 0x3F05 JUMP JUMPDEST SWAP2 POP DUP3 PUSH1 0x2 MUL DUP3 OR SWAP1 POP SWAP3 SWAP2 POP POP JUMP JUMPDEST PUSH3 0x3F4E DUP3 PUSH3 0x2628 JUMP JUMPDEST PUSH8 0xFFFFFFFFFFFFFFFF DUP2 GT ISZERO PUSH3 0x3F6A JUMPI PUSH3 0x3F69 PUSH3 0x2907 JUMP JUMPDEST JUMPDEST PUSH3 0x3F76 DUP3 SLOAD PUSH3 0x32A7 JUMP JUMPDEST PUSH3 0x3F83 DUP3 DUP3 DUP6 PUSH3 0x3EA8 JUMP JUMPDEST PUSH1 0x0 PUSH1 0x20 SWAP1 POP PUSH1 0x1F DUP4 GT PUSH1 0x1 DUP2 EQ PUSH3 0x3FBB JUMPI PUSH1 0x0 DUP5 ISZERO PUSH3 0x3FA6 JUMPI DUP3 DUP8 ADD MLOAD SWAP1 POP JUMPDEST PUSH3 0x3FB2 DUP6 DUP3 PUSH3 0x3F25 JUMP JUMPDEST DUP7 SSTORE POP PUSH3 0x4022 JUMP JUMPDEST PUSH1 0x1F NOT DUP5 AND PUSH3 0x3FCB DUP7 PUSH3 0x3D7B JUMP JUMPDEST PUSH1 0x0 JUMPDEST DUP3 DUP2 LT ISZERO PUSH3 0x3FF5 JUMPI DUP5 DUP10 ADD MLOAD DUP3 SSTORE PUSH1 0x1 DUP3 ADD SWAP2 POP PUSH1 0x20 DUP6 ADD SWAP5 POP PUSH1 0x20 DUP2 ADD SWAP1 POP PUSH3 0x3FCE JUMP JUMPDEST DUP7 DUP4 LT ISZERO PUSH3 0x4015 JUMPI DUP5 DUP10 ADD MLOAD PUSH3 0x4011 PUSH1 0x1F DUP10 AND DUP3 PUSH3 0x3F05 JUMP JUMPDEST DUP4 SSTORE POP JUMPDEST PUSH1 0x1 PUSH1 0x2 DUP9 MUL ADD DUP9 SSTORE POP POP POP JUMPDEST POP POP POP POP POP POP JUMP JUMPDEST PUSH32 0x4552433732313A20617070726F766520746F2063616C6C657200000000000000 PUSH1 0x0 DUP3 ADD MSTORE POP JUMP JUMPDEST PUSH1 0x0 PUSH3 0x4062 PUSH1 0x19 DUP4 PUSH3 0x2633 JUMP JUMPDEST SWAP2 POP PUSH3 0x406F DUP3 PUSH3 0x402A JUMP JUMPDEST PUSH1 0x20 DUP3 ADD SWAP1 POP SWAP2 SWAP1 POP JUMP JUMPDEST PUSH1 0x0 PUSH1 0x20 DUP3 ADD SWAP1 POP DUP2 DUP2 SUB PUSH1 0x0 DUP4 ADD MSTORE PUSH3 0x4095 DUP2 PUSH3 0x4053 JUMP JUMPDEST SWAP1 POP SWAP2 SWAP1 POP JUMP JUMPDEST PUSH32 0x4552433732313A207472616E7366657220746F206E6F6E204552433732315265 PUSH1 0x0 DUP3 ADD MSTORE PUSH32 0x63656976657220696D706C656D656E7465720000000000000000000000000000 PUSH1 0x20 DUP3 ADD MSTORE POP JUMP JUMPDEST PUSH1 0x0 PUSH3 0x40FA PUSH1 0x32 DUP4 PUSH3 0x2633 JUMP JUMPDEST SWAP2 POP PUSH3 0x4107 DUP3 PUSH3 0x409C JUMP JUMPDEST PUSH1 0x40 DUP3 ADD SWAP1 POP SWAP2 SWAP1 POP JUMP JUMPDEST PUSH1 0x0 PUSH1 0x20 DUP3 ADD SWAP1 POP DUP2 DUP2 SUB PUSH1 0x0 DUP4 ADD MSTORE PUSH3 0x412D DUP2 PUSH3 0x40EB JUMP JUMPDEST SWAP1 POP SWAP2 SWAP1 POP JUMP JUMPDEST PUSH1 0x0 DUP2 MLOAD SWAP1 POP SWAP2 SWAP1 POP JUMP JUMPDEST PUSH1 0x0 DUP3 DUP3 MSTORE PUSH1 0x20 DUP3 ADD SWAP1 POP SWAP3 SWAP2 POP POP JUMP JUMPDEST PUSH1 0x0 PUSH3 0x415D DUP3 PUSH3 0x4134 JUMP JUMPDEST PUSH3 0x4169 DUP2 DUP6 PUSH3 0x413F JUMP JUMPDEST SWAP4 POP PUSH3 0x417B DUP2 DUP6 PUSH1 0x20 DUP7 ADD PUSH3 0x2644 JUMP JUMPDEST PUSH3 0x4186 DUP2 PUSH3 0x2670 JUMP JUMPDEST DUP5 ADD SWAP2 POP POP SWAP3 SWAP2 POP POP JUMP JUMPDEST PUSH1 0x0 PUSH1 0x80 DUP3 ADD SWAP1 POP PUSH3 0x41A8 PUSH1 0x0 DUP4 ADD DUP8 PUSH3 0x2787 JUMP JUMPDEST PUSH3 0x41B7 PUSH1 0x20 DUP4 ADD DUP7 PUSH3 0x2787 JUMP JUMPDEST PUSH3 0x41C6 PUSH1 0x40 DUP4 ADD DUP6 PUSH3 0x2CDB JUMP JUMPDEST DUP2 DUP2 SUB PUSH1 0x60 DUP4 ADD MSTORE PUSH3 0x41DA DUP2 DUP5 PUSH3 0x4150 JUMP JUMPDEST SWAP1 POP SWAP6 SWAP5 POP POP POP POP POP JUMP JUMPDEST PUSH1 0x0 DUP2 MLOAD SWAP1 POP PUSH3 0x41F6 DUP2 PUSH3 0x258B JUMP JUMPDEST SWAP3 SWAP2 POP POP JUMP JUMPDEST PUSH1 0x0 PUSH1 0x20 DUP3 DUP5 SUB SLT ISZERO PUSH3 0x4215 JUMPI PUSH3 0x4214 PUSH3 0x2555 JUMP JUMPDEST JUMPDEST PUSH1 0x0 PUSH3 0x4225 DUP5 DUP3 DUP6 ADD PUSH3 0x41E5 JUMP JUMPDEST SWAP2 POP POP SWAP3 SWAP2 POP POP JUMP JUMPDEST PUSH32 0x4E487B7100000000000000000000000000000000000000000000000000000000 PUSH1 0x0 MSTORE PUSH1 0x12 PUSH1 0x4 MSTORE PUSH1 0x24 PUSH1 0x0 REVERT JUMPDEST PUSH32 0x4552433732313A206D696E7420746F20746865207A65726F2061646472657373 PUSH1 0x0 DUP3 ADD MSTORE POP JUMP JUMPDEST PUSH1 0x0 PUSH3 0x4295 PUSH1 0x20 DUP4 PUSH3 0x2633 JUMP JUMPDEST SWAP2 POP PUSH3 0x42A2 DUP3 PUSH3 0x425D JUMP JUMPDEST PUSH1 0x20 DUP3 ADD SWAP1 POP SWAP2 SWAP1 POP JUMP JUMPDEST PUSH1 0x0 PUSH1 0x20 DUP3 ADD SWAP1 POP DUP2 DUP2 SUB PUSH1 0x0 DUP4 ADD MSTORE PUSH3 0x42C8 DUP2 PUSH3 0x4286 JUMP JUMPDEST SWAP1 POP SWAP2 SWAP1 POP JUMP JUMPDEST PUSH32 0x4552433732313A20746F6B656E20616C7265616479206D696E74656400000000 PUSH1 0x0 DUP3 ADD MSTORE POP JUMP JUMPDEST PUSH1 0x0 PUSH3 0x4307 PUSH1 0x1C DUP4 PUSH3 0x2633 JUMP JUMPDEST SWAP2 POP PUSH3 0x4314 DUP3 PUSH3 0x42CF JUMP JUMPDEST PUSH1 0x20 DUP3 ADD SWAP1 POP SWAP2 SWAP1 POP JUMP JUMPDEST PUSH1 0x0 PUSH1 0x20 DUP3 ADD SWAP1 POP DUP2 DUP2 SUB PUSH1 0x0 DUP4 ADD MSTORE PUSH3 0x433A DUP2 PUSH3 0x42F8 JUMP JUMPDEST SWAP1 POP SWAP2 SWAP1 POP JUMP INVALID PUSH1 0x80 PUSH1 0x40 MSTORE CALLVALUE DUP1 ISZERO PUSH3 0x11 JUMPI PUSH1 0x0 DUP1 REVERT JUMPDEST POP PUSH1 0x40 MLOAD PUSH3 0x1272 CODESIZE SUB DUP1 PUSH3 0x1272 DUP4 CODECOPY DUP2 DUP2 ADD PUSH1 0x40 MSTORE DUP2 ADD SWAP1 PUSH3 0x37 SWAP2 SWAP1 PUSH3 0x1D5 JUMP JUMPDEST PUSH3 0x57 PUSH3 0x4B PUSH3 0x9F PUSH1 0x20 SHL PUSH1 0x20 SHR JUMP JUMPDEST PUSH3 0xA7 PUSH1 0x20 SHL PUSH1 0x20 SHR JUMP JUMPDEST DUP1 PUSH1 0x6 PUSH1 0x0 PUSH2 0x100 EXP DUP2 SLOAD DUP2 PUSH20 0xFFFFFFFFFFFFFFFFFFFFFFFFFFFFFFFFFFFFFFFF MUL NOT AND SWAP1 DUP4 PUSH20 0xFFFFFFFFFFFFFFFFFFFFFFFFFFFFFFFFFFFFFFFF AND MUL OR SWAP1 SSTORE POP POP PUSH3 0x207 JUMP JUMPDEST PUSH1 0x0 CALLER SWAP1 POP SWAP1 JUMP JUMPDEST PUSH1 0x0 DUP1 PUSH1 0x0 SWAP1 SLOAD SWAP1 PUSH2 0x100 EXP SWAP1 DIV PUSH20 0xFFFFFFFFFFFFFFFFFFFFFFFFFFFFFFFFFFFFFFFF AND SWAP1 POP DUP2 PUSH1 0x0 DUP1 PUSH2 0x100 EXP DUP2 SLOAD DUP2 PUSH20 0xFFFFFFFFFFFFFFFFFFFFFFFFFFFFFFFFFFFFFFFF MUL NOT AND SWAP1 DUP4 PUSH20 0xFFFFFFFFFFFFFFFFFFFFFFFFFFFFFFFFFFFFFFFF AND MUL OR SWAP1 SSTORE POP DUP2 PUSH20 0xFFFFFFFFFFFFFFFFFFFFFFFFFFFFFFFFFFFFFFFF AND DUP2 PUSH20 0xFFFFFFFFFFFFFFFFFFFFFFFFFFFFFFFFFFFFFFFF AND PUSH32 0x8BE0079C531659141344CD1FD0A4F28419497F9722A3DAAFE3B4186F6B6457E0 PUSH1 0x40 MLOAD PUSH1 0x40 MLOAD DUP1 SWAP2 SUB SWAP1 LOG3 POP POP JUMP JUMPDEST PUSH1 0x0 DUP1 REVERT JUMPDEST PUSH1 0x0 PUSH20 0xFFFFFFFFFFFFFFFFFFFFFFFFFFFFFFFFFFFFFFFF DUP3 AND SWAP1 POP SWAP2 SWAP1 POP JUMP JUMPDEST PUSH1 0x0 PUSH3 0x19D DUP3 PUSH3 0x170 JUMP JUMPDEST SWAP1 POP SWAP2 SWAP1 POP JUMP JUMPDEST PUSH3 0x1AF DUP2 PUSH3 0x190 JUMP JUMPDEST DUP2 EQ PUSH3 0x1BB JUMPI PUSH1 0x0 DUP1 REVERT JUMPDEST POP JUMP JUMPDEST PUSH1 0x0 DUP2 MLOAD SWAP1 POP PUSH3 0x1CF DUP2 PUSH3 0x1A4 JUMP JUMPDEST SWAP3 SWAP2 POP POP JUMP JUMPDEST PUSH1 0x0 PUSH1 0x20 DUP3 DUP5 SUB SLT ISZERO PUSH3 0x1EE JUMPI PUSH3 0x1ED PUSH3 0x16B JUMP JUMPDEST JUMPDEST PUSH1 0x0 PUSH3 0x1FE DUP5 DUP3 DUP6 ADD PUSH3 0x1BE JUMP JUMPDEST SWAP2 POP POP SWAP3 SWAP2 POP POP JUMP JUMPDEST PUSH2 0x105B DUP1 PUSH3 0x217 PUSH1 0x0 CODECOPY PUSH1 0x0 RETURN INVALID PUSH1 0x80 PUSH1 0x40 MSTORE CALLVALUE DUP1 ISZERO PUSH2 0x10 JUMPI PUSH1 0x0 DUP1 REVERT JUMPDEST POP PUSH1 0x4 CALLDATASIZE LT PUSH2 0x57 JUMPI PUSH1 0x0 CALLDATALOAD PUSH1 0xE0 SHR DUP1 PUSH4 0x715018A6 EQ PUSH2 0x5C JUMPI DUP1 PUSH4 0x8DA5CB5B EQ PUSH2 0x66 JUMPI DUP1 PUSH4 0x9699114C EQ PUSH2 0x84 JUMPI DUP1 PUSH4 0xB15A0C58 EQ PUSH2 0x8E JUMPI DUP1 PUSH4 0xF2FDE38B EQ PUSH2 0xAA JUMPI JUMPDEST PUSH1 0x0 DUP1 REVERT JUMPDEST PUSH2 0x64 PUSH2 0xC6 JUMP JUMPDEST STOP JUMPDEST PUSH2 0x6E PUSH2 0xDA JUMP JUMPDEST PUSH1 0x40 MLOAD PUSH2 0x7B SWAP2 SWAP1 PUSH2 0x8A1 JUMP JUMPDEST PUSH1 0x40 MLOAD DUP1 SWAP2 SUB SWAP1 RETURN JUMPDEST PUSH2 0x8C PUSH2 0x103 JUMP JUMPDEST STOP JUMPDEST PUSH2 0xA8 PUSH1 0x4 DUP1 CALLDATASIZE SUB DUP2 ADD SWAP1 PUSH2 0xA3 SWAP2 SWAP1 PUSH2 0xB4E JUMP JUMPDEST PUSH2 0x51D JUMP JUMPDEST STOP JUMPDEST PUSH2 0xC4 PUSH1 0x4 DUP1 CALLDATASIZE SUB DUP2 ADD SWAP1 PUSH2 0xBF SWAP2 SWAP1 PUSH2 0xC55 JUMP JUMPDEST PUSH2 0x59F JUMP JUMPDEST STOP JUMPDEST PUSH2 0xCE PUSH2 0x622 JUMP JUMPDEST PUSH2 0xD8 PUSH1 0x0 PUSH2 0x6A0 JUMP JUMPDEST JUMP JUMPDEST PUSH1 0x0 DUP1 PUSH1 0x0 SWAP1 SLOAD SWAP1 PUSH2 0x100 EXP SWAP1 DIV PUSH20 0xFFFFFFFFFFFFFFFFFFFFFFFFFFFFFFFFFFFFFFFF AND SWAP1 POP SWAP1 JUMP JUMPDEST PUSH2 0x10B PUSH2 0x622 JUMP JUMPDEST PUSH1 0x6 PUSH1 0x14 SWAP1 SLOAD SWAP1 PUSH2 0x100 EXP SWAP1 DIV PUSH1 0xFF AND ISZERO PUSH2 0x15B JUMPI PUSH1 0x40 MLOAD PUSH32 0x8C379A000000000000000000000000000000000000000000000000000000000 DUP2 MSTORE PUSH1 0x4 ADD PUSH2 0x152 SWAP1 PUSH2 0xCDF JUMP JUMPDEST PUSH1 0x40 MLOAD DUP1 SWAP2 SUB SWAP1 REVERT JUMPDEST PUSH1 0x0 PUSH2 0x165 PUSH2 0xDA JUMP JUMPDEST SWAP1 POP PUSH1 0x0 DUP2 PUSH20 0xFFFFFFFFFFFFFFFFFFFFFFFFFFFFFFFFFFFFFFFF AND PUSH4 0x3B0683CC PUSH1 0x40 MLOAD DUP2 PUSH4 0xFFFFFFFF AND PUSH1 0xE0 SHL DUP2 MSTORE PUSH1 0x4 ADD PUSH1 0x20 PUSH1 0x40 MLOAD DUP1 DUP4 SUB DUP2 DUP7 GAS STATICCALL ISZERO DUP1 ISZERO PUSH2 0x1B4 JUMPI RETURNDATASIZE PUSH1 0x0 DUP1 RETURNDATACOPY RETURNDATASIZE PUSH1 0x0 REVERT JUMPDEST POP POP POP POP PUSH1 0x40 MLOAD RETURNDATASIZE PUSH1 0x1F NOT PUSH1 0x1F DUP3 ADD AND DUP3 ADD DUP1 PUSH1 0x40 MSTORE POP DUP2 ADD SWAP1 PUSH2 0x1D8 SWAP2 SWAP1 PUSH2 0xD3D JUMP JUMPDEST SWAP1 POP DUP1 PUSH20 0xFFFFFFFFFFFFFFFFFFFFFFFFFFFFFFFFFFFFFFFF AND PUSH4 0x343C5E36 PUSH2 0x1FE PUSH2 0xDA JUMP JUMPDEST PUSH1 0x40 MLOAD DUP3 PUSH4 0xFFFFFFFF AND PUSH1 0xE0 SHL DUP2 MSTORE PUSH1 0x4 ADD PUSH2 0x21A SWAP2 SWAP1 PUSH2 0x8A1 JUMP JUMPDEST PUSH1 0x20 PUSH1 0x40 MLOAD DUP1 DUP4 SUB DUP2 DUP7 GAS STATICCALL ISZERO DUP1 ISZERO PUSH2 0x237 JUMPI RETURNDATASIZE PUSH1 0x0 DUP1 RETURNDATACOPY RETURNDATASIZE PUSH1 0x0 REVERT JUMPDEST POP POP POP POP PUSH1 0x40 MLOAD RETURNDATASIZE PUSH1 0x1F NOT PUSH1 0x1F DUP3 ADD AND DUP3 ADD DUP1 PUSH1 0x40 MSTORE POP DUP2 ADD SWAP1 PUSH2 0x25B SWAP2 SWAP1 PUSH2 0xDA2 JUMP JUMPDEST PUSH2 0x29A JUMPI PUSH1 0x40 MLOAD PUSH32 0x8C379A000000000000000000000000000000000000000000000000000000000 DUP2 MSTORE PUSH1 0x4 ADD PUSH2 0x291 SWAP1 PUSH2 0xE1B JUMP JUMPDEST PUSH1 0x40 MLOAD DUP1 SWAP2 SUB SWAP1 REVERT JUMPDEST PUSH1 0x0 JUMPDEST PUSH1 0x1 DUP1 SLOAD SWAP1 POP DUP2 LT ISZERO PUSH2 0x3E5 JUMPI PUSH1 0x0 PUSH1 0x1 DUP3 DUP2 SLOAD DUP2 LT PUSH2 0x2C0 JUMPI PUSH2 0x2BF PUSH2 0xE3B JUMP JUMPDEST JUMPDEST SWAP1 PUSH1 0x0 MSTORE PUSH1 0x20 PUSH1 0x0 KECCAK256 ADD PUSH1 0x0 SWAP1 SLOAD SWAP1 PUSH2 0x100 EXP SWAP1 DIV PUSH20 0xFFFFFFFFFFFFFFFFFFFFFFFFFFFFFFFFFFFFFFFF AND SWAP1 POP DUP1 PUSH20 0xFFFFFFFFFFFFFFFFFFFFFFFFFFFFFFFFFFFFFFFF AND PUSH4 0x23B872DD PUSH2 0x311 PUSH2 0xDA JUMP JUMPDEST PUSH1 0x3 DUP6 DUP2 SLOAD DUP2 LT PUSH2 0x325 JUMPI PUSH2 0x324 PUSH2 0xE3B JUMP JUMPDEST JUMPDEST SWAP1 PUSH1 0x0 MSTORE PUSH1 0x20 PUSH1 0x0 KECCAK256 ADD PUSH1 0x0 SWAP1 SLOAD SWAP1 PUSH2 0x100 EXP SWAP1 DIV PUSH20 0xFFFFFFFFFFFFFFFFFFFFFFFFFFFFFFFFFFFFFFFF AND PUSH1 0x2 DUP7 DUP2 SLOAD DUP2 LT PUSH2 0x364 JUMPI PUSH2 0x363 PUSH2 0xE3B JUMP JUMPDEST JUMPDEST SWAP1 PUSH1 0x0 MSTORE PUSH1 0x20 PUSH1 0x0 KECCAK256 ADD SLOAD PUSH1 0x40 MLOAD DUP5 PUSH4 0xFFFFFFFF AND PUSH1 0xE0 SHL DUP2 MSTORE PUSH1 0x4 ADD PUSH2 0x38D SWAP4 SWAP3 SWAP2 SWAP1 PUSH2 0xE79 JUMP JUMPDEST PUSH1 0x20 PUSH1 0x40 MLOAD DUP1 DUP4 SUB DUP2 PUSH1 0x0 DUP8 GAS CALL ISZERO DUP1 ISZERO PUSH2 0x3AC JUMPI RETURNDATASIZE PUSH1 0x0 DUP1 RETURNDATACOPY RETURNDATASIZE PUSH1 0x0 REVERT JUMPDEST POP POP POP POP PUSH1 0x40 MLOAD RETURNDATASIZE PUSH1 0x1F NOT PUSH1 0x1F DUP3 ADD AND DUP3 ADD DUP1 PUSH1 0x40 MSTORE POP DUP2 ADD SWAP1 PUSH2 0x3D0 SWAP2 SWAP1 PUSH2 0xDA2 JUMP JUMPDEST POP POP DUP1 DUP1 PUSH2 0x3DD SWAP1 PUSH2 0xEDF JUMP JUMPDEST SWAP2 POP POP PUSH2 0x29D JUMP JUMPDEST POP PUSH1 0x0 JUMPDEST PUSH1 0x5 DUP1 SLOAD SWAP1 POP DUP2 LT ISZERO PUSH2 0x4FD JUMPI PUSH1 0x6 PUSH1 0x0 SWAP1 SLOAD SWAP1 PUSH2 0x100 EXP SWAP1 DIV PUSH20 0xFFFFFFFFFFFFFFFFFFFFFFFFFFFFFFFFFFFFFFFF AND PUSH20 0xFFFFFFFFFFFFFFFFFFFFFFFFFFFFFFFFFFFFFFFF AND PUSH4 0x23B872DD PUSH2 0x43C PUSH2 0xDA JUMP JUMPDEST PUSH1 0x4 DUP5 DUP2 SLOAD DUP2 LT PUSH2 0x450 JUMPI PUSH2 0x44F PUSH2 0xE3B JUMP JUMPDEST JUMPDEST SWAP1 PUSH1 0x0 MSTORE PUSH1 0x20 PUSH1 0x0 KECCAK256 ADD PUSH1 0x0 SWAP1 SLOAD SWAP1 PUSH2 0x100 EXP SWAP1 DIV PUSH20 0xFFFFFFFFFFFFFFFFFFFFFFFFFFFFFFFFFFFFFFFF AND PUSH1 0x5 DUP6 DUP2 SLOAD DUP2 LT PUSH2 0x48F JUMPI PUSH2 0x48E PUSH2 0xE3B JUMP JUMPDEST JUMPDEST SWAP1 PUSH1 0x0 MSTORE PUSH1 0x20 PUSH1 0x0 KECCAK256 ADD SLOAD PUSH1 0x40 MLOAD DUP5 PUSH4 0xFFFFFFFF AND PUSH1 0xE0 SHL DUP2 MSTORE PUSH1 0x4 ADD PUSH2 0x4B8 SWAP4 SWAP3 SWAP2 SWAP1 PUSH2 0xE79 JUMP JUMPDEST PUSH1 0x0 PUSH1 0x40 MLOAD DUP1 DUP4 SUB DUP2 PUSH1 0x0 DUP8 DUP1 EXTCODESIZE ISZERO DUP1 ISZERO PUSH2 0x4D2 JUMPI PUSH1 0x0 DUP1 REVERT JUMPDEST POP GAS CALL ISZERO DUP1 ISZERO PUSH2 0x4E6 JUMPI RETURNDATASIZE PUSH1 0x0 DUP1 RETURNDATACOPY RETURNDATASIZE PUSH1 0x0 REVERT JUMPDEST POP POP POP POP DUP1 DUP1 PUSH2 0x4F5 SWAP1 PUSH2 0xEDF JUMP JUMPDEST SWAP2 POP POP PUSH2 0x3E9 JUMP JUMPDEST POP PUSH1 0x1 PUSH1 0x6 PUSH1 0x14 PUSH2 0x100 EXP DUP2 SLOAD DUP2 PUSH1 0xFF MUL NOT AND SWAP1 DUP4 ISZERO ISZERO MUL OR SWAP1 SSTORE POP POP POP JUMP JUMPDEST PUSH2 0x525 PUSH2 0x622 JUMP JUMPDEST DUP5 PUSH1 0x2 SWAP1 DUP1 MLOAD SWAP1 PUSH1 0x20 ADD SWAP1 PUSH2 0x53B SWAP3 SWAP2 SWAP1 PUSH2 0x76C JUMP JUMPDEST POP DUP4 PUSH1 0x1 SWAP1 DUP1 MLOAD SWAP1 PUSH1 0x20 ADD SWAP1 PUSH2 0x552 SWAP3 SWAP2 SWAP1 PUSH2 0x7B9 JUMP JUMPDEST POP DUP3 PUSH1 0x3 SWAP1 DUP1 MLOAD SWAP1 PUSH1 0x20 ADD SWAP1 PUSH2 0x569 SWAP3 SWAP2 SWAP1 PUSH2 0x7B9 JUMP JUMPDEST POP DUP2 PUSH1 0x5 SWAP1 DUP1 MLOAD SWAP1 PUSH1 0x20 ADD SWAP1 PUSH2 0x580 SWAP3 SWAP2 SWAP1 PUSH2 0x76C JUMP JUMPDEST POP DUP1 PUSH1 0x4 SWAP1 DUP1 MLOAD SWAP1 PUSH1 0x20 ADD SWAP1 PUSH2 0x597 SWAP3 SWAP2 SWAP1 PUSH2 0x7B9 JUMP JUMPDEST POP POP POP POP POP POP JUMP JUMPDEST PUSH2 0x5A7 PUSH2 0x622 JUMP JUMPDEST PUSH1 0x0 PUSH20 0xFFFFFFFFFFFFFFFFFFFFFFFFFFFFFFFFFFFFFFFF AND DUP2 PUSH20 0xFFFFFFFFFFFFFFFFFFFFFFFFFFFFFFFFFFFFFFFF AND SUB PUSH2 0x616 JUMPI PUSH1 0x40 MLOAD PUSH32 0x8C379A000000000000000000000000000000000000000000000000000000000 DUP2 MSTORE PUSH1 0x4 ADD PUSH2 0x60D SWAP1 PUSH2 0xF99 JUMP JUMPDEST PUSH1 0x40 MLOAD DUP1 SWAP2 SUB SWAP1 REVERT JUMPDEST PUSH2 0x61F DUP2 PUSH2 0x6A0 JUMP JUMPDEST POP JUMP JUMPDEST PUSH2 0x62A PUSH2 0x764 JUMP JUMPDEST PUSH20 0xFFFFFFFFFFFFFFFFFFFFFFFFFFFFFFFFFFFFFFFF AND PUSH2 0x648 PUSH2 0xDA JUMP JUMPDEST PUSH20 0xFFFFFFFFFFFFFFFFFFFFFFFFFFFFFFFFFFFFFFFF AND EQ PUSH2 0x69E JUMPI PUSH1 0x40 MLOAD PUSH32 0x8C379A000000000000000000000000000000000000000000000000000000000 DUP2 MSTORE PUSH1 0x4 ADD PUSH2 0x695 SWAP1 PUSH2 0x1005 JUMP JUMPDEST PUSH1 0x40 MLOAD DUP1 SWAP2 SUB SWAP1 REVERT JUMPDEST JUMP JUMPDEST PUSH1 0x0 DUP1 PUSH1 0x0 SWAP1 SLOAD SWAP1 PUSH2 0x100 EXP SWAP1 DIV PUSH20 0xFFFFFFFFFFFFFFFFFFFFFFFFFFFFFFFFFFFFFFFF AND SWAP1 POP DUP2 PUSH1 0x0 DUP1 PUSH2 0x100 EXP DUP2 SLOAD DUP2 PUSH20 0xFFFFFFFFFFFFFFFFFFFFFFFFFFFFFFFFFFFFFFFF MUL NOT AND SWAP1 DUP4 PUSH20 0xFFFFFFFFFFFFFFFFFFFFFFFFFFFFFFFFFFFFFFFF AND MUL OR SWAP1 SSTORE POP DUP2 PUSH20 0xFFFFFFFFFFFFFFFFFFFFFFFFFFFFFFFFFFFFFFFF AND DUP2 PUSH20 0xFFFFFFFFFFFFFFFFFFFFFFFFFFFFFFFFFFFFFFFF AND PUSH32 0x8BE0079C531659141344CD1FD0A4F28419497F9722A3DAAFE3B4186F6B6457E0 PUSH1 0x40 MLOAD PUSH1 0x40 MLOAD DUP1 SWAP2 SUB SWAP1 LOG3 POP POP JUMP JUMPDEST PUSH1 0x0 CALLER SWAP1 POP SWAP1 JUMP JUMPDEST DUP3 DUP1 SLOAD DUP3 DUP3 SSTORE SWAP1 PUSH1 0x0 MSTORE PUSH1 0x20 PUSH1 0x0 KECCAK256 SWAP1 DUP2 ADD SWAP3 DUP3 ISZERO PUSH2 0x7A8 JUMPI SWAP2 PUSH1 0x20 MUL DUP3 ADD JUMPDEST DUP3 DUP2 GT ISZERO PUSH2 0x7A7 JUMPI DUP3 MLOAD DUP3 SSTORE SWAP2 PUSH1 0x20 ADD SWAP2 SWAP1 PUSH1 0x1 ADD SWAP1 PUSH2 0x78C JUMP JUMPDEST JUMPDEST POP SWAP1 POP PUSH2 0x7B5 SWAP2 SWAP1 PUSH2 0x843 JUMP JUMPDEST POP SWAP1 JUMP JUMPDEST DUP3 DUP1 SLOAD DUP3 DUP3 SSTORE SWAP1 PUSH1 0x0 MSTORE PUSH1 0x20 PUSH1 0x0 KECCAK256 SWAP1 DUP2 ADD SWAP3 DUP3 ISZERO PUSH2 0x832 JUMPI SWAP2 PUSH1 0x20 MUL DUP3 ADD JUMPDEST DUP3 DUP2 GT ISZERO PUSH2 0x831 JUMPI DUP3 MLOAD DUP3 PUSH1 0x0 PUSH2 0x100 EXP DUP2 SLOAD DUP2 PUSH20 0xFFFFFFFFFFFFFFFFFFFFFFFFFFFFFFFFFFFFFFFF MUL NOT AND SWAP1 DUP4 PUSH20 0xFFFFFFFFFFFFFFFFFFFFFFFFFFFFFFFFFFFFFFFF AND MUL OR SWAP1 SSTORE POP SWAP2 PUSH1 0x20 ADD SWAP2 SWAP1 PUSH1 0x1 ADD SWAP1 PUSH2 0x7D9 JUMP JUMPDEST JUMPDEST POP SWAP1 POP PUSH2 0x83F SWAP2 SWAP1 PUSH2 0x843 JUMP JUMPDEST POP SWAP1 JUMP JUMPDEST JUMPDEST DUP1 DUP3 GT ISZERO PUSH2 0x85C JUMPI PUSH1 0x0 DUP2 PUSH1 0x0 SWAP1 SSTORE POP PUSH1 0x1 ADD PUSH2 0x844 JUMP JUMPDEST POP SWAP1 JUMP JUMPDEST PUSH1 0x0 PUSH20 0xFFFFFFFFFFFFFFFFFFFFFFFFFFFFFFFFFFFFFFFF DUP3 AND SWAP1 POP SWAP2 SWAP1 POP JUMP JUMPDEST PUSH1 0x0 PUSH2 0x88B DUP3 PUSH2 0x860 JUMP JUMPDEST SWAP1 POP SWAP2 SWAP1 POP JUMP JUMPDEST PUSH2 0x89B DUP2 PUSH2 0x880 JUMP JUMPDEST DUP3 MSTORE POP POP JUMP JUMPDEST PUSH1 0x0 PUSH1 0x20 DUP3 ADD SWAP1 POP PUSH2 0x8B6 PUSH1 0x0 DUP4 ADD DUP5 PUSH2 0x892 JUMP JUMPDEST SWAP3 SWAP2 POP POP JUMP JUMPDEST PUSH1 0x0 PUSH1 0x40 MLOAD SWAP1 POP SWAP1 JUMP JUMPDEST PUSH1 0x0 DUP1 REVERT JUMPDEST PUSH1 0x0 DUP1 REVERT JUMPDEST PUSH1 0x0 DUP1 REVERT JUMPDEST PUSH1 0x0 PUSH1 0x1F NOT PUSH1 0x1F DUP4 ADD AND SWAP1 POP SWAP2 SWAP1 POP JUMP JUMPDEST PUSH32 0x4E487B7100000000000000000000000000000000000000000000000000000000 PUSH1 0x0 MSTORE PUSH1 0x41 PUSH1 0x4 MSTORE PUSH1 0x24 PUSH1 0x0 REVERT JUMPDEST PUSH2 0x91E DUP3 PUSH2 0x8D5 JUMP JUMPDEST DUP2 ADD DUP2 DUP2 LT PUSH8 0xFFFFFFFFFFFFFFFF DUP3 GT OR ISZERO PUSH2 0x93D JUMPI PUSH2 0x93C PUSH2 0x8E6 JUMP JUMPDEST JUMPDEST DUP1 PUSH1 0x40 MSTORE POP POP POP JUMP JUMPDEST PUSH1 0x0 PUSH2 0x950 PUSH2 0x8BC JUMP JUMPDEST SWAP1 POP PUSH2 0x95C DUP3 DUP3 PUSH2 0x915 JUMP JUMPDEST SWAP2 SWAP1 POP JUMP JUMPDEST PUSH1 0x0 PUSH8 0xFFFFFFFFFFFFFFFF DUP3 GT ISZERO PUSH2 0x97C JUMPI PUSH2 0x97B PUSH2 0x8E6 JUMP JUMPDEST JUMPDEST PUSH1 0x20 DUP3 MUL SWAP1 POP PUSH1 0x20 DUP2 ADD SWAP1 POP SWAP2 SWAP1 POP JUMP JUMPDEST PUSH1 0x0 DUP1 REVERT JUMPDEST PUSH1 0x0 DUP2 SWAP1 POP SWAP2 SWAP1 POP JUMP JUMPDEST PUSH2 0x9A5 DUP2 PUSH2 0x992 JUMP JUMPDEST DUP2 EQ PUSH2 0x9B0 JUMPI PUSH1 0x0 DUP1 REVERT JUMPDEST POP JUMP JUMPDEST PUSH1 0x0 DUP2 CALLDATALOAD SWAP1 POP PUSH2 0x9C2 DUP2 PUSH2 0x99C JUMP JUMPDEST SWAP3 SWAP2 POP POP JUMP JUMPDEST PUSH1 0x0 PUSH2 0x9DB PUSH2 0x9D6 DUP5 PUSH2 0x961 JUMP JUMPDEST PUSH2 0x946 JUMP JUMPDEST SWAP1 POP DUP1 DUP4 DUP3 MSTORE PUSH1 0x20 DUP3 ADD SWAP1 POP PUSH1 0x20 DUP5 MUL DUP4 ADD DUP6 DUP2 GT ISZERO PUSH2 0x9FE JUMPI PUSH2 0x9FD PUSH2 0x98D JUMP JUMPDEST JUMPDEST DUP4 JUMPDEST DUP2 DUP2 LT ISZERO PUSH2 0xA27 JUMPI DUP1 PUSH2 0xA13 DUP9 DUP3 PUSH2 0x9B3 JUMP JUMPDEST DUP5 MSTORE PUSH1 0x20 DUP5 ADD SWAP4 POP POP PUSH1 0x20 DUP2 ADD SWAP1 POP PUSH2 0xA00 JUMP JUMPDEST POP POP POP SWAP4 SWAP3 POP POP POP JUMP JUMPDEST PUSH1 0x0 DUP3 PUSH1 0x1F DUP4 ADD SLT PUSH2 0xA46 JUMPI PUSH2 0xA45 PUSH2 0x8D0 JUMP JUMPDEST JUMPDEST DUP2 CALLDATALOAD PUSH2 0xA56 DUP5 DUP3 PUSH1 0x20 DUP7 ADD PUSH2 0x9C8 JUMP JUMPDEST SWAP2 POP POP SWAP3 SWAP2 POP POP JUMP JUMPDEST PUSH1 0x0 PUSH8 0xFFFFFFFFFFFFFFFF DUP3 GT ISZERO PUSH2 0xA7A JUMPI PUSH2 0xA79 PUSH2 0x8E6 JUMP JUMPDEST JUMPDEST PUSH1 0x20 DUP3 MUL SWAP1 POP PUSH1 0x20 DUP2 ADD SWAP1 POP SWAP2 SWAP1 POP JUMP JUMPDEST PUSH2 0xA94 DUP2 PUSH2 0x880 JUMP JUMPDEST DUP2 EQ PUSH2 0xA9F JUMPI PUSH1 0x0 DUP1 REVERT JUMPDEST POP JUMP JUMPDEST PUSH1 0x0 DUP2 CALLDATALOAD SWAP1 POP PUSH2 0xAB1 DUP2 PUSH2 0xA8B JUMP JUMPDEST SWAP3 SWAP2 POP POP JUMP JUMPDEST PUSH1 0x0 PUSH2 0xACA PUSH2 0xAC5 DUP5 PUSH2 0xA5F JUMP JUMPDEST PUSH2 0x946 JUMP JUMPDEST SWAP1 POP DUP1 DUP4 DUP3 MSTORE PUSH1 0x20 DUP3 ADD SWAP1 POP PUSH1 0x20 DUP5 MUL DUP4 ADD DUP6 DUP2 GT ISZERO PUSH2 0xAED JUMPI PUSH2 0xAEC PUSH2 0x98D JUMP JUMPDEST JUMPDEST DUP4 JUMPDEST DUP2 DUP2 LT ISZERO PUSH2 0xB16 JUMPI DUP1 PUSH2 0xB02 DUP9 DUP3 PUSH2 0xAA2 JUMP JUMPDEST DUP5 MSTORE PUSH1 0x20 DUP5 ADD SWAP4 POP POP PUSH1 0x20 DUP2 ADD SWAP1 POP PUSH2 0xAEF JUMP JUMPDEST POP POP POP SWAP4 SWAP3 POP POP POP JUMP JUMPDEST PUSH1 0x0 DUP3 PUSH1 0x1F DUP4 ADD SLT PUSH2 0xB35 JUMPI PUSH2 0xB34 PUSH2 0x8D0 JUMP JUMPDEST JUMPDEST DUP2 CALLDATALOAD PUSH2 0xB45 DUP5 DUP3 PUSH1 0x20 DUP7 ADD PUSH2 0xAB7 JUMP JUMPDEST SWAP2 POP POP SWAP3 SWAP2 POP POP JUMP JUMPDEST PUSH1 0x0 DUP1 PUSH1 0x0 DUP1 PUSH1 0x0 PUSH1 0xA0 DUP7 DUP9 SUB SLT ISZERO PUSH2 0xB6A JUMPI PUSH2 0xB69 PUSH2 0x8C6 JUMP JUMPDEST JUMPDEST PUSH1 0x0 DUP7 ADD CALLDATALOAD PUSH8 0xFFFFFFFFFFFFFFFF DUP2 GT ISZERO PUSH2 0xB88 JUMPI PUSH2 0xB87 PUSH2 0x8CB JUMP JUMPDEST JUMPDEST PUSH2 0xB94 DUP9 DUP3 DUP10 ADD PUSH2 0xA31 JUMP JUMPDEST SWAP6 POP POP PUSH1 0x20 DUP7 ADD CALLDATALOAD PUSH8 0xFFFFFFFFFFFFFFFF DUP2 GT ISZERO PUSH2 0xBB5 JUMPI PUSH2 0xBB4 PUSH2 0x8CB JUMP JUMPDEST JUMPDEST PUSH2 0xBC1 DUP9 DUP3 DUP10 ADD PUSH2 0xB20 JUMP JUMPDEST SWAP5 POP POP PUSH1 0x40 DUP7 ADD CALLDATALOAD PUSH8 0xFFFFFFFFFFFFFFFF DUP2 GT ISZERO PUSH2 0xBE2 JUMPI PUSH2 0xBE1 PUSH2 0x8CB JUMP JUMPDEST JUMPDEST PUSH2 0xBEE DUP9 DUP3 DUP10 ADD PUSH2 0xB20 JUMP JUMPDEST SWAP4 POP POP PUSH1 0x60 DUP7 ADD CALLDATALOAD PUSH8 0xFFFFFFFFFFFFFFFF DUP2 GT ISZERO PUSH2 0xC0F JUMPI PUSH2 0xC0E PUSH2 0x8CB JUMP JUMPDEST JUMPDEST PUSH2 0xC1B DUP9 DUP3 DUP10 ADD PUSH2 0xA31 JUMP JUMPDEST SWAP3 POP POP PUSH1 0x80 DUP7 ADD CALLDATALOAD PUSH8 0xFFFFFFFFFFFFFFFF DUP2 GT ISZERO PUSH2 0xC3C JUMPI PUSH2 0xC3B PUSH2 0x8CB JUMP JUMPDEST JUMPDEST PUSH2 0xC48 DUP9 DUP3 DUP10 ADD PUSH2 0xB20 JUMP JUMPDEST SWAP2 POP POP SWAP3 SWAP6 POP SWAP3 SWAP6 SWAP1 SWAP4 POP JUMP JUMPDEST PUSH1 0x0 PUSH1 0x20 DUP3 DUP5 SUB SLT ISZERO PUSH2 0xC6B JUMPI PUSH2 0xC6A PUSH2 0x8C6 JUMP JUMPDEST JUMPDEST PUSH1 0x0 PUSH2 0xC79 DUP5 DUP3 DUP6 ADD PUSH2 0xAA2 JUMP JUMPDEST SWAP2 POP POP SWAP3 SWAP2 POP POP JUMP JUMPDEST PUSH1 0x0 DUP3 DUP3 MSTORE PUSH1 0x20 DUP3 ADD SWAP1 POP SWAP3 SWAP2 POP POP JUMP JUMPDEST PUSH32 0x5472616E736665727320616C7265616479206578656375746564000000000000 PUSH1 0x0 DUP3 ADD MSTORE POP JUMP JUMPDEST PUSH1 0x0 PUSH2 0xCC9 PUSH1 0x1A DUP4 PUSH2 0xC82 JUMP JUMPDEST SWAP2 POP PUSH2 0xCD4 DUP3 PUSH2 0xC93 JUMP JUMPDEST PUSH1 0x20 DUP3 ADD SWAP1 POP SWAP2 SWAP1 POP JUMP JUMPDEST PUSH1 0x0 PUSH1 0x20 DUP3 ADD SWAP1 POP DUP2 DUP2 SUB PUSH1 0x0 DUP4 ADD MSTORE PUSH2 0xCF8 DUP2 PUSH2 0xCBC JUMP JUMPDEST SWAP1 POP SWAP2 SWAP1 POP JUMP JUMPDEST PUSH1 0x0 PUSH2 0xD0A DUP3 PUSH2 0x880 JUMP JUMPDEST SWAP1 POP SWAP2 SWAP1 POP JUMP JUMPDEST PUSH2 0xD1A DUP2 PUSH2 0xCFF JUMP JUMPDEST DUP2 EQ PUSH2 0xD25 JUMPI PUSH1 0x0 DUP1 REVERT JUMPDEST POP JUMP JUMPDEST PUSH1 0x0 DUP2 MLOAD SWAP1 POP PUSH2 0xD37 DUP2 PUSH2 0xD11 JUMP JUMPDEST SWAP3 SWAP2 POP POP JUMP JUMPDEST PUSH1 0x0 PUSH1 0x20 DUP3 DUP5 SUB SLT ISZERO PUSH2 0xD53 JUMPI PUSH2 0xD52 PUSH2 0x8C6 JUMP JUMPDEST JUMPDEST PUSH1 0x0 PUSH2 0xD61 DUP5 DUP3 DUP6 ADD PUSH2 0xD28 JUMP JUMPDEST SWAP2 POP POP SWAP3 SWAP2 POP POP JUMP JUMPDEST PUSH1 0x0 DUP2 ISZERO ISZERO SWAP1 POP SWAP2 SWAP1 POP JUMP JUMPDEST PUSH2 0xD7F DUP2 PUSH2 0xD6A JUMP JUMPDEST DUP2 EQ PUSH2 0xD8A JUMPI PUSH1 0x0 DUP1 REVERT JUMPDEST POP JUMP JUMPDEST PUSH1 0x0 DUP2 MLOAD SWAP1 POP PUSH2 0xD9C DUP2 PUSH2 0xD76 JUMP JUMPDEST SWAP3 SWAP2 POP POP JUMP JUMPDEST PUSH1 0x0 PUSH1 0x20 DUP3 DUP5 SUB SLT ISZERO PUSH2 0xDB8 JUMPI PUSH2 0xDB7 PUSH2 0x8C6 JUMP JUMPDEST JUMPDEST PUSH1 0x0 PUSH2 0xDC6 DUP5 DUP3 DUP6 ADD PUSH2 0xD8D JUMP JUMPDEST SWAP2 POP POP SWAP3 SWAP2 POP POP JUMP JUMPDEST PUSH32 0x4E6F7420656E6F756768206578656375746F72207369676E6174757265730000 PUSH1 0x0 DUP3 ADD MSTORE POP JUMP JUMPDEST PUSH1 0x0 PUSH2 0xE05 PUSH1 0x1E DUP4 PUSH2 0xC82 JUMP JUMPDEST SWAP2 POP PUSH2 0xE10 DUP3 PUSH2 0xDCF JUMP JUMPDEST PUSH1 0x20 DUP3 ADD SWAP1 POP SWAP2 SWAP1 POP JUMP JUMPDEST PUSH1 0x0 PUSH1 0x20 DUP3 ADD SWAP1 POP DUP2 DUP2 SUB PUSH1 0x0 DUP4 ADD MSTORE PUSH2 0xE34 DUP2 PUSH2 0xDF8 JUMP JUMPDEST SWAP1 POP SWAP2 SWAP1 POP JUMP JUMPDEST PUSH32 0x4E487B7100000000000000000000000000000000000000000000000000000000 PUSH1 0x0 MSTORE PUSH1 0x32 PUSH1 0x4 MSTORE PUSH1 0x24 PUSH1 0x0 REVERT JUMPDEST PUSH2 0xE73 DUP2 PUSH2 0x992 JUMP JUMPDEST DUP3 MSTORE POP POP JUMP JUMPDEST PUSH1 0x0 PUSH1 0x60 DUP3 ADD SWAP1 POP PUSH2 0xE8E PUSH1 0x0 DUP4 ADD DUP7 PUSH2 0x892 JUMP JUMPDEST PUSH2 0xE9B PUSH1 0x20 DUP4 ADD DUP6 PUSH2 0x892 JUMP JUMPDEST PUSH2 0xEA8 PUSH1 0x40 DUP4 ADD DUP5 PUSH2 0xE6A JUMP JUMPDEST SWAP5 SWAP4 POP POP POP POP JUMP JUMPDEST PUSH32 0x4E487B7100000000000000000000000000000000000000000000000000000000 PUSH1 0x0 MSTORE PUSH1 0x11 PUSH1 0x4 MSTORE PUSH1 0x24 PUSH1 0x0 REVERT JUMPDEST PUSH1 0x0 PUSH2 0xEEA DUP3 PUSH2 0x992 JUMP JUMPDEST SWAP2 POP PUSH32 0xFFFFFFFFFFFFFFFFFFFFFFFFFFFFFFFFFFFFFFFFFFFFFFFFFFFFFFFFFFFFFFFF DUP3 SUB PUSH2 0xF1C JUMPI PUSH2 0xF1B PUSH2 0xEB0 JUMP JUMPDEST JUMPDEST PUSH1 0x1 DUP3 ADD SWAP1 POP SWAP2 SWAP1 POP JUMP JUMPDEST PUSH32 0x4F776E61626C653A206E6577206F776E657220697320746865207A65726F2061 PUSH1 0x0 DUP3 ADD MSTORE PUSH32 0x6464726573730000000000000000000000000000000000000000000000000000 PUSH1 0x20 DUP3 ADD MSTORE POP JUMP JUMPDEST PUSH1 0x0 PUSH2 0xF83 PUSH1 0x26 DUP4 PUSH2 0xC82 JUMP JUMPDEST SWAP2 POP PUSH2 0xF8E DUP3 PUSH2 0xF27 JUMP JUMPDEST PUSH1 0x40 DUP3 ADD SWAP1 POP SWAP2 SWAP1 POP JUMP JUMPDEST PUSH1 0x0 PUSH1 0x20 DUP3 ADD SWAP1 POP DUP2 DUP2 SUB PUSH1 0x0 DUP4 ADD MSTORE PUSH2 0xFB2 DUP2 PUSH2 0xF76 JUMP JUMPDEST SWAP1 POP SWAP2 SWAP1 POP JUMP JUMPDEST PUSH32 0x4F776E61626C653A2063616C6C6572206973206E6F7420746865206F776E6572 PUSH1 0x0 DUP3 ADD MSTORE POP JUMP JUMPDEST PUSH1 0x0 PUSH2 0xFEF PUSH1 0x20 DUP4 PUSH2 0xC82 JUMP JUMPDEST SWAP2 POP PUSH2 0xFFA DUP3 PUSH2 0xFB9 JUMP JUMPDEST PUSH1 0x20 DUP3 ADD SWAP1 POP SWAP2 SWAP1 POP JUMP JUMPDEST PUSH1 0x0 PUSH1 0x20 DUP3 ADD SWAP1 POP DUP2 DUP2 SUB PUSH1 0x0 DUP4 ADD MSTORE PUSH2 0x101E DUP2 PUSH2 0xFE2 JUMP JUMPDEST SWAP1 POP SWAP2 SWAP1 POP JUMP INVALID LOG2 PUSH5 0x6970667358 0x22 SLT KECCAK256 PUSH10 0x8941E73C35DE2E1D0A24 DUP8 ADDRESS 0x2C 0xEA 0x5C PUSH24 0xCD9367D440D4725EDE80F950022C7764736F6C6343000812 STOP CALLER LOG2 PUSH5 0x6970667358 0x22 SLT KECCAK256 PREVRANDAO SWAP14 EXP DUP5 0xAB 0xC8 0xB0 0xB1 0xCD PUSH24 0xD49197CF0938D2166EECB9F5756D00C4AE469882E5926473 PUSH16 0x6C634300081200330000000000000000 "},"methodIdentifiers":{"approve(address,uint256)":"095ea7b3","balanceOf(address)":"70a08231","createTransferContract(uint256[],address[],address[],uint256[],address[],address)":"75778db1","executeTransfers(address)":"202ff74d","getApproved(uint256)":"081812fc","isApprovedForAll(address,address)":"e985e9c5","isReadyToExecute(address)":"343c5e36","mintNFTs(address,string[],string[])":"48bb5fc6","name()":"06fdde03","owner()":"8da5cb5b","ownerOf(uint256)":"6352211e","preApproveNFTTransfer(uint256,address)":"32f00c64","renounceOwnership()":"715018a6","safeTransferFrom(address,address,uint256)":"42842e0e","safeTransferFrom(address,address,uint256,bytes)":"b88d4fde","setApprovalForAll(address,bool)":"a22cb465","supportsInterface(bytes4)":"01ffc9a7","symbol()":"95d89b41","tokenURI(uint256)":"c87b56dd","transferContracts(address)":"d1382064","transferFrom(address,address,uint256)":"23b872dd","transferOwnership(address)":"f2fde38b","willProtocol()":"ffe6ea49"}}}}}