{
  "_format": "hh-sol-artifact-1",
  "contractName": "WillExecutor",
  "sourceName": "contracts/WillExecutor.sol",
  "abi": [
    {
      "inputs": [],
      "stateMutability": "nonpayable",
      "type": "constructor"
    },
    {
      "anonymous": false,
      "inputs": [
        {
          "indexed": true,
          "internalType": "address",
          "name": "owner",
          "type": "address"
        },
        {
          "indexed": true,
          "internalType": "address",
          "name": "approved",
          "type": "address"
        },
        {
          "indexed": true,
          "internalType": "uint256",
          "name": "tokenId",
          "type": "uint256"
        }
      ],
      "name": "Approval",
      "type": "event"
    },
    {
      "anonymous": false,
      "inputs": [
        {
          "indexed": true,
          "internalType": "address",
          "name": "owner",
          "type": "address"
        },
        {
          "indexed": true,
          "internalType": "address",
          "name": "operator",
          "type": "address"
        },
        {
          "indexed": false,
          "internalType": "bool",
          "name": "approved",
          "type": "bool"
        }
      ],
      "name": "ApprovalForAll",
      "type": "event"
    },
    {
      "anonymous": false,
      "inputs": [
        {
          "indexed": true,
          "internalType": "address",
          "name": "previousOwner",
          "type": "address"
        },
        {
          "indexed": true,
          "internalType": "address",
          "name": "newOwner",
          "type": "address"
        }
      ],
      "name": "OwnershipTransferred",
      "type": "event"
    },
    {
      "anonymous": false,
      "inputs": [
        {
          "indexed": true,
          "internalType": "address",
          "name": "from",
          "type": "address"
        },
        {
          "indexed": true,
          "internalType": "address",
          "name": "to",
          "type": "address"
        },
        {
          "indexed": true,
          "internalType": "uint256",
          "name": "tokenId",
          "type": "uint256"
        }
      ],
      "name": "Transfer",
      "type": "event"
    },
    {
      "inputs": [
        {
          "internalType": "address",
          "name": "to",
          "type": "address"
        },
        {
          "internalType": "uint256",
          "name": "tokenId",
          "type": "uint256"
        }
      ],
      "name": "approve",
      "outputs": [],
      "stateMutability": "nonpayable",
      "type": "function"
    },
    {
      "inputs": [
        {
          "internalType": "address",
          "name": "owner",
          "type": "address"
        }
      ],
      "name": "balanceOf",
      "outputs": [
        {
          "internalType": "uint256",
          "name": "",
          "type": "uint256"
        }
      ],
      "stateMutability": "view",
      "type": "function"
    },
    {
      "inputs": [
        {
          "internalType": "uint256[]",
          "name": "tokenAmounts",
          "type": "uint256[]"
        },
        {
          "internalType": "address[]",
          "name": "tokenAddresses",
          "type": "address[]"
        },
        {
          "internalType": "address[]",
          "name": "tokenRecipients",
          "type": "address[]"
        },
        {
          "internalType": "uint256[]",
          "name": "nftTokenIds",
          "type": "uint256[]"
        },
        {
          "internalType": "address[]",
          "name": "nftRecipients",
          "type": "address[]"
        },
        {
          "internalType": "address",
          "name": "testator",
          "type": "address"
        }
      ],
      "name": "createTransferContract",
      "outputs": [
        {
          "internalType": "address",
          "name": "",
          "type": "address"
        }
      ],
      "stateMutability": "nonpayable",
      "type": "function"
    },
    {
      "inputs": [
        {
          "internalType": "address",
          "name": "testator",
          "type": "address"
        }
      ],
      "name": "executeTransfers",
      "outputs": [],
      "stateMutability": "nonpayable",
      "type": "function"
    },
    {
      "inputs": [
        {
          "internalType": "uint256",
          "name": "tokenId",
          "type": "uint256"
        }
      ],
      "name": "getApproved",
      "outputs": [
        {
          "internalType": "address",
          "name": "",
          "type": "address"
        }
      ],
      "stateMutability": "view",
      "type": "function"
    },
    {
      "inputs": [
        {
          "internalType": "address",
          "name": "owner",
          "type": "address"
        },
        {
          "internalType": "address",
          "name": "operator",
          "type": "address"
        }
      ],
      "name": "isApprovedForAll",
      "outputs": [
        {
          "internalType": "bool",
          "name": "",
          "type": "bool"
        }
      ],
      "stateMutability": "view",
      "type": "function"
    },
    {
      "inputs": [
        {
          "internalType": "address",
          "name": "testator",
          "type": "address"
        }
      ],
      "name": "isReadyToExecute",
      "outputs": [
        {
          "internalType": "bool",
          "name": "",
          "type": "bool"
        }
      ],
      "stateMutability": "view",
      "type": "function"
    },
    {
      "inputs": [
        {
          "internalType": "address",
          "name": "to",
          "type": "address"
        },
        {
          "internalType": "string[]",
          "name": "assetNames",
          "type": "string[]"
        },
        {
          "internalType": "string[]",
          "name": "assetDescriptions",
          "type": "string[]"
        }
      ],
      "name": "mintNFTs",
      "outputs": [
        {
          "internalType": "uint256[]",
          "name": "",
          "type": "uint256[]"
        }
      ],
      "stateMutability": "nonpayable",
      "type": "function"
    },
    {
      "inputs": [],
      "name": "name",
      "outputs": [
        {
          "internalType": "string",
          "name": "",
          "type": "string"
        }
      ],
      "stateMutability": "view",
      "type": "function"
    },
    {
      "inputs": [],
      "name": "owner",
      "outputs": [
        {
          "internalType": "address",
          "name": "",
          "type": "address"
        }
      ],
      "stateMutability": "view",
      "type": "function"
    },
    {
      "inputs": [
        {
          "internalType": "uint256",
          "name": "tokenId",
          "type": "uint256"
        }
      ],
      "name": "ownerOf",
      "outputs": [
        {
          "internalType": "address",
          "name": "",
          "type": "address"
        }
      ],
      "stateMutability": "view",
      "type": "function"
    },
    {
      "inputs": [
        {
          "internalType": "uint256",
          "name": "tokenId",
          "type": "uint256"
        },
        {
          "internalType": "address",
          "name": "recipient",
          "type": "address"
        }
      ],
      "name": "preApproveNFTTransfer",
      "outputs": [],
      "stateMutability": "nonpayable",
      "type": "function"
    },
    {
      "inputs": [],
      "name": "renounceOwnership",
      "outputs": [],
      "stateMutability": "nonpayable",
      "type": "function"
    },
    {
      "inputs": [
        {
          "internalType": "address",
          "name": "from",
          "type": "address"
        },
        {
          "internalType": "address",
          "name": "to",
          "type": "address"
        },
        {
          "internalType": "uint256",
          "name": "tokenId",
          "type": "uint256"
        }
      ],
      "name": "safeTransferFrom",
      "outputs": [],
      "stateMutability": "nonpayable",
      "type": "function"
    },
    {
      "inputs": [
        {
          "internalType": "address",
          "name": "from",
          "type": "address"
        },
        {
          "internalType": "address",
          "name": "to",
          "type": "address"
        },
        {
          "internalType": "uint256",
          "name": "tokenId",
          "type": "uint256"
        },
        {
          "internalType": "bytes",
          "name": "data",
          "type": "bytes"
        }
      ],
      "name": "safeTransferFrom",
      "outputs": [],
      "stateMutability": "nonpayable",
      "type": "function"
    },
    {
      "inputs": [
        {
          "internalType": "address",
          "name": "operator",
          "type": "address"
        },
        {
          "internalType": "bool",
          "name": "approved",
          "type": "bool"
        }
      ],
      "name": "setApprovalForAll",
      "outputs": [],
      "stateMutability": "nonpayable",
      "type": "function"
    },
    {
      "inputs": [
        {
          "internalType": "bytes4",
          "name": "interfaceId",
          "type": "bytes4"
        }
      ],
      "name": "supportsInterface",
      "outputs": [
        {
          "internalType": "bool",
          "name": "",
          "type": "bool"
        }
      ],
      "stateMutability": "view",
      "type": "function"
    },
    {
      "inputs": [],
      "name": "symbol",
      "outputs": [
        {
          "internalType": "string",
          "name": "",
          "type": "string"
        }
      ],
      "stateMutability": "view",
      "type": "function"
    },
    {
      "inputs": [
        {
          "internalType": "uint256",
          "name": "tokenId",
          "type": "uint256"
        }
      ],
      "name": "tokenURI",
      "outputs": [
        {
          "internalType": "string",
          "name": "",
          "type": "string"
        }
      ],
      "stateMutability": "view",
      "type": "function"
    },
    {
      "inputs": [
        {
          "internalType": "address",
          "name": "",
          "type": "address"
        }
      ],
      "name": "transferContracts",
      "outputs": [
        {
          "internalType": "contract TransferContract",
          "name": "",
          "type": "address"
        }
      ],
      "stateMutability": "view",
      "type": "function"
    },
    {
      "inputs": [
        {
          "internalType": "address",
          "name": "from",
          "type": "address"
        },
        {
          "internalType": "address",
          "name": "to",
          "type": "address"
        },
        {
          "internalType": "uint256",
          "name": "tokenId",
          "type": "uint256"
        }
      ],
      "name": "transferFrom",
      "outputs": [],
      "stateMutability": "nonpayable",
      "type": "function"
    },
    {
      "inputs": [
        {
          "internalType": "address",
          "name": "newOwner",
          "type": "address"
        }
      ],
      "name": "transferOwnership",
      "outputs": [],
      "stateMutability": "nonpayable",
      "type": "function"
    },
    {
      "inputs": [],
      "name": "willProtocol",
      "outputs": [
        {
          "internalType": "address",
          "name": "",
          "type": "address"
        }
      ],
      "stateMutability": "view",
      "type": "function"
    }
  ],
  "bytecode": "0x60806040523480156200001157600080fd5b506040518060400160405280601381526020017f50726f70657274795472616e736665724e4654000000000000000000000000008152506040518060400160405280600381526020017f505452000000000000000000000000000000000000000000000000000000000081525081600090816200008f9190620004b6565b508060019081620000a19190620004b6565b505050620000c4620000b86200016e60201b60201c565b6200017660201b60201c565b33600860006101000a81548173ffffffffffffffffffffffffffffffffffffffff021916908373ffffffffffffffffffffffffffffffffffffffff160217905550600860009054906101000a900473ffffffffffffffffffffffffffffffffffffffff16600960006101000a81548173ffffffffffffffffffffffffffffffffffffffff021916908373ffffffffffffffffffffffffffffffffffffffff1602179055506200059d565b600033905090565b6000600760009054906101000a900473ffffffffffffffffffffffffffffffffffffffff16905081600760006101000a81548173ffffffffffffffffffffffffffffffffffffffff021916908373ffffffffffffffffffffffffffffffffffffffff1602179055508173ffffffffffffffffffffffffffffffffffffffff168173ffffffffffffffffffffffffffffffffffffffff167f8be0079c531659141344cd1fd0a4f28419497f9722a3daafe3b4186f6b6457e060405160405180910390a35050565b600081519050919050565b7f4e487b7100000000000000000000000000000000000000000000000000000000600052604160045260246000fd5b7f4e487b7100000000000000000000000000000000000000000000000000000000600052602260045260246000fd5b60006002820490506001821680620002be57607f821691505b602082108103620002d457620002d362000276565b5b50919050565b60008190508160005260206000209050919050565b60006020601f8301049050919050565b600082821b905092915050565b6000600883026200033e7fffffffffffffffffffffffffffffffffffffffffffffffffffffffffffffffff82620002ff565b6200034a8683620002ff565b95508019841693508086168417925050509392505050565b6000819050919050565b6000819050919050565b600062000397620003916200038b8462000362565b6200036c565b62000362565b9050919050565b6000819050919050565b620003b38362000376565b620003cb620003c2826200039e565b8484546200030c565b825550505050565b600090565b620003e2620003d3565b620003ef818484620003a8565b505050565b5b8181101562000417576200040b600082620003d8565b600181019050620003f5565b5050565b601f82111562000466576200043081620002da565b6200043b84620002ef565b810160208510156200044b578190505b620004636200045a85620002ef565b830182620003f4565b50505b505050565b600082821c905092915050565b60006200048b600019846008026200046b565b1980831691505092915050565b6000620004a6838362000478565b9150826002028217905092915050565b620004c1826200023c565b67ffffffffffffffff811115620004dd57620004dc62000247565b5b620004e98254620002a5565b620004f68282856200041b565b600060209050601f8311600181146200052e576000841562000519578287015190505b62000525858262000498565b86555062000595565b601f1984166200053e86620002da565b60005b82811015620005685784890151825560018201915060208501945060208101905062000541565b8683101562000588578489015162000584601f89168262000478565b8355505b6001600288020188555050505b505050505050565b61575d80620005ad6000396000f3fe60806040523480156200001157600080fd5b50600436106200016c5760003560e01c806370a0823111620000d5578063b88d4fde1162000087578063b88d4fde146200041d578063c87b56dd146200043d578063d13820641462000473578063e985e9c514620004a9578063f2fde38b14620004df578063ffe6ea4914620004ff576200016c565b806370a082311462000341578063715018a6146200037757806375778db114620003835780638da5cb5b14620003b957806395d89b4114620003db578063a22cb46514620003fd576200016c565b806323b872dd116200012f57806323b872dd146200023f57806332f00c64146200025f578063343c5e36146200027f57806342842e0e14620002b557806348bb5fc614620002d55780636352211e146200030b576200016c565b806301ffc9a7146200017157806306fdde0314620001a7578063081812fc14620001c9578063095ea7b314620001ff578063202ff74d146200021f575b600080fd5b6200018f6004803603810190620001899190620025cb565b62000521565b6040516200019e91906200261a565b60405180910390f35b620001b162000607565b604051620001c09190620026d1565b60405180910390f35b620001e76004803603810190620001e1919062002730565b620006a1565b604051620001f69190620027a7565b60405180910390f35b6200021d6004803603810190620002179190620027f5565b620006e9565b005b6200023d60048036038101906200023791906200283c565b62000811565b005b6200025d60048036038101906200025791906200286e565b62000938565b005b6200027d6004803603810190620002779190620028ca565b620009a1565b005b6200029d60048036038101906200029791906200283c565b62000a44565b604051620002ac91906200261a565b60405180910390f35b620002d36004803603810190620002cd91906200286e565b62000bb0565b005b620002f36004803603810190620002ed919062002b5e565b62000bd2565b60405162000302919062002cc6565b60405180910390f35b62000329600480360381019062000323919062002730565b62000d8a565b604051620003389190620027a7565b60405180910390f35b6200035f60048036038101906200035991906200283c565b62000e15565b6040516200036e919062002cfb565b60405180910390f35b6200038162000ecf565b005b620003a160048036038101906200039b919062002ec4565b62000ee7565b604051620003b09190620027a7565b60405180910390f35b620003c3620010bc565b604051620003d29190620027a7565b60405180910390f35b620003e5620010e6565b604051620003f49190620026d1565b60405180910390f35b6200041b60048036038101906200041591906200302c565b62001180565b005b6200043b600480360381019062000435919062003127565b6200119a565b005b6200045b600480360381019062000455919062002730565b62001205565b6040516200046a9190620026d1565b60405180910390f35b6200049160048036038101906200048b91906200283c565b6200132b565b604051620004a0919062003223565b60405180910390f35b620004c76004803603810190620004c1919062003240565b6200135e565b604051620004d691906200261a565b60405180910390f35b620004fd6004803603810190620004f791906200283c565b620013f2565b005b620005096200147c565b604051620005189190620027a7565b60405180910390f35b60007f80ac58cd000000000000000000000000000000000000000000000000000000007bffffffffffffffffffffffffffffffffffffffffffffffffffffffff1916827bffffffffffffffffffffffffffffffffffffffffffffffffffffffff19161480620005ed57507f5b5e139f000000000000000000000000000000000000000000000000000000007bffffffffffffffffffffffffffffffffffffffffffffffffffffffff1916827bffffffffffffffffffffffffffffffffffffffffffffffffffffffff1916145b80620006005750620005ff82620014a2565b5b9050919050565b6060600080546200061890620032b6565b80601f01602080910402602001604051908101604052809291908181526020018280546200064690620032b6565b8015620006975780601f106200066b5761010080835404028352916020019162000697565b820191906000526020600020905b8154815290600101906020018083116200067957829003601f168201915b5050505050905090565b6000620006ae826200150c565b6004600083815260200190815260200160002060009054906101000a900473ffffffffffffffffffffffffffffffffffffffff169050919050565b6000620006f68262000d8a565b90508073ffffffffffffffffffffffffffffffffffffffff168373ffffffffffffffffffffffffffffffffffffffff160362000769576040517f08c379a0000000000000000000000000000000000000000000000000000000008152600401620007609062003361565b60405180910390fd5b8073ffffffffffffffffffffffffffffffffffffffff166200078a6200155c565b73ffffffffffffffffffffffffffffffffffffffff161480620007be5750620007bd81620007b76200155c565b6200135e565b5b62000800576040517f08c379a0000000000000000000000000000000000000000000000000000000008152600401620007f790620033f9565b60405180910390fd5b6200080c838362001564565b505050565b6200081b6200161f565b620008268162000a44565b62000868576040517f08c379a00000000000000000000000000000000000000000000000000000000081526004016200085f906200346b565b60405180910390fd5b6000600b60008373ffffffffffffffffffffffffffffffffffffffff1673ffffffffffffffffffffffffffffffffffffffff16815260200190815260200160002060009054906101000a900473ffffffffffffffffffffffffffffffffffffffff16905060008190508073ffffffffffffffffffffffffffffffffffffffff16639699114c6040518163ffffffff1660e01b8152600401600060405180830381600087803b1580156200091a57600080fd5b505af11580156200092f573d6000803e3d6000fd5b50505050505050565b6200094d620009466200155c565b82620016a4565b6200098f576040517f08c379a0000000000000000000000000000000000000000000000000000000008152600401620009869062003503565b60405180910390fd5b6200099c83838362001741565b505050565b600860009054906101000a900473ffffffffffffffffffffffffffffffffffffffff1673ffffffffffffffffffffffffffffffffffffffff163373ffffffffffffffffffffffffffffffffffffffff161462000a34576040517f08c379a000000000000000000000000000000000000000000000000000000000815260040162000a2b906200359b565b60405180910390fd5b62000a408183620006e9565b5050565b600080600960009054906101000a900473ffffffffffffffffffffffffffffffffffffffff1673ffffffffffffffffffffffffffffffffffffffff1663bf9c3cec846040518263ffffffff1660e01b815260040162000aa49190620027a7565b602060405180830381865afa15801562000ac2573d6000803e3d6000fd5b505050506040513d601f19601f8201168201806040525081019062000ae89190620035d4565b90506000600960009054906101000a900473ffffffffffffffffffffffffffffffffffffffff1673ffffffffffffffffffffffffffffffffffffffff16638ee58187856040518263ffffffff1660e01b815260040162000b499190620027a7565b602060405180830381865afa15801562000b67573d6000803e3d6000fd5b505050506040513d601f19601f8201168201806040525081019062000b8d9190620035d4565b9050600060018262000ba0919062003635565b9050808310159350505050919050565b62000bcd838383604051806020016040528060008152506200119a565b505050565b6060600860009054906101000a900473ffffffffffffffffffffffffffffffffffffffff1673ffffffffffffffffffffffffffffffffffffffff163373ffffffffffffffffffffffffffffffffffffffff161462000c67576040517f08c379a000000000000000000000000000000000000000000000000000000000815260040162000c5e90620036c0565b60405180910390fd5b6000835167ffffffffffffffff81111562000c875762000c8662002916565b5b60405190808252806020026020018201604052801562000cb65781602001602082028036833780820191505090505b50905060005b845181101562000d7e576000600a54905062000cd9878262001a4b565b62000d2a8162000d2488858151811062000cf85762000cf7620036e2565b5b602002602001015188868151811062000d165762000d15620036e2565b5b602002602001015162001a6b565b62001a99565b8083838151811062000d415762000d40620036e2565b5b602002602001018181525050600a600081548092919062000d629062003711565b919050555050808062000d759062003711565b91505062000cbc565b50809150509392505050565b60008062000d988362001b0d565b9050600073ffffffffffffffffffffffffffffffffffffffff168173ffffffffffffffffffffffffffffffffffffffff160362000e0c576040517f08c379a000000000000000000000000000000000000000000000000000000000815260040162000e0390620037ae565b60405180910390fd5b80915050919050565b60008073ffffffffffffffffffffffffffffffffffffffff168273ffffffffffffffffffffffffffffffffffffffff160362000e88576040517f08c379a000000000000000000000000000000000000000000000000000000000815260040162000e7f9062003846565b60405180910390fd5b600360008373ffffffffffffffffffffffffffffffffffffffff1673ffffffffffffffffffffffffffffffffffffffff168152602001908152602001600020549050919050565b62000ed96200161f565b62000ee5600062001b4a565b565b6000600860009054906101000a900473ffffffffffffffffffffffffffffffffffffffff1673ffffffffffffffffffffffffffffffffffffffff163373ffffffffffffffffffffffffffffffffffffffff161462000f7c576040517f08c379a000000000000000000000000000000000000000000000000000000000815260040162000f7390620038de565b60405180910390fd5b60003060405162000f8d906200254c565b62000f999190620027a7565b604051809103906000f08015801562000fb6573d6000803e3d6000fd5b50905080600b60008573ffffffffffffffffffffffffffffffffffffffff1673ffffffffffffffffffffffffffffffffffffffff16815260200190815260200160002060006101000a81548173ffffffffffffffffffffffffffffffffffffffff021916908373ffffffffffffffffffffffffffffffffffffffff1602179055508073ffffffffffffffffffffffffffffffffffffffff1663b15a0c5889898989896040518663ffffffff1660e01b81526004016200107a959493929190620039ce565b600060405180830381600087803b1580156200109557600080fd5b505af1158015620010aa573d6000803e3d6000fd5b50505050809150509695505050505050565b6000600760009054906101000a900473ffffffffffffffffffffffffffffffffffffffff16905090565b606060018054620010f790620032b6565b80601f01602080910402602001604051908101604052809291908181526020018280546200112590620032b6565b8015620011765780601f106200114a5761010080835404028352916020019162001176565b820191906000526020600020905b8154815290600101906020018083116200115857829003601f168201915b5050505050905090565b620011966200118e6200155c565b838362001c10565b5050565b620011af620011a86200155c565b83620016a4565b620011f1576040517f08c379a0000000000000000000000000000000000000000000000000000000008152600401620011e89062003503565b60405180910390fd5b620011ff8484848462001d81565b50505050565b606062001212826200150c565b60006006600084815260200190815260200160002080546200123490620032b6565b80601f01602080910402602001604051908101604052809291908181526020018280546200126290620032b6565b8015620012b35780601f106200128757610100808354040283529160200191620012b3565b820191906000526020600020905b8154815290600101906020018083116200129557829003601f168201915b505050505090506000620012c662001de4565b90506000815103620012dd57819250505062001326565b60008251111562001316578082604051602001620012fd92919062003a90565b6040516020818303038152906040529250505062001326565b620013218462001dfb565b925050505b919050565b600b6020528060005260406000206000915054906101000a900473ffffffffffffffffffffffffffffffffffffffff1681565b6000600560008473ffffffffffffffffffffffffffffffffffffffff1673ffffffffffffffffffffffffffffffffffffffff16815260200190815260200160002060008373ffffffffffffffffffffffffffffffffffffffff1673ffffffffffffffffffffffffffffffffffffffff16815260200190815260200160002060009054906101000a900460ff16905092915050565b620013fc6200161f565b600073ffffffffffffffffffffffffffffffffffffffff168173ffffffffffffffffffffffffffffffffffffffff16036200146e576040517f08c379a0000000000000000000000000000000000000000000000000000000008152600401620014659062003b2e565b60405180910390fd5b620014798162001b4a565b50565b600860009054906101000a900473ffffffffffffffffffffffffffffffffffffffff1681565b60007f01ffc9a7000000000000000000000000000000000000000000000000000000007bffffffffffffffffffffffffffffffffffffffffffffffffffffffff1916827bffffffffffffffffffffffffffffffffffffffffffffffffffffffff1916149050919050565b620015178162001e6d565b62001559576040517f08c379a00000000000000000000000000000000000000000000000000000000081526004016200155090620037ae565b60405180910390fd5b50565b600033905090565b816004600083815260200190815260200160002060006101000a81548173ffffffffffffffffffffffffffffffffffffffff021916908373ffffffffffffffffffffffffffffffffffffffff160217905550808273ffffffffffffffffffffffffffffffffffffffff16620015d98362000d8a565b73ffffffffffffffffffffffffffffffffffffffff167f8c5be1e5ebec7d5bd14f71427d1e84f3dd0314c0f7b2291e5b200ac8c7c3b92560405160405180910390a45050565b620016296200155c565b73ffffffffffffffffffffffffffffffffffffffff1662001649620010bc565b73ffffffffffffffffffffffffffffffffffffffff1614620016a2576040517f08c379a0000000000000000000000000000000000000000000000000000000008152600401620016999062003ba0565b60405180910390fd5b565b600080620016b28362000d8a565b90508073ffffffffffffffffffffffffffffffffffffffff168473ffffffffffffffffffffffffffffffffffffffff161480620016f75750620016f681856200135e565b5b806200173857508373ffffffffffffffffffffffffffffffffffffffff166200172084620006a1565b73ffffffffffffffffffffffffffffffffffffffff16145b91505092915050565b8273ffffffffffffffffffffffffffffffffffffffff16620017638262000d8a565b73ffffffffffffffffffffffffffffffffffffffff1614620017bc576040517f08c379a0000000000000000000000000000000000000000000000000000000008152600401620017b39062003c38565b60405180910390fd5b600073ffffffffffffffffffffffffffffffffffffffff168273ffffffffffffffffffffffffffffffffffffffff16036200182e576040517f08c379a0000000000000000000000000000000000000000000000000000000008152600401620018259062003cd0565b60405180910390fd5b6200183d838383600162001eb0565b8273ffffffffffffffffffffffffffffffffffffffff166200185f8262000d8a565b73ffffffffffffffffffffffffffffffffffffffff1614620018b8576040517f08c379a0000000000000000000000000000000000000000000000000000000008152600401620018af9062003c38565b60405180910390fd5b6004600082815260200190815260200160002060006101000a81549073ffffffffffffffffffffffffffffffffffffffff02191690556001600360008573ffffffffffffffffffffffffffffffffffffffff1673ffffffffffffffffffffffffffffffffffffffff168152602001908152602001600020600082825403925050819055506001600360008473ffffffffffffffffffffffffffffffffffffffff1673ffffffffffffffffffffffffffffffffffffffff16815260200190815260200160002060008282540192505081905550816002600083815260200190815260200160002060006101000a81548173ffffffffffffffffffffffffffffffffffffffff021916908373ffffffffffffffffffffffffffffffffffffffff160217905550808273ffffffffffffffffffffffffffffffffffffffff168473ffffffffffffffffffffffffffffffffffffffff167fddf252ad1be2c89b69c2b068fc378daa952ba7f163c4a11628f55a4df523b3ef60405160405180910390a462001a46838383600162001eb6565b505050565b62001a6782826040518060200160405280600081525062001ebc565b5050565b6060828260405160200162001a8292919062003e08565b604051602081830303815290604052905092915050565b62001aa48262001e6d565b62001ae6576040517f08c379a000000000000000000000000000000000000000000000000000000000815260040162001add9062003ecd565b60405180910390fd5b8060066000848152602001908152602001600020908162001b089190620040b7565b505050565b60006002600083815260200190815260200160002060009054906101000a900473ffffffffffffffffffffffffffffffffffffffff169050919050565b6000600760009054906101000a900473ffffffffffffffffffffffffffffffffffffffff16905081600760006101000a81548173ffffffffffffffffffffffffffffffffffffffff021916908373ffffffffffffffffffffffffffffffffffffffff1602179055508173ffffffffffffffffffffffffffffffffffffffff168173ffffffffffffffffffffffffffffffffffffffff167f8be0079c531659141344cd1fd0a4f28419497f9722a3daafe3b4186f6b6457e060405160405180910390a35050565b8173ffffffffffffffffffffffffffffffffffffffff168373ffffffffffffffffffffffffffffffffffffffff160362001c81576040517f08c379a000000000000000000000000000000000000000000000000000000000815260040162001c7890620041ee565b60405180910390fd5b80600560008573ffffffffffffffffffffffffffffffffffffffff1673ffffffffffffffffffffffffffffffffffffffff16815260200190815260200160002060008473ffffffffffffffffffffffffffffffffffffffff1673ffffffffffffffffffffffffffffffffffffffff16815260200190815260200160002060006101000a81548160ff0219169083151502179055508173ffffffffffffffffffffffffffffffffffffffff168373ffffffffffffffffffffffffffffffffffffffff167f17307eab39ab6107e8899845ad3d59bd9653f200f220920489ca2b5937696c318360405162001d7491906200261a565b60405180910390a3505050565b62001d8e84848462001741565b62001d9c8484848462001f1e565b62001dde576040517f08c379a000000000000000000000000000000000000000000000000000000000815260040162001dd59062004286565b60405180910390fd5b50505050565b606060405180602001604052806000815250905090565b606062001e08826200150c565b600062001e1462001de4565b9050600081511162001e36576040518060200160405280600081525062001e65565b8062001e4284620020b6565b60405160200162001e5592919062003a90565b6040516020818303038152906040525b915050919050565b60008073ffffffffffffffffffffffffffffffffffffffff1662001e918362001b0d565b73ffffffffffffffffffffffffffffffffffffffff1614159050919050565b50505050565b50505050565b62001ec883836200218f565b62001ed7600084848462001f1e565b62001f19576040517f08c379a000000000000000000000000000000000000000000000000000000000815260040162001f109062004286565b60405180910390fd5b505050565b600062001f418473ffffffffffffffffffffffffffffffffffffffff16620023bd565b15620020a9578373ffffffffffffffffffffffffffffffffffffffff1663150b7a0262001f6d6200155c565b8786866040518563ffffffff1660e01b815260040162001f91949392919062004305565b6020604051808303816000875af192505050801562001fd057506040513d601f19601f8201168201806040525081019062001fcd919062004370565b60015b62002058573d806000811462002003576040519150601f19603f3d011682016040523d82523d6000602084013e62002008565b606091505b50600081510362002050576040517f08c379a0000000000000000000000000000000000000000000000000000000008152600401620020479062004286565b60405180910390fd5b805181602001fd5b63150b7a0260e01b7bffffffffffffffffffffffffffffffffffffffffffffffffffffffff1916817bffffffffffffffffffffffffffffffffffffffffffffffffffffffff191614915050620020ae565b600190505b949350505050565b606060006001620020c784620023e0565b01905060008167ffffffffffffffff811115620020e957620020e862002916565b5b6040519080825280601f01601f1916602001820160405280156200211c5781602001600182028036833780820191505090505b509050600082602001820190505b60011562002184578080600190039150507f3031323334353637383961626364656600000000000000000000000000000000600a86061a8153600a8581620021775762002176620043a2565b5b049450600085036200212a575b819350505050919050565b600073ffffffffffffffffffffffffffffffffffffffff168273ffffffffffffffffffffffffffffffffffffffff160362002201576040517f08c379a0000000000000000000000000000000000000000000000000000000008152600401620021f89062004421565b60405180910390fd5b6200220c8162001e6d565b156200224f576040517f08c379a0000000000000000000000000000000000000000000000000000000008152600401620022469062004493565b60405180910390fd5b6200225f60008383600162001eb0565b6200226a8162001e6d565b15620022ad576040517f08c379a0000000000000000000000000000000000000000000000000000000008152600401620022a49062004493565b60405180910390fd5b6001600360008473ffffffffffffffffffffffffffffffffffffffff1673ffffffffffffffffffffffffffffffffffffffff16815260200190815260200160002060008282540192505081905550816002600083815260200190815260200160002060006101000a81548173ffffffffffffffffffffffffffffffffffffffff021916908373ffffffffffffffffffffffffffffffffffffffff160217905550808273ffffffffffffffffffffffffffffffffffffffff16600073ffffffffffffffffffffffffffffffffffffffff167fddf252ad1be2c89b69c2b068fc378daa952ba7f163c4a11628f55a4df523b3ef60405160405180910390a4620023b960008383600162001eb6565b5050565b6000808273ffffffffffffffffffffffffffffffffffffffff163b119050919050565b600080600090507a184f03e93ff9f4daa797ed6e38ed64bf6a1f010000000000000000831062002442577a184f03e93ff9f4daa797ed6e38ed64bf6a1f0100000000000000008381620024385762002437620043a2565b5b0492506040810190505b6d04ee2d6d415b85acef8100000000831062002483576d04ee2d6d415b85acef81000000008381620024795762002478620043a2565b5b0492506020810190505b662386f26fc100008310620024b657662386f26fc100008381620024ac57620024ab620043a2565b5b0492506010810190505b6305f5e1008310620024e3576305f5e1008381620024d957620024d8620043a2565b5b0492506008810190505b61271083106200250c576127108381620025025762002501620043a2565b5b0492506004810190505b60648310620025335760648381620025295762002528620043a2565b5b0492506002810190505b600a831062002543576001810190505b80915050919050565b61127280620044b683390190565b6000604051905090565b600080fd5b600080fd5b60007fffffffff0000000000000000000000000000000000000000000000000000000082169050919050565b620025a5816200256e565b8114620025b157600080fd5b50565b600081359050620025c5816200259a565b92915050565b600060208284031215620025e457620025e362002564565b5b6000620025f484828501620025b4565b91505092915050565b60008115159050919050565b6200261481620025fd565b82525050565b600060208201905062002631600083018462002609565b92915050565b600081519050919050565b600082825260208201905092915050565b60005b838110156200267357808201518184015260208101905062002656565b60008484015250505050565b6000601f19601f8301169050919050565b60006200269d8262002637565b620026a9818562002642565b9350620026bb81856020860162002653565b620026c6816200267f565b840191505092915050565b60006020820190508181036000830152620026ed818462002690565b905092915050565b6000819050919050565b6200270a81620026f5565b81146200271657600080fd5b50565b6000813590506200272a81620026ff565b92915050565b60006020828403121562002749576200274862002564565b5b6000620027598482850162002719565b91505092915050565b600073ffffffffffffffffffffffffffffffffffffffff82169050919050565b60006200278f8262002762565b9050919050565b620027a18162002782565b82525050565b6000602082019050620027be600083018462002796565b92915050565b620027cf8162002782565b8114620027db57600080fd5b50565b600081359050620027ef81620027c4565b92915050565b600080604083850312156200280f576200280e62002564565b5b60006200281f85828601620027de565b9250506020620028328582860162002719565b9150509250929050565b60006020828403121562002855576200285462002564565b5b60006200286584828501620027de565b91505092915050565b6000806000606084860312156200288a576200288962002564565b5b60006200289a86828701620027de565b9350506020620028ad86828701620027de565b9250506040620028c08682870162002719565b9150509250925092565b60008060408385031215620028e457620028e362002564565b5b6000620028f48582860162002719565b92505060206200290785828601620027de565b9150509250929050565b600080fd5b7f4e487b7100000000000000000000000000000000000000000000000000000000600052604160045260246000fd5b62002950826200267f565b810181811067ffffffffffffffff8211171562002972576200297162002916565b5b80604052505050565b6000620029876200255a565b905062002995828262002945565b919050565b600067ffffffffffffffff821115620029b857620029b762002916565b5b602082029050602081019050919050565b600080fd5b600080fd5b600067ffffffffffffffff821115620029f157620029f062002916565b5b620029fc826200267f565b9050602081019050919050565b82818337600083830152505050565b600062002a2f62002a2984620029d3565b6200297b565b90508281526020810184848401111562002a4e5762002a4d620029ce565b5b62002a5b84828562002a09565b509392505050565b600082601f83011262002a7b5762002a7a62002911565b5b813562002a8d84826020860162002a18565b91505092915050565b600062002aad62002aa7846200299a565b6200297b565b9050808382526020820190506020840283018581111562002ad35762002ad2620029c9565b5b835b8181101562002b2157803567ffffffffffffffff81111562002afc5762002afb62002911565b5b80860162002b0b898262002a63565b8552602085019450505060208101905062002ad5565b5050509392505050565b600082601f83011262002b435762002b4262002911565b5b813562002b5584826020860162002a96565b91505092915050565b60008060006060848603121562002b7a5762002b7962002564565b5b600062002b8a86828701620027de565b935050602084013567ffffffffffffffff81111562002bae5762002bad62002569565b5b62002bbc8682870162002b2b565b925050604084013567ffffffffffffffff81111562002be05762002bdf62002569565b5b62002bee8682870162002b2b565b9150509250925092565b600081519050919050565b600082825260208201905092915050565b6000819050602082019050919050565b62002c2f81620026f5565b82525050565b600062002c43838362002c24565b60208301905092915050565b6000602082019050919050565b600062002c698262002bf8565b62002c75818562002c03565b935062002c828362002c14565b8060005b8381101562002cb957815162002c9d888262002c35565b975062002caa8362002c4f565b92505060018101905062002c86565b5085935050505092915050565b6000602082019050818103600083015262002ce2818462002c5c565b905092915050565b62002cf581620026f5565b82525050565b600060208201905062002d12600083018462002cea565b92915050565b600067ffffffffffffffff82111562002d365762002d3562002916565b5b602082029050602081019050919050565b600062002d5e62002d588462002d18565b6200297b565b9050808382526020820190506020840283018581111562002d845762002d83620029c9565b5b835b8181101562002db1578062002d9c888262002719565b84526020840193505060208101905062002d86565b5050509392505050565b600082601f83011262002dd35762002dd262002911565b5b813562002de584826020860162002d47565b91505092915050565b600067ffffffffffffffff82111562002e0c5762002e0b62002916565b5b602082029050602081019050919050565b600062002e3462002e2e8462002dee565b6200297b565b9050808382526020820190506020840283018581111562002e5a5762002e59620029c9565b5b835b8181101562002e87578062002e728882620027de565b84526020840193505060208101905062002e5c565b5050509392505050565b600082601f83011262002ea95762002ea862002911565b5b813562002ebb84826020860162002e1d565b91505092915050565b60008060008060008060c0878903121562002ee45762002ee362002564565b5b600087013567ffffffffffffffff81111562002f055762002f0462002569565b5b62002f1389828a0162002dbb565b965050602087013567ffffffffffffffff81111562002f375762002f3662002569565b5b62002f4589828a0162002e91565b955050604087013567ffffffffffffffff81111562002f695762002f6862002569565b5b62002f7789828a0162002e91565b945050606087013567ffffffffffffffff81111562002f9b5762002f9a62002569565b5b62002fa989828a0162002dbb565b935050608087013567ffffffffffffffff81111562002fcd5762002fcc62002569565b5b62002fdb89828a0162002e91565b92505060a062002fee89828a01620027de565b9150509295509295509295565b6200300681620025fd565b81146200301257600080fd5b50565b600081359050620030268162002ffb565b92915050565b6000806040838503121562003046576200304562002564565b5b60006200305685828601620027de565b9250506020620030698582860162003015565b9150509250929050565b600067ffffffffffffffff82111562003091576200309062002916565b5b6200309c826200267f565b9050602081019050919050565b6000620030c0620030ba8462003073565b6200297b565b905082815260208101848484011115620030df57620030de620029ce565b5b620030ec84828562002a09565b509392505050565b600082601f8301126200310c576200310b62002911565b5b81356200311e848260208601620030a9565b91505092915050565b6000806000806080858703121562003144576200314362002564565b5b60006200315487828801620027de565b94505060206200316787828801620027de565b93505060406200317a8782880162002719565b925050606085013567ffffffffffffffff8111156200319e576200319d62002569565b5b620031ac87828801620030f4565b91505092959194509250565b6000819050919050565b6000620031e3620031dd620031d78462002762565b620031b8565b62002762565b9050919050565b6000620031f782620031c2565b9050919050565b60006200320b82620031ea565b9050919050565b6200321d81620031fe565b82525050565b60006020820190506200323a600083018462003212565b92915050565b600080604083850312156200325a576200325962002564565b5b60006200326a85828601620027de565b92505060206200327d85828601620027de565b9150509250929050565b7f4e487b7100000000000000000000000000000000000000000000000000000000600052602260045260246000fd5b60006002820490506001821680620032cf57607f821691505b602082108103620032e557620032e462003287565b5b50919050565b7f4552433732313a20617070726f76616c20746f2063757272656e74206f776e6560008201527f7200000000000000000000000000000000000000000000000000000000000000602082015250565b60006200334960218362002642565b91506200335682620032eb565b604082019050919050565b600060208201905081810360008301526200337c816200333a565b9050919050565b7f4552433732313a20617070726f76652063616c6c6572206973206e6f7420746f60008201527f6b656e206f776e6572206f7220617070726f76656420666f7220616c6c000000602082015250565b6000620033e1603d8362002642565b9150620033ee8262003383565b604082019050919050565b600060208201905081810360008301526200341481620033d2565b9050919050565b7f4e6f7420656e6f75676820736967616e74757265730000000000000000000000600082015250565b60006200345360158362002642565b915062003460826200341b565b602082019050919050565b60006020820190508181036000830152620034868162003444565b9050919050565b7f4552433732313a2063616c6c6572206973206e6f7420746f6b656e206f776e6560008201527f72206f7220617070726f76656400000000000000000000000000000000000000602082015250565b6000620034eb602d8362002642565b9150620034f8826200348d565b604082019050919050565b600060208201905081810360008301526200351e81620034dc565b9050919050565b7f4f6e6c792057696c6c50726f746f636f6c2063616e207072652d617070726f7660008201527f65204e4654207472616e73666572730000000000000000000000000000000000602082015250565b600062003583602f8362002642565b9150620035908262003525565b604082019050919050565b60006020820190508181036000830152620035b68162003574565b9050919050565b600081519050620035ce81620026ff565b92915050565b600060208284031215620035ed57620035ec62002564565b5b6000620035fd84828501620035bd565b91505092915050565b7f4e487b7100000000000000000000000000000000000000000000000000000000600052601160045260246000fd5b60006200364282620026f5565b91506200364f83620026f5565b92508282039050818111156200366a576200366962003606565b5b92915050565b7f4f6e6c792057696c6c50726f746f636f6c2063616e206d696e74204e46547300600082015250565b6000620036a8601f8362002642565b9150620036b58262003670565b602082019050919050565b60006020820190508181036000830152620036db8162003699565b9050919050565b7f4e487b7100000000000000000000000000000000000000000000000000000000600052603260045260246000fd5b60006200371e82620026f5565b91507fffffffffffffffffffffffffffffffffffffffffffffffffffffffffffffffff820362003753576200375262003606565b5b600182019050919050565b7f4552433732313a20696e76616c696420746f6b656e2049440000000000000000600082015250565b60006200379660188362002642565b9150620037a3826200375e565b602082019050919050565b60006020820190508181036000830152620037c98162003787565b9050919050565b7f4552433732313a2061646472657373207a65726f206973206e6f74206120766160008201527f6c6964206f776e65720000000000000000000000000000000000000000000000602082015250565b60006200382e60298362002642565b91506200383b82620037d0565b604082019050919050565b6000602082019050818103600083015262003861816200381f565b9050919050565b7f4f6e6c792057696c6c50726f746f636f6c2063616e206372656174652061205460008201527f72616e73666572436f6e74726163740000000000000000000000000000000000602082015250565b6000620038c6602f8362002642565b9150620038d38262003868565b604082019050919050565b60006020820190508181036000830152620038f981620038b7565b9050919050565b600081519050919050565b600082825260208201905092915050565b6000819050602082019050919050565b620039378162002782565b82525050565b60006200394b83836200392c565b60208301905092915050565b6000602082019050919050565b6000620039718262003900565b6200397d81856200390b565b93506200398a836200391c565b8060005b83811015620039c1578151620039a588826200393d565b9750620039b28362003957565b9250506001810190506200398e565b5085935050505092915050565b600060a0820190508181036000830152620039ea818862002c5c565b9050818103602083015262003a00818762003964565b9050818103604083015262003a16818662003964565b9050818103606083015262003a2c818562002c5c565b9050818103608083015262003a42818462003964565b90509695505050505050565b600081905092915050565b600062003a668262002637565b62003a72818562003a4e565b935062003a8481856020860162002653565b80840191505092915050565b600062003a9e828562003a59565b915062003aac828462003a59565b91508190509392505050565b7f4f776e61626c653a206e6577206f776e657220697320746865207a65726f206160008201527f6464726573730000000000000000000000000000000000000000000000000000602082015250565b600062003b1660268362002642565b915062003b238262003ab8565b604082019050919050565b6000602082019050818103600083015262003b498162003b07565b9050919050565b7f4f776e61626c653a2063616c6c6572206973206e6f7420746865206f776e6572600082015250565b600062003b8860208362002642565b915062003b958262003b50565b602082019050919050565b6000602082019050818103600083015262003bbb8162003b79565b9050919050565b7f4552433732313a207472616e736665722066726f6d20696e636f72726563742060008201527f6f776e6572000000000000000000000000000000000000000000000000000000602082015250565b600062003c2060258362002642565b915062003c2d8262003bc2565b604082019050919050565b6000602082019050818103600083015262003c538162003c11565b9050919050565b7f4552433732313a207472616e7366657220746f20746865207a65726f2061646460008201527f7265737300000000000000000000000000000000000000000000000000000000602082015250565b600062003cb860248362002642565b915062003cc58262003c5a565b604082019050919050565b6000602082019050818103600083015262003ceb8162003ca9565b9050919050565b7f646174613a6170706c69636174696f6e2f6a736f6e3b6261736536342c7b226e60008201527f616d65223a220000000000000000000000000000000000000000000000000000602082015250565b600062003d5060268362003a4e565b915062003d5d8262003cf2565b602682019050919050565b7f222c226465736372697074696f6e223a22000000000000000000000000000000600082015250565b600062003da060118362003a4e565b915062003dad8262003d68565b601182019050919050565b7f227d000000000000000000000000000000000000000000000000000000000000600082015250565b600062003df060028362003a4e565b915062003dfd8262003db8565b600282019050919050565b600062003e158262003d41565b915062003e23828562003a59565b915062003e308262003d91565b915062003e3e828462003a59565b915062003e4b8262003de1565b91508190509392505050565b7f45524337323155524953746f726167653a2055524920736574206f66206e6f6e60008201527f6578697374656e7420746f6b656e000000000000000000000000000000000000602082015250565b600062003eb5602e8362002642565b915062003ec28262003e57565b604082019050919050565b6000602082019050818103600083015262003ee88162003ea6565b9050919050565b60008190508160005260206000209050919050565b60006020601f8301049050919050565b600082821b905092915050565b60006008830262003f537fffffffffffffffffffffffffffffffffffffffffffffffffffffffffffffffff8262003f14565b62003f5f868362003f14565b95508019841693508086168417925050509392505050565b600062003f9862003f9262003f8c84620026f5565b620031b8565b620026f5565b9050919050565b6000819050919050565b62003fb48362003f77565b62003fcc62003fc38262003f9f565b84845462003f21565b825550505050565b600090565b62003fe362003fd4565b62003ff081848462003fa9565b505050565b5b8181101562004018576200400c60008262003fd9565b60018101905062003ff6565b5050565b601f8211156200406757620040318162003eef565b6200403c8462003f04565b810160208510156200404c578190505b620040646200405b8562003f04565b83018262003ff5565b50505b505050565b600082821c905092915050565b60006200408c600019846008026200406c565b1980831691505092915050565b6000620040a7838362004079565b9150826002028217905092915050565b620040c28262002637565b67ffffffffffffffff811115620040de57620040dd62002916565b5b620040ea8254620032b6565b620040f78282856200401c565b600060209050601f8311600181146200412f57600084156200411a578287015190505b62004126858262004099565b86555062004196565b601f1984166200413f8662003eef565b60005b82811015620041695784890151825560018201915060208501945060208101905062004142565b8683101562004189578489015162004185601f89168262004079565b8355505b6001600288020188555050505b505050505050565b7f4552433732313a20617070726f766520746f2063616c6c657200000000000000600082015250565b6000620041d660198362002642565b9150620041e3826200419e565b602082019050919050565b600060208201905081810360008301526200420981620041c7565b9050919050565b7f4552433732313a207472616e7366657220746f206e6f6e20455243373231526560008201527f63656976657220696d706c656d656e7465720000000000000000000000000000602082015250565b60006200426e60328362002642565b91506200427b8262004210565b604082019050919050565b60006020820190508181036000830152620042a1816200425f565b9050919050565b600081519050919050565b600082825260208201905092915050565b6000620042d182620042a8565b620042dd8185620042b3565b9350620042ef81856020860162002653565b620042fa816200267f565b840191505092915050565b60006080820190506200431c600083018762002796565b6200432b602083018662002796565b6200433a604083018562002cea565b81810360608301526200434e8184620042c4565b905095945050505050565b6000815190506200436a816200259a565b92915050565b60006020828403121562004389576200438862002564565b5b6000620043998482850162004359565b91505092915050565b7f4e487b7100000000000000000000000000000000000000000000000000000000600052601260045260246000fd5b7f4552433732313a206d696e7420746f20746865207a65726f2061646472657373600082015250565b60006200440960208362002642565b91506200441682620043d1565b602082019050919050565b600060208201905081810360008301526200443c81620043fa565b9050919050565b7f4552433732313a20746f6b656e20616c7265616479206d696e74656400000000600082015250565b60006200447b601c8362002642565b9150620044888262004443565b602082019050919050565b60006020820190508181036000830152620044ae816200446c565b905091905056fe60806040523480156200001157600080fd5b5060405162001272380380620012728339818101604052810190620000379190620001d5565b620000576200004b6200009f60201b60201c565b620000a760201b60201c565b80600660006101000a81548173ffffffffffffffffffffffffffffffffffffffff021916908373ffffffffffffffffffffffffffffffffffffffff1602179055505062000207565b600033905090565b60008060009054906101000a900473ffffffffffffffffffffffffffffffffffffffff169050816000806101000a81548173ffffffffffffffffffffffffffffffffffffffff021916908373ffffffffffffffffffffffffffffffffffffffff1602179055508173ffffffffffffffffffffffffffffffffffffffff168173ffffffffffffffffffffffffffffffffffffffff167f8be0079c531659141344cd1fd0a4f28419497f9722a3daafe3b4186f6b6457e060405160405180910390a35050565b600080fd5b600073ffffffffffffffffffffffffffffffffffffffff82169050919050565b60006200019d8262000170565b9050919050565b620001af8162000190565b8114620001bb57600080fd5b50565b600081519050620001cf81620001a4565b92915050565b600060208284031215620001ee57620001ed6200016b565b5b6000620001fe84828501620001be565b91505092915050565b61105b80620002176000396000f3fe608060405234801561001057600080fd5b50600436106100575760003560e01c8063715018a61461005c5780638da5cb5b146100665780639699114c14610084578063b15a0c581461008e578063f2fde38b146100aa575b600080fd5b6100646100c6565b005b61006e6100da565b60405161007b91906108a1565b60405180910390f35b61008c610103565b005b6100a860048036038101906100a39190610b4e565b61051d565b005b6100c460048036038101906100bf9190610c55565b61059f565b005b6100ce610622565b6100d860006106a0565b565b60008060009054906101000a900473ffffffffffffffffffffffffffffffffffffffff16905090565b61010b610622565b600660149054906101000a900460ff161561015b576040517f08c379a000000000000000000000000000000000000000000000000000000000815260040161015290610cdf565b60405180910390fd5b60006101656100da565b905060008173ffffffffffffffffffffffffffffffffffffffff16633b0683cc6040518163ffffffff1660e01b8152600401602060405180830381865afa1580156101b4573d6000803e3d6000fd5b505050506040513d601f19601f820116820180604052508101906101d89190610d3d565b90508073ffffffffffffffffffffffffffffffffffffffff1663343c5e366101fe6100da565b6040518263ffffffff1660e01b815260040161021a91906108a1565b602060405180830381865afa158015610237573d6000803e3d6000fd5b505050506040513d601f19601f8201168201806040525081019061025b9190610da2565b61029a576040517f08c379a000000000000000000000000000000000000000000000000000000000815260040161029190610e1b565b60405180910390fd5b60005b6001805490508110156103e5576000600182815481106102c0576102bf610e3b565b5b9060005260206000200160009054906101000a900473ffffffffffffffffffffffffffffffffffffffff1690508073ffffffffffffffffffffffffffffffffffffffff166323b872dd6103116100da565b6003858154811061032557610324610e3b565b5b9060005260206000200160009054906101000a900473ffffffffffffffffffffffffffffffffffffffff166002868154811061036457610363610e3b565b5b90600052602060002001546040518463ffffffff1660e01b815260040161038d93929190610e79565b6020604051808303816000875af11580156103ac573d6000803e3d6000fd5b505050506040513d601f19601f820116820180604052508101906103d09190610da2565b505080806103dd90610edf565b91505061029d565b5060005b6005805490508110156104fd57600660009054906101000a900473ffffffffffffffffffffffffffffffffffffffff1673ffffffffffffffffffffffffffffffffffffffff166323b872dd61043c6100da565b600484815481106104505761044f610e3b565b5b9060005260206000200160009054906101000a900473ffffffffffffffffffffffffffffffffffffffff166005858154811061048f5761048e610e3b565b5b90600052602060002001546040518463ffffffff1660e01b81526004016104b893929190610e79565b600060405180830381600087803b1580156104d257600080fd5b505af11580156104e6573d6000803e3d6000fd5b5050505080806104f590610edf565b9150506103e9565b506001600660146101000a81548160ff0219169083151502179055505050565b610525610622565b846002908051906020019061053b92919061076c565b5083600190805190602001906105529291906107b9565b5082600390805190602001906105699291906107b9565b50816005908051906020019061058092919061076c565b5080600490805190602001906105979291906107b9565b505050505050565b6105a7610622565b600073ffffffffffffffffffffffffffffffffffffffff168173ffffffffffffffffffffffffffffffffffffffff1603610616576040517f08c379a000000000000000000000000000000000000000000000000000000000815260040161060d90610f99565b60405180910390fd5b61061f816106a0565b50565b61062a610764565b73ffffffffffffffffffffffffffffffffffffffff166106486100da565b73ffffffffffffffffffffffffffffffffffffffff161461069e576040517f08c379a000000000000000000000000000000000000000000000000000000000815260040161069590611005565b60405180910390fd5b565b60008060009054906101000a900473ffffffffffffffffffffffffffffffffffffffff169050816000806101000a81548173ffffffffffffffffffffffffffffffffffffffff021916908373ffffffffffffffffffffffffffffffffffffffff1602179055508173ffffffffffffffffffffffffffffffffffffffff168173ffffffffffffffffffffffffffffffffffffffff167f8be0079c531659141344cd1fd0a4f28419497f9722a3daafe3b4186f6b6457e060405160405180910390a35050565b600033905090565b8280548282559060005260206000209081019282156107a8579160200282015b828111156107a757825182559160200191906001019061078c565b5b5090506107b59190610843565b5090565b828054828255906000526020600020908101928215610832579160200282015b828111156108315782518260006101000a81548173ffffffffffffffffffffffffffffffffffffffff021916908373ffffffffffffffffffffffffffffffffffffffff160217905550916020019190600101906107d9565b5b50905061083f9190610843565b5090565b5b8082111561085c576000816000905550600101610844565b5090565b600073ffffffffffffffffffffffffffffffffffffffff82169050919050565b600061088b82610860565b9050919050565b61089b81610880565b82525050565b60006020820190506108b66000830184610892565b92915050565b6000604051905090565b600080fd5b600080fd5b600080fd5b6000601f19601f8301169050919050565b7f4e487b7100000000000000000000000000000000000000000000000000000000600052604160045260246000fd5b61091e826108d5565b810181811067ffffffffffffffff8211171561093d5761093c6108e6565b5b80604052505050565b60006109506108bc565b905061095c8282610915565b919050565b600067ffffffffffffffff82111561097c5761097b6108e6565b5b602082029050602081019050919050565b600080fd5b6000819050919050565b6109a581610992565b81146109b057600080fd5b50565b6000813590506109c28161099c565b92915050565b60006109db6109d684610961565b610946565b905080838252602082019050602084028301858111156109fe576109fd61098d565b5b835b81811015610a275780610a1388826109b3565b845260208401935050602081019050610a00565b5050509392505050565b600082601f830112610a4657610a456108d0565b5b8135610a568482602086016109c8565b91505092915050565b600067ffffffffffffffff821115610a7a57610a796108e6565b5b602082029050602081019050919050565b610a9481610880565b8114610a9f57600080fd5b50565b600081359050610ab181610a8b565b92915050565b6000610aca610ac584610a5f565b610946565b90508083825260208201905060208402830185811115610aed57610aec61098d565b5b835b81811015610b165780610b028882610aa2565b845260208401935050602081019050610aef565b5050509392505050565b600082601f830112610b3557610b346108d0565b5b8135610b45848260208601610ab7565b91505092915050565b600080600080600060a08688031215610b6a57610b696108c6565b5b600086013567ffffffffffffffff811115610b8857610b876108cb565b5b610b9488828901610a31565b955050602086013567ffffffffffffffff811115610bb557610bb46108cb565b5b610bc188828901610b20565b945050604086013567ffffffffffffffff811115610be257610be16108cb565b5b610bee88828901610b20565b935050606086013567ffffffffffffffff811115610c0f57610c0e6108cb565b5b610c1b88828901610a31565b925050608086013567ffffffffffffffff811115610c3c57610c3b6108cb565b5b610c4888828901610b20565b9150509295509295909350565b600060208284031215610c6b57610c6a6108c6565b5b6000610c7984828501610aa2565b91505092915050565b600082825260208201905092915050565b7f5472616e736665727320616c7265616479206578656375746564000000000000600082015250565b6000610cc9601a83610c82565b9150610cd482610c93565b602082019050919050565b60006020820190508181036000830152610cf881610cbc565b9050919050565b6000610d0a82610880565b9050919050565b610d1a81610cff565b8114610d2557600080fd5b50565b600081519050610d3781610d11565b92915050565b600060208284031215610d5357610d526108c6565b5b6000610d6184828501610d28565b91505092915050565b60008115159050919050565b610d7f81610d6a565b8114610d8a57600080fd5b50565b600081519050610d9c81610d76565b92915050565b600060208284031215610db857610db76108c6565b5b6000610dc684828501610d8d565b91505092915050565b7f4e6f7420656e6f756768206578656375746f72207369676e6174757265730000600082015250565b6000610e05601e83610c82565b9150610e1082610dcf565b602082019050919050565b60006020820190508181036000830152610e3481610df8565b9050919050565b7f4e487b7100000000000000000000000000000000000000000000000000000000600052603260045260246000fd5b610e7381610992565b82525050565b6000606082019050610e8e6000830186610892565b610e9b6020830185610892565b610ea86040830184610e6a565b949350505050565b7f4e487b7100000000000000000000000000000000000000000000000000000000600052601160045260246000fd5b6000610eea82610992565b91507fffffffffffffffffffffffffffffffffffffffffffffffffffffffffffffffff8203610f1c57610f1b610eb0565b5b600182019050919050565b7f4f776e61626c653a206e6577206f776e657220697320746865207a65726f206160008201527f6464726573730000000000000000000000000000000000000000000000000000602082015250565b6000610f83602683610c82565b9150610f8e82610f27565b604082019050919050565b60006020820190508181036000830152610fb281610f76565b9050919050565b7f4f776e61626c653a2063616c6c6572206973206e6f7420746865206f776e6572600082015250565b6000610fef602083610c82565b9150610ffa82610fb9565b602082019050919050565b6000602082019050818103600083015261101e81610fe2565b905091905056fea2646970667358221220d0d1baf5c5f3ed72be202b6dd23bffc99d6044d578bfb571c58a1c55ec9d785e64736f6c63430008120033a26469706673582212205ead742e51b65015faff090d420a1d0cf353feeb8ff33e8c9012dc76995102cb64736f6c63430008120033",
  "linkReferences": {},
  "deployedLinkReferences": {}
}